:10000000F2C0000010C100000EC1000015C60000C3
:100010003CC6000008C1000006C1000004C1000089
:1000200002C1000000C10000FEC00000FCC00000D2
:10003000FAC00000F8C00000F6C00000F4C00000E4
:10004000F2C00000F0C00000EEC00000ECC00000F4
:10005000EAC00000E8C00000E6C00000E4C0000004
:10006000E2C00000E0C00000DEC00000DCC0000014
:10007000DAC00000D8C00000D6C00000D4C0000024
:10008000D2C00000D0C00000CEC000005DC500009E
:10009000CAC00000C8C00000C6C00000C4C0000044
:1000A000C2C00000C0C00000BEC00000BCC0000054
:1000B000BAC00000B8C00000B6C000000FC6000003
:1000C000B2C00000B0C00000AEC00000ACC0000074
:1000D000AAC00000A8C00000A6C00000A4C0000084
:1000E000A2C000006E616E00696E660000407A106A
:1000F000F35A00A0724E18090010A5D4E80000E8D9
:100100007648170000E40B54020000CA9A3B000036
:1001100000E1F505000080969800000040420F00C5
:100120000000A08601000000102700000000E80386
:10013000000000006400000000000A000000000051
:100140000100000000002C76D888DC674F0823DF10
:10015000C1DFAE59E1B1B796E5E3E453C63AE651E3
:10016000997696E8E6C28426EB898C9B62ED407C0A
:100170006FFCEFBC9C9F40F2BAA56FA5F490055AA6
:100180002AF75C936B6CF9676DC11BFCE0E40D47CB
:10019000FEF520E6B500D0ED902E030094357705EE
:1001A0000080841E080000204E0A000000C80C33A6
:1001B0003333330F986E12831141EF8D2114893B35
:1001C000E65516CFFEE6DB18D1844B381BF77C1DB5
:1001D000901DA4BBE424203284725E228100C9F108
:1001E00024ECA1E53D2711241FBECFEFD1E2DEBFF5
:1001F000CDBF00E00CBF13E0A0E0B2E0E2E4F0E22B
:1002000000E00BBF02C007900D92AC30B107D9F7E8
:1002100023E0ACE0B3E001C01D92AE31B207E1F7DC
:1002200051D20C941F10BEC4EF92FF920F931F93F4
:10023000CF93DF93EC01E62E8BE0FE0111928A95BD
:10024000E9F725D12E2D22952F70265041E050E060
:10025000BA0102C0660F771F2A95E2F79B01282B8F
:10026000232B69F181E08E0DF7D078E0879F800124
:1002700011241983088382E08E0DEED08295869535
:100280008770082B1983088385E08E0DE5D08F7069
:100290008A838823B1F08E010D5F1F4FF12C86E019
:1002A000E80E8E2D8F0DD8D0F80181938F01F39435
:1002B0008A81F81640F4F8E0FF12F3CF06C080E020
:1002C00005C081E003C081E001C081E0DF91CF91F2
:1002D0001F910F91FF90EF9008957F9905C08EE0D8
:1002E000BBD08E708695089580E0089560E08CE222
:1002F000BFC008958798EBD0E5D040E860EE8FE06E
:10030000CDD08EE0A9D0807E803821F086E092E0CA
:100310000E944C0E40E260E680E6C0D044E064E01B
:1003200080E6BCD040E260E680E7B8D063E08BE2D4
:100330009FD060EA80E29CD040E260EE81E2AED0E5
:1003400060EA84E295D040E660EE85E2A7D060E204
:1003500080E08ED040E060EE81E0A0D060E284E0FA
:1003600087D040E260EE85E099D060EA88E080D0F6
:1003700040E060EE89E092D060EA80E179D040E22E
:1003800060EE81E18BD060EA84E172D040E460EEFF
:1003900085E184D060EA88E16BD040E660EE89E1D7
:1003A0007DD0A4DF40E060EE8FE078C00895863015
:1003B00031F0873031F0813031F080E0089581E014
:1003C000089582E0089580E20895882329F0EFDF00
:1003D00040E0682F8CE262C0089585E08093B80009
:1003E000E9EBF0E080818160808381E18093BA0055
:1003F000ECEBF0E08081846080838FEF8093BB0022
:10040000089594EA9093BC00ECEBF0E0908199237E
:10041000ECF7660F6093BB0094E89093BC00ECEBA4
:10042000F0E090819923ECF71092BB0094E8909350
:10043000BC00ECEBF0E090819923ECF78093BB00DB
:1004400084E88093BC00ECEBF0E080818823ECF73B
:1004500084E98093BC000895CF93C82F289883E047
:100460003ED08C2F3CD080E03AD0289ACF9108958E
:10047000CF93DF93D82FC62F289882E030D08D2FCE
:100480002ED08C2F2CD0289ADF91CF9108952898C8
:1004900080EA25D080E023D0289A08951F93CF9337
:1004A000DF93182FD62FC42F289885E018D0812FDE
:1004B00016D08D2F14D08C2F12D0289ADF91CF9187
:1004C0001F910895289880EC0AD0289A0895229ABE
:1004D0002398219A209A8CB581658CBD08958EBD94
:1004E0000DB407FEFDCF8EB50895E0ECF0E09081ED
:1004F00095FFFDCF8093C6000895E0ECF0E0808189
:100500008823ECF78091C60008951092C50087E615
:100510008093C40088E18093C10086E08093C2008C
:100520006DE772E085E792E00C94BF0D0895809826
:10053000ECE7F0E08081816080838081806480834B
:10054000EAE7F0E0808189688083EBE7F0E0808172
:1005500080830895962F882311F08B9A01C08B9881
:1005600068E2892F4ECF08958C392FEF920714F44B
:100570008CE99FEF8536910514F084E690E09C01AC
:10058000275F3F4F2331310520F460E080E0E2CF68
:10059000089599232CF468E2681B80E0DBCF08956E
:1005A00068E2680F81E0D6CF08958E988AE68A9532
:1005B000F1F700C08E9A089580B3886F80BB8E9843
:1005C00081B3806581BB81B3877581BBEECF089510
:1005D0008295282F2373220F220F982F9C7C9695AB
:1005E0009695922B292F2575220F9A7A892F869519
:1005F000822B0895CF93DF938D9A8AE68A95F1F73F
:1006000000C080910601E4DFC82FD0E08D988AE613
:100610008A95F1F700C080910601DADFD82B80EDD2
:100620009EEE8C1B9D0BDF91CF910895259AA0E83B
:10063000B0E08C9182608C93E1E8F0E08081886189
:1006400080838C9180688C9380818260808380E439
:100650009CE9909387008093860088E097E09093D0
:1006600089008093880008958C392FEF920714F445
:100670008CE99FEF8536910514F084E690E06627BB
:100680007727681B790B882777FD8095982FC8D42A
:100690002BE933E549EC56E373D526EA3BE944EC14
:1006A0005AE3BBD320E034E244E75BE469D520E0C1
:1006B00030E040E05EE364D585D4709389006093B8
:1006C00088000895CF93DF93CDB7DEB7CE54D1091C
:1006D0000FB6F894DEBF0FBECDBF789416DF89E366
:1006E00092E00E944C0E06DE88E492E00E944C0EDE
:1006F0009DDF86E592E00E944C0E19DF86E692E0CF
:100700000E944C0E6ADE84E792E00E944C0E54DF99
:1007100082E892E00E944C0EEED182E992E00E94C3
:100720004C0E829A8A9A1B82CE010C96D4D08CEA07
:1007300092E00E944C0E2F961FAE2F972E961FAE62
:100740001EAE2E9780EC92E00E944C0E912C712CE4
:10075000C12CD12C0F2EFEECEF2EF2E0FF2EF02D4F
:100760000F2EF8EDAF2EF2E0BF2EF02DB6DD182FD4
:10077000863059F0873071F0813081F4FF92EF922A
:100780000E943B0E0F900F9009C060E6CE010196CB
:100790004BDD04C060E7CE01019646DD812F15DEFA
:1007A0008B81882351F08C81882319F0813019F0D6
:1007B00004C01B8202C07D801B82772009F482C0A6
:1007C0008E81992787FD90954FDFE4E9F0E0608105
:1007D000718180E090E022D420E034E244E758E4E4
:1007E00084D32C966CAF7DAF8EAF9FAF2C97E4E98E
:1007F000F0E011821082F1E07F1229C08F8176D162
:100800004C01B601882777FD8095982F09D41B01EC
:100810002C01B401882777FD8095982F01D42C9660
:100820002CAD3DAD4EAD5FAD2C97AAD49B01AC0174
:10083000F4D29B01AC01C201B101EFD2BED36B0176
:10084000CE010C9685D08D818170982E28C022E033
:10085000721225C060E0CE01845B9F4FA0D22E961D
:100860006EAD7FAD2E97CE010C9672D0C3DE9F93F6
:100870008F932E968FAD2E978F932D968FAD2D97AC
:100880008F93BF92AF920E943B0E888D998D6CDE44
:100890000F900F900F900F900F900F9010C0888DB9
:1008A000998D62DE992059F08A988FEF91EEE4E0FD
:1008B00081509040E040E1F700C0000057CF8A9A95
:1008C000912C54CFE4E9F0E01182108280E090E0B6
:1008D0004BDE6BDE4BCFDC0140E050E060EA71E4C0
:1008E0004D935D936D937C93139740E050E060E2ED
:1008F00071E414964D935D936D937C9317974AE939
:1009000059E969E97EE318964D935D936D937C9365
:100910001B971D961C921E921C971E961D921D924F
:100920001D921C925197FC01729680E011921192D7
:10093000119211928F5F8A30C9F7DA961C92DA977A
:10094000DB961C92E1E9F0E080818360808308956A
:100950002F923F924F925F926F927F928F929F92CF
:10096000AF92BF92CF92DF92EF92FF920F931F93BD
:10097000CF93DF9300D0CDB7DEB78C017B013ADE99
:100980009701281B390BC90168E570E0F7D71B01F7
:10099000882777FD8095982F43D34B015C01F801A0
:1009A00044AC55AC66AC77ACA3019201E9D3F80135
:1009B000268537854089518930D26B017C01F80149
:1009C00066877787808B918B20E030E0A901C30197
:1009D000B20187D2882309F445C0F801F2ADF9834A
:1009E000980184E0F89F200D311D11243B832A8358
:1009F000F80183ADB101681B710987FD73958827E4
:100A000077FD8095982F0CD3A30192016ED2EA81D5
:100A1000FB81628B738B848B958B89818F5F8A308E
:100A200018F4F80182AF02C0F80112AE2801F2E119
:100A30004F0E511C0F2EFAE07F2EF02D60E070E07B
:100A4000CB01F20121913191419151912F01E5D1D9
:100A50007A94B9F720E030E040E251E446D22B012D
:100A60003C0103C0412C512C3201F801208131811D
:100A700042815381C501B40183D34B015C01F8016C
:100A80002481358146815781C701B60179D39B0105
:100A9000AC01C501B401C1D16B017C01F801208515
:100AA000318542855385C301B2016AD39B01AC01F4
:100AB000C701B601B2D181D2F8017587648723AE30
:100AC0000F900F900F90DF91CF911F910F91FF909A
:100AD000EF90DF90CF90BF90AF909F908F907F90DE
:100AE0006F905F904F903F902F9008952CE282027C
:100AF000C001112408953F9A3A983E9A3B98E9E63E
:100B0000F0E0808180638083EA9A8081806C8083BA
:100B1000EB9AE2E7F0E0808181608083E0E2F1E03F
:100B20008081806C8083E1E2F1E08081836080835A
:100B30008FEF9FEF9093290180932801E3E7F0E086
:100B400080818260808308951F920F920FB60F926A
:100B500011240BB60F922F933F934F935F936F9394
:100B60007F938F939F93AF93BF93EF93FF9384EF04
:100B700092E09F938F930E943B0E0F900F90FF91F6
:100B8000EF91BF91AF919F918F917F916F915F9105
:100B90004F913F912F910F900BBE0F900FBE0F9072
:100BA0001F9018958DEF92E00C944C0E0895909143
:100BB000690094FF13C08091A1008770E1F5E9E618
:100BC000F0E080818F7E80831092A5001092A400B7
:100BD000E1EAF0E080818260808327C09091690023
:100BE00094FD23C0E9E6F0E0908190619083E1EA12
:100BF000F0E09081987F9083C89916C0811109C058
:100C00008091A4009091A500909313038093120308
:100C10000CC0813051F48091A4009091A500909374
:100C200011038093100301C0C89A81E090E0909373
:100C30000F0380930E0308951F920F920FB60F9229
:100C400011240BB60F922F933F934F935F936F93A3
:100C50007F938F939F93AF93BF93EF93FF9380E026
:100C600090E0A5DFFF91EF91BF91AF919F918F91A0
:100C70007F916F915F914F913F912F910F900BBE9C
:100C80000F900FBE0F901F9018951F920F920FB6E6
:100C90000F9211240BB60F922F933F934F935F93B4
:100CA0006F937F938F939F93AF93BF93EF93FF9334
:100CB00081E090E07CDFFF91EF91BF91AF919F9138
:100CC0008F917F916F915F914F913F912F910F90F5
:100CD0000BBE0F900FBE0F901F9018951F920F9292
:100CE0000FB60F9211248F939F9380910C039091D4
:100CF0000D03019779F410920D0310920C03469A9C
:100D000085E38A95F1F7000046981092250110922C
:100D1000240114C080910C0390910D03892B71F470
:100D200080910C0390910D03479A85E38A95F1F722
:100D30000000479810922501109224019F918F91F5
:100D40000F900FBE0F901F901895880F991F880F56
:100D5000991F880F991F929582958F7089279F7090
:100D60008927A0E0B0E085309105A105B10538F0F4
:100D7000BC01CD01685E71098109910903C060E081
:100D800070E0CB014BD125E332EC42E750E4F8D1DF
:100D900020E030E849E855E43FD00FC10895CF92F4
:100DA000DF92EF92FF920F931F93CF93DF93EC01AB
:100DB00080910E0390910F03892B29F110920F035C
:100DC00010920E03611105C00091120310911303DC
:100DD00006C0613021F40091100310911103C80185
:100DE000B4DF6B017C0120E3C20E21E1D21EE11CC5
:100DF000F11C21E6C21622E2D206E104F10418F445
:100E00000A8379836883DF91CF911F910F91FF90BF
:100E1000EF90DF90CF9008955058BB27AA270ED0AF
:100E200075C166D130F06BD120F031F49F3F11F4E1
:100E30001EF45BC10EF4E095E7FB51C1E92F77D1B9
:100E400080F3BA17620773078407950718F071F4E7
:100E50009EF58FC10EF4E0950B2EBA2FA02D0B013D
:100E6000B90190010C01CA01A0011124FF27591BEF
:100E700099F0593F50F4503E68F11A16F040A22FF5
:100E8000232F342F4427585FF3CF46953795279566
:100E9000A795F0405395C9F77EF41F16BA0B620B65
:100EA000730B840BBAF09150A1F0FF0FBB1F661FAC
:100EB000771F881FC2F70EC0BA0F621F731F841FEF
:100EC00048F4879577956795B795F7959E3F08F015
:100ED000B3CF9395880F08F09927EE0F97958795D4
:100EE0000895D9D008F481E008950CD00FC107D13E
:100EF00040F0FED030F021F45F3F19F0F0C0511106
:100F000039C1F3C014D198F39923C9F35523B1F330
:100F1000951B550BBB27AA2762177307840738F068
:100F20009F5F5F4F220F331F441FAA1FA9F333D0C7
:100F30000E2E3AF0E0E830D091505040E695001C7B
:100F4000CAF729D0FE2F27D0660F771F881FBB1F37
:100F5000261737074807AB07B0E809F0BB0B802D11
:100F6000BF01FF2793585F4F2AF09E3F510568F05D
:100F7000B6C000C15F3FECF3983EDCF386957795F1
:100F80006795B795F7959F5FC9F7880F911D96955F
:100F9000879597F90895E1E0660F771F881FBB1FBB
:100FA000621773078407BA0720F0621B730B840B68
:100FB000BA0BEE1F88F7E095089504D06894B1113C
:100FC000D9C00895BCD088F09F5790F0B92F9927C9
:100FD000B751A0F0D1F0660F771F881F991F1AF044
:100FE000BA95C9F712C0B13081F0C3D0B1E008950D
:100FF000C0C0672F782F8827B85F39F0B93FCCF38E
:10100000869577956795B395D9F73EF49095809539
:10101000709561957F4F8F4F9F4F0895E89409C059
:1010200097FB3EF490958095709561957F4F8F4F1B
:101030009F4F9923A9F0F92F96E9BB279395F69531
:10104000879577956795B795F111F8CFFAF4BB0FAF
:1010500011F460FF1BC06F5F7F4F8F4F9F4F16C013
:10106000882311F096E911C0772321F09EE8872F9D
:10107000762F05C0662371F096E8862F70E060E059
:101080002AF09A95660F771F881FDAF7880F9695D2
:10109000879597F90895990F0008550FAA0BE0E876
:1010A000FEEF16161706E807F907C0F0121613062A
:1010B000E407F50798F0621B730B840B950B39F46A
:1010C0000A2661F0232B242B252B21F408950A26D0
:1010D00009F4A140A6958FEF811D811D089597F910
:1010E0009F6780E870E060E008959FEF80EC0895CE
:1010F00000240A94161617061806090608950024F7
:101100000A9412161306140605060895092E039470
:10111000000C11F4882352F0BB0F40F4BF2B11F4E4
:1011200060FF04C06F5F7F4F8F4F9F4F089557FD43
:101130009058440F551F59F05F3F71F04795880F45
:1011400097FB991F61F09F3F79F0879508951216DC
:1011500013061406551FF2CF4695F1DF08C0161688
:1011600017061806991FF1CF869571056105089439
:101170000895E894BB2766277727CB0197F9089550
:101180000BD0C4CFB5DF28F0BADF18F0952309F0F3
:10119000A6CFABCF1124EECFCADFA0F3959FD1F33A
:1011A000950F50E0551F629FF001729FBB27F00D15
:1011B000B11D639FAA27F00DB11DAA1F649F66276A
:1011C000B00DA11D661F829F2227B00DA11D621FB9
:1011D000739FB00DA11D621F839FA00D611D221F73
:1011E000749F3327A00D611D231F849F600D211D57
:1011F000822F762F6A2F11249F5750408AF0E1F0FA
:1012000088234AF0EE0FFF1FBB1F661F771F881F42
:1012100091505040A9F79E3F510570F060CFAACF82
:101220005F3FECF3983EDCF3869577956795B7952D
:10123000F795E7959F5FC1F7FE2B880F911D969557
:10124000879597F908952F923F924F925F926F92F0
:101250007F928F929F92AF92BF92CF92DF92EF9246
:10126000FF920F931F93CF93DF93CDB7DEB76397B2
:101270000FB6F894DEBF0FBECDBF7C011B016A0123
:10128000FC0117821682838181FF49C3BE016F5F13
:101290007F4F4B01F7019381F10193FD859193FFFE
:1012A00081911F01882309F436C3853239F493FDF7
:1012B000859193FF81911F01853231F4B70190E050
:1012C000A8D456016501E6CF10E0512C20E0203271
:1012D000A0F48B3269F030F4803259F0833269F433
:1012E00020612CC08D3239F0803339F4216026C062
:1012F0002260246023C0286021C027FD27C030ED74
:10130000380F3A3078F426FF06C0FAE01F9F300D00
:101310001124132F13C06AE0569E300D1124532E52
:1013200020620CC08E3221F426FDF5C2206406C076
:101330008C3611F4206802C0883641F4F10193FD27
:10134000859193FF81911F018111C1CF9BEB980F74
:10135000933018F42061805E06C09BE9980F9330AB
:1013600008F09AC12F7E26FF16E02F73722E853665
:1013700021F4F22FF0647F2E08C0863621F4622F0C
:101380006068762E02C01111115077FE07C01C3321
:1013900048F444244394410E27E00BC0183030F445
:1013A000212F06C027E04CE3442E03C027E017E0BE
:1013B000412C560174E0A70EB11CF60160817181C9
:1013C00082819381042DA401ECD26C01098100FF7C
:1013D00002C003FF06C071FC07C072FC08C0612C8C
:1013E00008C03DE2632E05C02BE2622E02C090E2EF
:1013F000692E802F8C7081F1662011F084E001C08D
:1014000083E0851510F0512C0AC0581A73FC07C0F0
:10141000B70180E290E0FDD35A94D1F7F4CF662073
:1014200021F0B701862D90E0F4D303FD03C008EE50
:1014300010E002C004EE10E0F72DF0717F2EF801ED
:101440008491882309F45EC271108052B70190E044
:10145000E0D30F5F1F4FF3CF77FE0FC04C0C04FF9C
:1014600004C08A81813309F44A94141474F5F8E0B5
:10147000F41578F588E0482E2CC076FC2AC0812F20
:1014800090E08C159D059CF06CEFC6166FEFD606AC
:1014900074F0772D7068772E0AC0E2E0F0E0EC0F70
:1014A000FD1FE10FF11D8081803319F411501111DE
:1014B000F4CF77FE0EC044244394410E812F90E078
:1014C000C816D9062CF41C1904C04424439401C046
:1014D00010E077FE07C01C141D043CF496012F5F3A
:1014E0003F4F05C025E030E002C021E030E066203B
:1014F00011F02F5F3F4F112331F0412F50E04F5F2C
:101500005F4F240F351F452D50E02417350714F485
:10151000521A01C0512C872D897041F4552031F0A9
:10152000B70180E290E075D35A94F8CF662021F09D
:10153000B701862D90E06DD373FC08C0552031F0C3
:10154000B70180E390E065D35A94F8CF77FE5DC091
:101550009C2D8D2DD7FE02C090E080E0692E782E64
:1015600040E050E0C601841991099D878C8796015F
:1015700026193709280D391D812F90E0EE27FF2706
:10158000E81BF90BFF87EE87FFEF6F167F0661F40C
:10159000B7018EE290E02B8B3A8B488B598B39D375
:1015A000598948893A892B89C614D70454F06C8527
:1015B0007D85661577052CF4F901E40FF51F81810F
:1015C00001C080E371E0671A71084F5F5F4FEE85DD
:1015D000FF856E167F0664F0B70190E02B8B3A8B87
:1015E000488B598B16D32B893A8948895989CCCF96
:1015F0006C147D0439F49A81963318F4953311F400
:1016000004FF81E3B70190E045C08A81813309F08E
:101610000F7EB70190E0FDD2111105C074FE16C017
:1016200085E490E015C0B7018EE290E0F2D282E04E
:1016300066246394680EF401E80FF11D8081B70100
:1016400090E0E7D2115051F3862DF2CF85E690E07D
:10165000B701DFD2D7FC05C0C114D10439F404FFAF
:1016600005C0D194C194D1088DE201C08BE2B701CD
:1016700090E0CFD280E36AE0C616D1042CF08F5FF1
:10168000FAE0CF1AD108F7CFB70190E0C2D2B70184
:10169000C601C096BED236C1833631F0833779F0A9
:1016A000833509F054C020C0560172E0A70EB11C6A
:1016B000F6018081898301E010E0640113C05601C6
:1016C000F2E0AF0EB11CF601C080D18026FF03C04E
:1016D000612F70E002C06FEF7FEFC6012B8B44D209
:1016E0008C012B892F7714C05601F2E0AF0EB11C8C
:1016F000F601C080D18026FF03C0612F70E002C0D8
:101700006FEF7FEFC6012B8B24D28C012B892068D1
:10171000722E23FD18C0852D90E00817190798F444
:10172000B70180E290E075D25A94F5CFF60177FCCC
:10173000859177FE81916F01B70190E06AD25110D7
:101740005A94015011090115110581F7DBC0843647
:1017500011F0893649F5560127FF09C0F4E0AF0EB4
:10176000B11CF60160817181828193810AC0F2E02F
:10177000AF0EB11CF60160817181882777FD8095DD
:10178000982F022F0F7697FF08C09095809570953F
:1017900061957F4F8F4F9F4F00682AE030E0A40192
:1017A000A8D2C82EC8183DC0022F853721F40F7E5D
:1017B0002AE030E01DC0097F8F3691F018F488359B
:1017C00059F0A9C0803719F0883711F0A4C0006122
:1017D00004FF09C0046007C024FF08C0066006C0FB
:1017E00028E030E005C020E130E002C020E132E036
:1017F000560107FF09C0F4E0AF0EB11CF60160818D
:1018000071818281938108C0F2E0AF0EB11CF601B4
:101810006081718180E090E0A4016BD2C82EC8186D
:101820000F7706FF0BC0202F2E7FC11650F404FF48
:101830000AC002FD08C0202F2E7E05C0DC2C202F00
:1018400003C0DC2C01C0D12E24FF0DC0FE01EC0D25
:10185000F11D8081803311F4297E09C022FF06C06A
:10186000D394D39404C0822F867809F0D39423FDB7
:1018700012C020FF06C01C2DD51418F4150D1D191B
:10188000D52CD51460F4B70180E290E02B8BC1D148
:10189000D3942B89F6CFD51410F45D1801C0512CC8
:1018A00024FF11C0B70180E390E02B8BB2D12B89CC
:1018B00022FF16C021FF03C088E590E002C088E740
:1018C00090E0B7010CC0822F867851F021FD02C054
:1018D00080E201C08BE227FD8DE2B70190E099D153
:1018E000C11630F4B70180E390E093D11150F8CFE6
:1018F000CA94F401EC0DF11D8081B70190E089D10B
:10190000C110F6CF552009F4DDCCB70180E290E09C
:1019100080D15A94F7CFF7018681978102C08FEF6B
:101920009FEF63960FB6F894DEBF0FBECDBFDF9179
:10193000CF911F910F91FF90EF90DF90CF90BF90CC
:10194000AF909F908F907F906F905F904F903F905F
:101950002F900895AA1BBB1B51E107C0AA1FBB1FF4
:10196000A617B70710F0A61BB70B881F991F5A952B
:10197000A9F780959095BC01CD01089597FB072E9E
:1019800016F4009406D077FD08D0E4DF07FC05D0FC
:101990003EF4909581959F4F0895709561957F4F86
:1019A0000895283008F027E03327DA01990F311D18
:1019B00087FD916000966105710539F432602E5FF4
:1019C0003D9330E32A95E1F708959F3F30F080384A
:1019D0007105610509F03C5F3C5F3D93913008F073
:1019E0008068911DDF93CF931F930F93FF92EF9227
:1019F000192F987F9695E92F96959695E90FFF27D1
:101A0000EA5BFE4F99273327EE24FF24A701E70165
:101A100005900894079428F4360FE71EF81E491F16
:101A2000511D660F771F881F991F0694A1F7059017
:101A3000079428F4E70EF81E491F561FC11D770FA3
:101A4000881F991F661F0694A1F70590079428F434
:101A5000F80E491F561FC71FD11D880F991F661FFB
:101A6000771F0694A1F70590079420F4490F561F9D
:101A7000C71FD81F990F661F771F881F0694A9F7E5
:101A800084911095177041F0D695C7955795479555
:101A9000F794E7941A95C1F7ECEEF0E0689415908E
:101AA000159135916591959105907FE27395E118B7
:101AB000F10A430B560BC90BD009C0F7E10CF11E1C
:101AC000431F561FC91FD01D7EF4703311F48A9531
:101AD000E6CFE894015030F0080F0AF4002702170F
:101AE00008F4202F2395022F7A3328F079E37D9391
:101AF0002A95E9F710C07D932A9589F60694979563
:101B00006795379517951794E118F10A430B560B13
:101B1000C90BD00998F023957E9173957A3308F01C
:101B200070E37C932013B8F77E9170617D9330F061
:101B3000839571E37D9370E32A95E1F71124EF908B
:101B4000FF900F911F91CF91DF91992787FD90957D
:101B50000895FC010590615070400110D8F7809500
:101B600090958E0F9F1F0895FC0161507040019069
:101B70000110D8F7809590958E0F9F1F08950F93B1
:101B80001F93CF93DF93EC018B01009731F4611524
:101B9000710519F480E090E037C06EE070E081E0FC
:101BA00090E005D1FC010097A9F380E8838301153B
:101BB000110571F01387028781E8838380911403F4
:101BC00090911503892B21F4F0931503E0931403EE
:101BD0002097C9F0D187C0878381826083838091F9
:101BE000160390911703892B71F4F0931703E09378
:101BF00016038091180390911903892B21F4F09317
:101C00001903E0931803CF01DF91CF911F910F913A
:101C100008950F931F93CF93DF93182F092FEB0194
:101C20008B8181FD03C08FEF9FEF20C082FF10C02A
:101C30004E815F812C813D81421753077CF4E881FE
:101C4000F9819F012F5F3F4F39832883108306C09E
:101C5000E885F985812F1995892B29F72E813F81F8
:101C60002F5F3F4F3F832E83812F902FDF91CF91A6
:101C70001F910F910895CF93DF93CDB7DEB7FE018B
:101C8000369661917191AF0180911603909117037F
:101C9000DADADF91CF9108950F931F93CF93DF93FB
:101CA000E0911603F0911703238121FF1BC0EC0183
:101CB00000E010E089916091160370911703DB0139
:101CC0001896ED91FC911997882331F01995892B7D
:101CD00089F30FEF1FEFEECF8AE01995892B11F4EE
:101CE000C80102C08FEF9FEFDF91CF911F910F913D
:101CF0000895FA01AA27283051F1203181F1E894A2
:101D00006F936E7F6E5F7F4F8F4F9F4FAF4FB1E0EE
:101D10003ED0B4E03CD0670F781F891F9A1FA11DE9
:101D2000680F791F8A1F911DA11D6A0F711D811DEA
:101D3000911DA11D20D009F468943F912AE0269FAF
:101D400011243019305D3193DEF6CF010895462F0E
:101D50004770405D4193B3E00FD0C9F7F6CF462FEF
:101D60004F70405D4A3318F0495D31FD4052419358
:101D700002D0A9F7EACFB4E0A69597958795779515
:101D80006795BA95C9F700976105710508959B019C
:101D9000AC010A2E06945795479537952795BA9525
:101DA000C9F7620F731F841F951FA01D08950F931D
:101DB0001F93CF93DF93869F8001879F100D969F7F
:101DC000100D1124C8010DD0EC01009721F0A801DD
:101DD00060E070E02DD1CE01DF91CF911F910F9186
:101DE0000895CF93DF938230910510F482E090E064
:101DF000E0911C03F0911D0320E030E0A0E0B0E092
:101E0000309739F14081518148175907B8F0481788
:101E1000590771F482819381109729F013969C934E
:101E20008E9312972CC090931D0380931C0327C0A0
:101E30002115310531F04217530718F0A901DB01D4
:101E400001C0EF019A01BD01DF010280F381E02DA5
:101E5000D7CF21153105F9F0281B390B2430310576
:101E600080F48A819B816115710521F0FB019383C8
:101E7000828304C090931D0380931C03FE0132965D
:101E800044C0FE01E20FF31F819391932250310968
:101E9000398328833AC020911A0330911B03232BE6
:101EA00041F4209102023091030230931B032093EE
:101EB0001A0320910002309101022115310541F4ED
:101EC0002DB73EB74091040250910502241B350BFB
:101ED000E0911A03F0911B03E217F307A0F42E1B05
:101EE0003F0B2817390778F0AC014E5F5F4F24177E
:101EF000350748F04E0F5F1F50931B0340931A03A2
:101F00008193919302C0E0E0F0E0CF01DF91CF91A7
:101F10000895CF93DF93009709F487C0FC013297AF
:101F200013821282C0911C03D0911D03209781F46B
:101F300020813181280F391F80911A0390911B0352
:101F40008217930779F5F0931B03E0931A036DC092
:101F5000DE0120E030E0AE17BF0750F412964D913D
:101F60005C9113979D014115510509F1DA01F3CFF9
:101F7000B383A28340815181840F951F8A179B07E9
:101F800071F48D919C911197840F951F0296918306
:101F9000808312968D919C91139793838283211550
:101FA000310529F4F0931D03E0931C033EC0D901D1
:101FB0001396FC93EE9312974D915D91A40FB51F6C
:101FC000EA17FB0779F480819181840F951F0296AF
:101FD000D90111969C938E938281938113969C9341
:101FE0008E931297E0E0F0E08A819B81009719F0D0
:101FF000FE01EC01F9CFCE01029628813981820FD2
:10200000931F20911A0330911B032817390769F495
:10201000309729F410921D0310921C0302C0138202
:102020001282D0931B03C0931A03DF91CF910895BE
:10203000DC0101C06D9341505040E0F70895F894E1
:02204000FFCFD0
:1020420000001E0320004D435032353135206973A4
:10205200204E4F5420696E20636F6E6669677572F9
:102062006174696F6E206D6F64652061667465725C
:10207200207265736574210A005561727420696E5D
:10208200697420646F6E650043616E20696E6974C5
:1020920020646F6E6500536572766F20696E697495
:1020A20020646F6E650041444320696E6974206448
:1020B2006F6E650049324320696E697420646F6EE9
:1020C20065004D6F746F7220696E697420646F6E63
:1020D200650044697374616E63652073656E736F26
:1020E2007220696E697420646F6E6500526567754F
:1020F2006C61746F7220696E697420646F6E650022
:10210200416C6C20696E697420646F6E6500434196
:102112004E204552524F520053656E733A20256944
:102122002020202009456E636F643A202569202013
:1021320020200D004F564552464C4F5700426164D5
:0C21420020696E74657272757074000084
:00000001FF
