:10000000F2C0000010C100000EC1000073C7000064
:100010009AC7000008C1000006C1000004C100002A
:1000200002C1000000C10000FEC00000FCC00000D2
:10003000FAC00000F8C00000F6C00000F4C00000E4
:10004000F2C00000F0C00000EEC00000ECC00000F4
:10005000EAC00000E8C00000E6C00000E4C0000004
:10006000E2C00000E0C00000DEC00000DCC0000014
:10007000DAC000001AC60000D6C00000D4C00000DC
:10008000D2C00000D0C00000CEC00000CCC0000034
:10009000CAC00000C8C00000C6C00000C4C0000044
:1000A000C2C00000C0C00000BEC00000BCC0000054
:1000B000BAC000007DC60000B6C000006DC70000D9
:1000C000B2C00000B0C00000AEC00000ACC0000074
:1000D000AAC00000A8C00000A6C00000A4C0000084
:1000E000A2C000006E616E00696E660000407A106A
:1000F000F35A00A0724E18090010A5D4E80000E8D9
:100100007648170000E40B54020000CA9A3B000036
:1001100000E1F505000080969800000040420F00C5
:100120000000A08601000000102700000000E80386
:10013000000000006400000000000A000000000051
:100140000100000000002C76D888DC674F0823DF10
:10015000C1DFAE59E1B1B796E5E3E453C63AE651E3
:10016000997696E8E6C28426EB898C9B62ED407C0A
:100170006FFCEFBC9C9F40F2BAA56FA5F490055AA6
:100180002AF75C936B6CF9676DC11BFCE0E40D47CB
:10019000FEF520E6B500D0ED902E030094357705EE
:1001A0000080841E080000204E0A000000C80C33A6
:1001B0003333330F986E12831141EF8D2114893B35
:1001C000E65516CFFEE6DB18D1844B381BF77C1DB5
:1001D000901DA4BBE424203284725E228100C9F108
:1001E00024ECA1E53D2711241FBECFEFD1E2DEBFF5
:1001F000CDBF00E00CBF13E0A0E0B2E0EAE8F4E21B
:1002000000E00BBF02C007900D92AC30B107D9F7E8
:1002100023E0ACE0B3E001C01D92AD31B207E1F7DD
:100220009FD30C9443122DC5FF920F931F93CF932E
:10023000DF93EC01F62E88819981BC017695679554
:10024000769567957695679581E08F0D5ED168818B
:100250006295660F607E82E08F0D57D16A8185E0DE
:100260008F0D53D18A81882371F010E006E00F0DC5
:10027000FE01E10FF11D6381802F810F46D11F5FC9
:100280008A811817A8F380E3F81203C081E853D1DC
:100290000BC080E4F81203C082E84DD105C080E5B0
:1002A000F81202C084E847D1DF91CF911F910F91DE
:1002B000FF900895CF93DF93EC0136D160E3CE0138
:1002C000B3DF81E0DF91CF910895EF92FF920F931A
:1002D0001F93CF93DF938C01E62E26D12E2D2295EE
:1002E0002F70265041E050E0BA0102C0660F771F20
:1002F0002A95E2F79B01282B232B71F181E08E0DCB
:10030000F8D078E0879FE0011124F801D183C08301
:1003100082E08E0DEED0829586958770C82BF8010D
:10032000D183C08385E08E0DE4D08F70F801828385
:100330008823A1F0E8012396F12CF6E0EF0E8E2D34
:100340008F0DD7D08993F394F8018281F81640F489
:10035000F8E0FF12F4CF06C080E005C081E003C0E2
:1003600081E001C081E0DF91CF911F910F91FF905B
:10037000EF9008957F9905C08EE0BBD08E70869572
:10038000089580E0089560E08CE2BFC008958798EA
:10039000EFD0E9D08AE68A95F1F700C08EE0A9D0C7
:1003A000807E803821F089E092E00E94701040E267
:1003B00060E680E6C4D044E064E080E6C0D040E27D
:1003C00060E680E7BCD063E08BE29FD060EA80E229
:1003D0009CD040E260EE81E2B2D060EA84E295D047
:1003E00040E660EE85E2ABD060E280E08ED040E097
:1003F00060EE81E0A4D060E284E087D040E260EE6D
:1004000085E09DD060EA88E080D040E060EE89E041
:1004100096D060EA80E179D040E260EE81E18FD051
:1004200060EA84E172D040E460EE85E188D060EA61
:1004300088E16BD040E660EE89E181D0A4DF40E046
:1004400060EE8FE07CC00895863031F0873031F067
:10045000813031F080E0089581E0089582E00895D0
:1004600080E20895882329F0EFDF40E0682F8CE2D6
:1004700066C0089585E08093B800E9EBF0E08081E4
:100480008160808381E18093BA00ECEBF0E08081B1
:10049000846080838FEF8093BB00089594EA9093EB
:1004A000BC00ECEBF0E090819923ECF7660F6093D1
:1004B000BB0094E89093BC00ECEBF0E090819923B2
:1004C000ECF71092BB0094E89093BC00ECEBF0E0EA
:1004D00090819923ECF78093BB0084E88093BC0063
:1004E000ECEBF0E080818823ECF784E98093BC009A
:1004F0000895CF93C82F289883E042D08C2F40D006
:1005000080E03ED0289ACF910895CF93DF93D82FE3
:10051000C62F289882E034D08D2F32D08C2F30D047
:10052000289ADF91CF910895289880EA29D080E019
:1005300027D0289A0895289823D0289A08951F93A1
:10054000CF93DF93182FD62FC42F289885E018D08B
:10055000812F16D08D2F14D08C2F12D0289ADF9196
:10056000CF911F910895289880EC0AD0289A089579
:10057000229A2398219A209A8CB581658CBD089582
:100580008EBD0DB407FEFDCF8EB50895E0ECF0E012
:10059000908195FFFDCF8093C6000895E0ECF0E0D8
:1005A00080818823ECF78091C60008951092C500E1
:1005B00083E38093C40088E18093C10086E0809348
:1005C000C2006EEC72E086EC92E00C94E30F0895AA
:1005D000962F882311F08B9A01C08B9868E2892F9F
:1005E0005DCF08958C392FEF920714F48CE99FEFBB
:1005F0008536910514F084E690E09C01275F3F4F1B
:100600002331310520F460E080E0E2CF08959923A2
:100610002CF468E2681B80E0DBCF089568E2680F85
:1006200081E0D6CF08958E988AE68A95F1F700C0CA
:100630008E9A089580B3886F80BB8C9A81B387753A
:1006400081BBF1CF08958295282F2373220F220FAB
:10065000982F9C7C96959695922B292F2575220F85
:100660009A7A892F8695822B0895CF93DF938D9A5E
:100670008AE68A95F1F700C080910601E4DFC82F71
:10068000D0E08D988AE68A95F1F700C08091060146
:10069000DADFD82B80ED9EEE8C1B9D0BDF91CF9186
:1006A0000895DC0140E050E060EA71E44D935D9311
:1006B0006D937C93139740E050E060E271E41496F0
:1006C0004D935D936D937C93179743E353E363E3FB
:1006D0007FE318964D935D936D937C931B971D96C6
:1006E0001C921E921C971E961D921D921D921C928A
:1006F0005197FC01729680E0119211921192119221
:100700008F5F8A30C9F7DA961C92DA97DB961C92D3
:10071000DB97DC961D921D921D921C92DF97089527
:100720002F923F924F925F926F927F928F929F9201
:10073000AF92BF92CF92DF92EF92FF920F931F93EF
:10074000CF93DF9300D0CDB7DEB78C017B018DDF77
:100750009701281B390BC90168E570E00E94C00EA3
:100760001B01882777FD8095982F5CD64B015C0193
:10077000F80144AC55AC66AC77ACA301920102D74A
:10078000F801268537854089518949D56B017C015F
:10079000F80166877787808B918B20E030E0A90194
:1007A000C301B201A0D5882309F445C0F801F2AD18
:1007B000F983980184E0F89F200D311D11243B83BB
:1007C0002A83F80183ADB101681B710987FD739518
:1007D000882777FD8095982F25D6A301920187D58C
:1007E000EA81FB81628B738B848B958B89818F5F10
:1007F0008A3018F4F80182AF02C0F80112AE280165
:10080000F2E14F0E511C0F2EFAE07F2EF02D60E02A
:1008100070E0CB01F20121913191419151912F0171
:10082000FED47A94B9F720E030E040E251E45FD59D
:100830002B013C0103C0412C512C3201F8012081D5
:10084000318142815381C501B4019CD64B015C01C9
:10085000F8012481358146815781C701B60192D6BE
:100860009B01AC01C501B401DAD46B017C01F80134
:100870002085318542855385C301B20183D69B0112
:10088000AC01C701B601CBD49AD5F801758764874E
:1008900023AE0F900F900F90DF91CF911F910F918A
:1008A000FF90EF90DF90CF90BF90AF909F908F9090
:1008B0007F906F905F904F903F902F9008952CE223
:1008C0008202C00111240895259AA0E8B0E08C911D
:1008D00082608C93E1E8F0E08081886180838C9174
:1008E00080688C9380818260808380E49CE990930F
:1008F00087008093860088E097E09093890080933A
:10090000880008958C392FEF920714F48CE99FEF3B
:100910008536910514F084E690E066277727681BFA
:10092000790B882777FD8095982F7CD52BE933E5C7
:1009300049EC56E327D626EA3BE944EC5AE36FD468
:1009400020E034E244E75BE41DD620E030E040E004
:100950005EE318D639D570938900609388000895B6
:10096000CF93DF93CDB7DEB7C757D1090FB6F89451
:10097000DEBF0FBECDBF25E32A95F1F700007894C6
:1009800015DE8CE392E00E94701001DD8CE492E0B1
:100990000E94701099DF8AE592E00E94701076D173
:1009A0008AE692E00E94701065DD88E792E00E947E
:1009B000701040DE86E892E00E947010829A8A9A57
:1009C00086E992E00E947010CE0101966ADE89EA03
:1009D00092E00E9470103BD3CE018F5B9F4F60D39B
:1009E000CE01825B9F4F5CD38DEB92E00E94701032
:1009F0006E961FAE6E9722E0A9962FAFA99780E062
:100A000096E0A8969FAF8EAFA897AA962FAFAA9709
:100A100087ED92E00E947010812C612C712C912C3A
:100A2000312C0F2EF5EEEF2EF2E0FF2EF02D0F2ED3
:100A3000F1E9CF2ED12CF02D0F2EF1E2AF2EBB24F9
:100A4000B394F02D212C96DC182F863059F0873086
:100A500079F0813091F4FF92EF920E945F100F9035
:100A60000F900BC060E6CE01855A9F4F2EDC05C06B
:100A700060E7CE01855A9F4F28DC812FF3DC6E960C
:100A80008FAD6E978823B1F06F968FAD6F978823E7
:100A900019F0813029F00EC06E961FAE6E970AC015
:100AA000A0963FACA0976E961FAE6E97332009F4C8
:100AB000ADC0BFC0332009F4A6C0CE018F589F4FF0
:100AC00029D1E4E9F0E06081718180E090E0A8D470
:100AD00020E034E244E758E40AD421966CAF7DAFBD
:100AE0008EAF9FAF2197E4E9F0E011821082A196CA
:100AF0008FADA197992787FD909504DFF1E03F1214
:100B000035C0992029F0F6018081836080838BDDD8
:100B1000A2968FADA297D3DE4C01B301882777FD53
:100B20008095982F7FD42B013C01B401882777FD55
:100B30008095982F77D421962CAD3DAD4EAD5FAD0D
:100B4000219720D59B01AC016AD39B01AC01C30165
:100B5000B20165D334D43B01CE010196E1DDA0960C
:100B60008FADA0978170882E922C2CC0F2E03F129E
:100B700029C0992049F0F601808183608083F501C6
:100B80008081826080834FDD44E0622DCE018F5BE7
:100B90009F4FBFD246E061E0CE01825B9F4FB9D24A
:100BA00023966EAD7FAD2397CE010196B9DD8824E3
:100BB000839460968EAD9FAD6097883998400CF015
:100BC000822C922C8D859E850DDD882059F08A9B84
:100BD0000BC08A98AB961FAEAB97CE018A599F4F38
:100BE00069DB02C08A9B8A9AE6968FADE6978823D6
:100BF00009F429CF21E0AB962FAFAB97CE018A59EC
:100C00009F4F58DB20CF992009F41DCFF60180813A
:100C1000887F8083E4E9F0E01182108280E090E038
:100C2000E1DC8A9AF5018081887F8083922C322CC6
:100C30000ACFCE018F589F4F6DD0E4E9F0E060817C
:100C4000718180E090E0ECD320E034E244E758E4A6
:100C50004ED321966CAF7DAF8EAF9FAF2197E4E965
:100C6000F0E011821082A1968FADA197992787FDA0
:100C7000909548DEF1E03F1609F445CF992493940E
:100C800075CF8FEE92E00C94701008958198ECE788
:100C9000F0E0808181608083808180648083EAE7E6
:100CA000F0E080818968808308951F920F920FB6CB
:100CB0000F9211240BB60F922F933F934F935F9394
:100CC0006F937F938F939F93AF93BF93EF93FF9314
:100CD000809178009091790090930D0380930C039C
:100CE00081E0809306028DEF92E00E947010FF91E8
:100CF000EF91BF91AF919F918F917F916F915F9194
:100D00004F913F912F910F900BBE0F900FBE0F9000
:100D10001F901895CF93DF93EC01809106028823F2
:100D200009F443C080910C0390910D039F938F931E
:100D30008FEF92E09F938F930E945F1068816F5FA7
:100D4000688320910C0330910D0389819A81820F71
:100D5000931F9A8389831C820F900F900F900F909E
:100D60006333E0F070E0F8D76233710568F48B818B
:100D7000813039F09D819F5F9D83811102C081E0A8
:100D80008C8381E08B8301C01B82688170E0898144
:100D90009A81E2D76E8318821A821982EAE7F0E01C
:100DA00080818064808310920602DF91CF91089544
:100DB0001F920F920FB60F9211240BB60F922F9322
:100DC0003F934F935F936F937F938F939F93AF93D3
:100DD000BF93EF93FF9383E093E09F938F930E94E1
:100DE0005F10E9E6F0E0808180618083808180642B
:100DF0008083E1EAF0E08081887F80830F900F900C
:100E0000FF91EF91BF91AF919F918F917F916F91E2
:100E10005F914F913F912F910F900BBE0F900FBE9E
:100E20000F901F9018952091690030E0062E02C0A7
:100E3000359527950A94E2F720FF1EC08091A10006
:100E4000877009F056C0E9E6F0E0408121E030E02B
:100E5000C901062E02C0880F991F0A94E2F78095F7
:100E6000842380831092A5001092A400E1EAF0E0B0
:100E700080818260808333C02091690030E0062E3B
:100E800002C0359527950A94E2F720FD28C0E9E6CF
:100E9000F0E0908141E050E09A01062E02C0220F5E
:100EA000331F0A94E2F7292B2083E1EAF0E09081D6
:100EB000987F9083811109C08091A4009091A50032
:100EC00090931203809311030AC0813041F4809102
:100ED000A4009091A5009093100380930F0381E0EC
:100EE00090E09C0102C0220F331F6A95E2F7209325
:100EF0000E0308951F920F920FB60F9211240BB696
:100F00000F922F933F934F935F936F937F938F93A2
:100F10009F93AF93BF93EF93FF9364E080E083DFF1
:100F2000FF91EF91BF91AF919F918F917F916F91C1
:100F30005F914F913F912F910F900BBE0F900FBE7D
:100F40000F901F9018951F920F920FB60F921124B9
:100F50000BB60F922F933F934F935F936F937F93B3
:100F60008F939F93AF93BF93EF93FF9366E081E0DE
:100F70005ADFFF91EF91BF91AF919F918F917F9138
:100F80006F915F914F913F912F910F900BBE0F90FA
:100F90000FBE0F901F9018951F920F920FB60F92D1
:100FA00011240BB60F928F939F93EF93FF93809131
:100FB0000702909108020197E1F410920802109242
:100FC0000702E9E6F0E080818061808380818064AF
:100FD0008083E1EAF0E08081887F8083469A85E320
:100FE0008A95F1F70000469810922501109224018D
:100FF00023C08091070290910802892BE9F481E0D7
:1010000090E09093080280930702E9E6F0E0808187
:1010100080618083808180648083E1EAF0E0808168
:10102000887F8083479A85E38A95F1F70000479887
:101030001092250110922401FF91EF919F918F91C1
:101040000F900BBE0F900FBE0F901F9018953F9AF8
:101050003A983E9A3B98E9E6F0E08081806380838D
:10106000EA9A8081806C8083EB9AE2E7F0E08081ED
:1010700081608083E1EAF0E08081887F8083E0E224
:10108000F1E08081806C808380E29EE4909329016E
:1010900080932801E3E7F0E08081826080830895F7
:1010A000FC0112821182108210861782128611862C
:1010B0001486138613821482158216820895880F6F
:1010C000991F880F991F880F991F929582958F708D
:1010D00089279F708927A0E0B0E085309105A105A0
:1010E000B10538F0BC01CD01685E71098109910933
:1010F00003C060E070E0CB0193D125E332EC42E71E
:1011000050E440D220E030E849E855E487D057C1A8
:1011100008950F931F93CF93DF931F921F92CDB724
:10112000DEB78C0180910E0390E0042E02C09595ED
:1011300087950A94E2F780FF6AC020910E0381E050
:1011400090E0DC0102C0AA0FBB1F4A95E2F7AD0197
:101150004095422340930E03611107C08091110313
:10116000909112039A83898308C0613031F4809191
:101170000F03909110039A83898389819A819FDF5D
:10118000DC01CB01805D9E4EAF4FBF4F8136924256
:10119000A105B105E0F5D80112964C911297642F84
:1011A00070E029813A8113968D919D910D90BC91AB
:1011B000A02D820F931FA11DB11DFB01EE0FFF1F7C
:1011C000E00FF11F27813085BC01CD01621B730B3D
:1011D00081099109D80113966D937D938D939C930A
:1011E000169729813A81308727834F5F433018F45F
:1011F00012964C9302C0F801128223E030E040E0E6
:1012000050E0D1D5C9015BDFD8016D937C930F907D
:101210000F90DF91CF911F910F9108955058BB27E8
:10122000AA270ED075C166D130F06BD120F031F411
:101230009F3F11F41EF45BC10EF4E095E7FB51C132
:10124000E92F77D180F3BA176207730784079507F0
:1012500018F071F49EF58FC10EF4E0950B2EBA2FA5
:10126000A02D0B01B90190010C01CA01A0011124AC
:10127000FF27591B99F0593F50F4503E68F11A1658
:10128000F040A22F232F342F4427585FF3CF4695E9
:1012900037952795A795F0405395C9F77EF41F160B
:1012A000BA0B620B730B840BBAF09150A1F0FF0FD5
:1012B000BB1F661F771F881FC2F70EC0BA0F621FC1
:1012C000731F841F48F4879577956795B795F795B1
:1012D0009E3F08F0B3CF9395880F08F09927EE0F43
:1012E000979587950895D9D008F481E008950CD09A
:1012F0000FC107D140F0FED030F021F45F3F19F06C
:10130000F0C0511139C1F3C014D198F39923C9F336
:101310005523B1F3951B550BBB27AA2762177307FB
:10132000840738F09F5F5F4F220F331F441FAA1FAF
:10133000A9F333D00E2E3AF0E0E830D0915050406F
:10134000E695001CCAF729D0FE2F27D0660F771F1D
:10135000881FBB1F261737074807AB07B0E809F0FF
:10136000BB0B802DBF01FF2793585F4F2AF09E3F94
:10137000510568F0B6C000C15F3FECF3983EDCF366
:10138000869577956795B795F7959F5FC9F7880F0D
:10139000911D9695879597F90895E1E0660F771F5F
:1013A000881FBB1F621773078407BA0720F0621BF0
:1013B000730B840BBA0BEE1F88F7E095089504D0E9
:1013C0006894B111D9C00895BCD088F09F5790F0AF
:1013D000B92F9927B751A0F0D1F0660F771F881F5A
:1013E000991F1AF0BA95C9F712C0B13081F0C3D075
:1013F000B1E00895C0C0672F782F8827B85F39F013
:10140000B93FCCF3869577956795B395D9F73EF4B8
:1014100090958095709561957F4F8F4F9F4F089560
:10142000E89409C097FB3EF490958095709561957E
:101430007F4F8F4F9F4F9923A9F0F92F96E9BB2734
:101440009395F695879577956795B795F111F8CFB0
:10145000FAF4BB0F11F460FF1BC06F5F7F4F8F4F1B
:101460009F4F16C0882311F096E911C0772321F011
:101470009EE8872F762F05C0662371F096E8862FA9
:1014800070E060E02AF09A95660F771F881FDAF700
:10149000880F9695879597F90895990F0008550F2D
:1014A000AA0BE0E8FEEF16161706E807F907C0F0EA
:1014B00012161306E407F50798F0621B730B840BF2
:1014C000950B39F40A2661F0232B242B252B21F4CC
:1014D00008950A2609F4A140A6958FEF811D811D6C
:1014E000089597F99F6780E870E060E008959FEFA6
:1014F00080EC089500240A941616170618060906AB
:10150000089500240A941216130614060506089579
:10151000092E0394000C11F4882352F0BB0F40F401
:10152000BF2B11F460FF04C06F5F7F4F8F4F9F4F41
:10153000089557FD9058440F551F59F05F3F71F0C3
:101540004795880F97FB991F61F09F3F79F087952A
:101550000895121613061406551FF2CF4695F1DFB3
:1015600008C0161617061806991FF1CF8695710543
:10157000610508940895E894BB2766277727CB0177
:1015800097F908950BD0C4CFB5DF28F0BADF18F073
:10159000952309F0A6CFABCF1124EECFCADFA0F37D
:1015A000959FD1F3950F50E0551F629FF001729FF8
:1015B000BB27F00DB11D639FAA27F00DB11DAA1F17
:1015C000649F6627B00DA11D661F829F2227B00D64
:1015D000A11D621F739FB00DA11D621F839FA00DEF
:1015E000611D221F749F3327A00D611D231F849F3F
:1015F000600D211D822F762F6A2F11249F57504096
:101600008AF0E1F088234AF0EE0FFF1FBB1F661F30
:10161000771F881F91505040A9F79E3F510570F0E9
:1016200060CFAACF5F3FECF3983EDCF386957795C9
:101630006795B795F795E7959F5FC1F7FE2B880FE4
:10164000911D9695879597F908952F923F924F9205
:101650005F926F927F928F929F92AF92BF92CF9242
:10166000DF92EF92FF920F931F93CF93DF93CDB74B
:10167000DEB763970FB6F894DEBF0FBECDBF7C0117
:101680001B016A01FC0117821682838181FF49C315
:10169000BE016F5F7F4F4B01F7019381F10193FD15
:1016A000859193FF81911F01882309F436C3853208
:1016B00039F493FD859193FF81911F01853231F4B7
:1016C000B70190E0CAD456016501E6CF10E0512C75
:1016D00020E02032A0F48B3269F030F4803259F0EF
:1016E000833269F420612CC08D3239F0803339F4B3
:1016F000216026C02260246023C0286021C027FD0D
:1017000027C030ED380F3A3078F426FF06C0FAE0F3
:101710001F9F300D1124132F13C06AE0569E300D09
:101720001124532E20620CC08E3221F426FDF5C206
:10173000206406C08C3611F4206802C0883641F45B
:10174000F10193FD859193FF81911F018111C1CF1B
:101750009BEB980F933018F42061805E06C09BE9E4
:10176000980F933008F09AC12F7E26FF16E02F7352
:10177000722E853621F4F22FF0647F2E08C0863653
:1017800021F4622F6068762E02C01111115077FE8D
:1017900007C01C3348F444244394410E27E00BC097
:1017A000183030F4212F06C027E04CE3442E03C04C
:1017B00027E017E0412C560174E0A70EB11CF6019A
:1017C0006081718182819381042DA4010ED36C010B
:1017D000098100FF02C003FF06C071FC07C072FC54
:1017E00008C0612C08C03DE2632E05C02BE2622ECA
:1017F00002C090E2692E802F8C7081F1662011F07A
:1018000084E001C083E0851510F0512C0AC0581AFD
:1018100073FC07C0B70180E290E01FD45A94D1F75F
:10182000F4CF662021F0B701862D90E016D403FD99
:1018300003C008EE10E002C004EE10E0F72DF071D6
:101840007F2EF8018491882309F45EC271108052C2
:10185000B70190E002D40F5F1F4FF3CF77FE0FC0A8
:101860004C0C04FF04C08A81813309F44A94141497
:1018700074F5F8E0F41578F588E0482E2CC076FC75
:101880002AC0812F90E08C159D059CF06CEFC61648
:101890006FEFD60674F0772D7068772E0AC0E2E0FD
:1018A000F0E0EC0FFD1FE10FF11D8081803319F492
:1018B00011501111F4CF77FE0EC044244394410E11
:1018C000812F90E0C816D9062CF41C1904C04424BA
:1018D000439401C010E077FE07C01C141D043CF4C3
:1018E00096012F5F3F4F05C025E030E002C021E0A8
:1018F00030E0662011F02F5F3F4F112331F0412F70
:1019000050E04F5F5F4F240F351F452D50E02417E7
:10191000350714F4521A01C0512C872D897041F4F7
:10192000552031F0B70180E290E097D35A94F8CF78
:10193000662021F0B701862D90E08FD373FC08C09C
:10194000552031F0B70180E390E087D35A94F8CF67
:1019500077FE5DC09C2D8D2DD7FE02C090E080E00B
:10196000692E782E40E050E0C601841991099D87C8
:101970008C87960126193709280D391D812F90E093
:10198000EE27FF27E81BF90BFF87EE87FFEF6F16A7
:101990007F0661F4B7018EE290E02B8B3A8B488B87
:1019A000598B5BD3598948893A892B89C614D70446
:1019B00054F06C857D85661577052CF4F901E40FEC
:1019C000F51F818101C080E371E0671A71084F5FE4
:1019D0005F4FEE85FF856E167F0664F0B70190E0DD
:1019E0002B8B3A8B488B598B38D32B893A89488972
:1019F0005989CCCF6C147D0439F49A81963318F44C
:101A0000953311F404FF81E3B70190E045C08A816A
:101A1000813309F00F7EB70190E01FD3111105C08B
:101A200074FE16C085E490E015C0B7018EE290E028
:101A300014D382E066246394680EF401E80FF11D6C
:101A40008081B70190E009D3115051F3862DF2CF78
:101A500085E690E0B70101D3D7FC05C0C114D104DD
:101A600039F404FF05C0D194C194D1088DE201C0BE
:101A70008BE2B70190E0F1D280E36AE0C616D104B0
:101A80002CF08F5FFAE0CF1AD108F7CFB70190E0C2
:101A9000E4D2B701C601C096E0D236C1833631F038
:101AA000833779F0833509F054C020C0560172E0C5
:101AB000A70EB11CF6018081898301E010E064016A
:101AC00013C05601F2E0AF0EB11CF601C080D18008
:101AD00026FF03C0612F70E002C06FEF7FEFC601E9
:101AE0002B8B66D28C012B892F7714C05601F2E024
:101AF000AF0EB11CF601C080D18026FF03C0612F5C
:101B000070E002C06FEF7FEFC6012B8B46D28C01D5
:101B10002B892068722E23FD18C0852D90E00817B0
:101B2000190798F4B70180E290E097D25A94F5CF64
:101B3000F60177FC859177FE81916F01B70190E006
:101B40008CD251105A94015011090115110581F7D9
:101B5000DBC0843611F0893649F5560127FF09C0EC
:101B6000F4E0AF0EB11CF601608171818281938136
:101B70000AC0F2E0AF0EB11CF601608171818827C6
:101B800077FD8095982F022F0F7697FF08C09095CC
:101B90008095709561957F4F8F4F9F4F00682AE029
:101BA00030E0A401CAD2C82EC8183DC0022F853724
:101BB00021F40F7E2AE030E01DC0097F8F3691F0BE
:101BC00018F4883559F0A9C0803719F0883711F01A
:101BD000A4C0006104FF09C0046007C024FF08C05E
:101BE000066006C028E030E005C020E130E002C019
:101BF00020E132E0560107FF09C0F4E0AF0EB11C4E
:101C0000F601608171818281938108C0F2E0AF0E9C
:101C1000B11CF6016081718180E090E0A4018DD259
:101C2000C82EC8180F7706FF0BC0202F2E7FC116B5
:101C300050F404FF0AC002FD08C0202F2E7E05C00C
:101C4000DC2C202F03C0DC2C01C0D12E24FF0DC0C2
:101C5000FE01EC0DF11D8081803311F4297E09C055
:101C600022FF06C0D394D39404C0822F867809F053
:101C7000D39423FD12C020FF06C01C2DD51418F4E8
:101C8000150D1D19D52CD51460F4B70180E290E034
:101C90002B8BE3D1D3942B89F6CFD51410F45D1898
:101CA00001C0512C24FF11C0B70180E390E02B8BC1
:101CB000D4D12B8922FF16C021FF03C088E590E014
:101CC00002C088E790E0B7010CC0822F867851F0FF
:101CD00021FD02C080E201C08BE227FD8DE2B70149
:101CE00090E0BBD1C11630F4B70180E390E0B5D1EC
:101CF0001150F8CFCA94F401EC0DF11D8081B701A9
:101D000090E0ABD1C110F6CF552009F4DDCCB7017E
:101D100080E290E0A2D15A94F7CFF70186819781B3
:101D200002C08FEF9FEF63960FB6F894DEBF0FBE31
:101D3000CDBFDF91CF911F910F91FF90EF90DF907A
:101D4000CF90BF90AF909F908F907F906F905F905B
:101D50004F903F902F900895AA1BBB1B51E107C0E5
:101D6000AA1FBB1FA617B70710F0A61BB70B881F2B
:101D7000991F5A95A9F780959095BC01CD010895BA
:101D800097FB072E16F4009406D077FD08D0E4DF09
:101D900007FC05D03EF4909581959F4F089570956E
:101DA00061957F4F0895A1E21A2EAA1BBB1BFD016E
:101DB0000DC0AA1FBB1FEE1FFF1FA217B307E4072A
:101DC000F50720F0A21BB30BE40BF50B661F771F82
:101DD000881F991F1A9469F7609570958095909562
:101DE0009B01AC01BD01CF010895283008F027E028
:101DF0003327DA01990F311D87FD91600096610547
:101E0000710539F432602E5F3D9330E32A95E1F796
:101E100008959F3F30F080387105610509F03C5FFF
:101E20003C5F3D93913008F08068911DDF93CF9324
:101E30001F930F93FF92EF92192F987F9695E92F9A
:101E400096959695E90FFF27EA5BFE4F9927332772
:101E5000EE24FF24A701E70105900894079428F4D5
:101E6000360FE71EF81E491F511D660F771F881F8A
:101E7000991F0694A1F70590079428F4E70EF81E21
:101E8000491F561FC11D770F881F991F661F069493
:101E9000A1F70590079428F4F80E491F561FC71F95
:101EA000D11D880F991F661F771F0694A1F7059013
:101EB000079420F4490F561FC71FD81F990F661F9C
:101EC000771F881F0694A9F784911095177041F029
:101ED000D695C79557954795F794E7941A95C1F706
:101EE000ECEEF0E06894159015913591659195911F
:101EF00005907FE27395E118F10A430B560BC90B6D
:101F0000D009C0F7E10CF11E431F561FC91FD01D99
:101F10007EF4703311F48A95E6CFE894015030F0E6
:101F2000080F0AF40027021708F4202F2395022F28
:101F30007A3328F079E37D932A95E9F710C07D93F1
:101F40002A9589F60694979567953795179517946E
:101F5000E118F10A430B560BC90BD00998F02395F1
:101F60007E9173957A3308F070E37C932013B8F771
:101F70007E9170617D9330F0839571E37D9370E382
:101F80002A95E1F71124EF90FF900F911F91CF91C7
:101F9000DF91992787FD90950895FC010590615088
:101FA00070400110D8F7809590958E0F9F1F08956F
:101FB000FC016150704001900110D8F78095909518
:101FC0008E0F9F1F08950F931F93CF93DF93EC0104
:101FD0008B01009731F46115710519F480E090E0F0
:101FE00037C06EE070E081E090E005D1FC01009721
:101FF000A9F380E883830115110571F01387028727
:1020000081E883838091130390911403892B21F439
:10201000F0931403E09313032097C9F0D187C0878E
:102020008381826083838091150390911603892BAD
:1020300071F4F0931603E0931503809117039091C8
:102040001803892B21F4F0931803E0931703CF01B1
:10205000DF91CF911F910F9108950F931F93CF930D
:10206000DF93182F092FEB018B8181FD03C08FEFC8
:102070009FEF20C082FF10C04E815F812C813D8187
:10208000421753077CF4E881F9819F012F5F3F4F8E
:1020900039832883108306C0E885F985812F199537
:1020A000892B29F72E813F812F5F3F4F3F832E835E
:1020B000812F902FDF91CF911F910F910895CF9392
:1020C000DF93CDB7DEB7FE01369661917191AF0116
:1020D0008091150390911603B8DADF91CF9108959E
:1020E0000F931F93CF93DF93E0911503F0911603A5
:1020F000238121FF1BC0EC0100E010E08991609179
:10210000150370911603DB011896ED91FC91199758
:10211000882331F01995892B89F30FEF1FEFEECF4C
:102120008AE01995892B11F4C80102C08FEF9FEF47
:10213000DF91CF911F910F910895FA01AA272830BE
:1021400051F1203181F1E8946F936E7F6E5F7F4F84
:102150008F4F9F4FAF4FB1E03ED0B4E03CD0670F00
:10216000781F891F9A1FA11D680F791F8A1F911D53
:10217000A11D6A0F711D811D911DA11D20D009F4A3
:1021800068943F912AE0269F11243019305D3193E5
:10219000DEF6CF010895462F4770405D4193B3E0CE
:1021A0000FD0C9F7F6CF462F4F70405D4A3318F075
:1021B000495D31FD4052419302D0A9F7EACFB4E026
:1021C000A6959795879577956795BA95C9F70097DE
:1021D0006105710508959B01AC010A2E069457957F
:1021E000479537952795BA95C9F7620F731F841FD6
:1021F000951FA01D08950F931F93CF93DF93869F84
:102200008001879F100D969F100D1124C8010DD0DD
:10221000EC01009721F0A80160E070E02DD1CE0123
:10222000DF91CF911F910F910895CF93DF9382306B
:10223000910510F482E090E0E0911B03F0911C0303
:1022400020E030E0A0E0B0E0309739F140815181EA
:1022500048175907B8F04817590771F482819381DC
:10226000109729F013969C938E9312972CC09093FD
:102270001C0380931B0327C02115310531F0421741
:10228000530718F0A901DB0101C0EF019A01BD015C
:10229000DF010280F381E02DD7CF21153105F9F060
:1022A000281B390B2430310580F48A819B8161150C
:1022B000710521F0FB019383828304C090931C037A
:1022C00080931B03FE01329644C0FE01E20FF31F10
:1022D0008193919322503109398328833AC0209108
:1022E000190330911A03232B41F4209102023091FB
:1022F000030230931A0320931903209100023091B6
:1023000001022115310541F42DB73EB74091040279
:1023100050910502241B350BE0911903F0911A032B
:10232000E217F307A0F42E1B3F0B2817390778F0AC
:10233000AC014E5F5F4F2417350748F04E0F5F1F0B
:1023400050931A03409319038193919302C0E0E0E4
:10235000F0E0CF01DF91CF910895CF93DF93009705
:1023600009F487C0FC01329713821282C0911B03CB
:10237000D0911C03209781F420813181280F391FCF
:102380008091190390911A038217930779F5F093BE
:102390001A03E09319036DC0DE0120E030E0AE17B0
:1023A000BF0750F412964D915C9113979D01411512
:1023B000510509F1DA01F3CFB383A2834081518142
:1023C000840F951F8A179B0771F48D919C9111972B
:1023D000840F951F02969183808312968D919C9114
:1023E0001397938382832115310529F4F0931C03FD
:1023F000E0931B033EC0D9011396FC93EE93129712
:102400004D915D91A40FB51FEA17FB0779F4808108
:102410009181840F951F0296D90111969C938E93FA
:102420008281938113969C938E931297E0E0F0E063
:102430008A819B81009719F0FE01EC01F9CFCE0152
:10244000029628813981820F931F209119033091C0
:102450001A032817390769F4309729F410921C03DE
:1024600010921B0302C013821282D0931A03C093EE
:102470001903DF91CF910895DC0101C06D934150A4
:0A2480005040E0F70895F894FFCFF4
:10248A0000001D0320000101004D43503235313553
:10249A00206973204E4F5420696E20636F6E6669FF
:1024AA006775726174696F6E206D6F64652061660D
:1024BA00746572207265736574210A0055736172BE
:1024CA007420696E697420646F6E650043616E20C2
:1024DA00696E697420646F6E6500536572766F2049
:1024EA00696E697420646F6E650041444320696EA9
:1024FA00697420646F6E650049324320696E69749D
:10250A0020646F6E65004D6F746F7220696E697416
:10251A0020646F6E6500536F6C656E6F6964206925
:10252A006E697420646F6E6500526567756C6174BC
:10253A006F7220696E697420646F6E6500446973F6
:10254A0074616E63652073656E736F7220696E695C
:10255A007420646F6E6500416C6C20696E6974202A
:10256A00646F6E650043414E204552524F520042FD
:10257A00616420696E746572727570740056002504
:0C258A00750A004F564552464C4F570052
:00000001FF
