S010000050696E67506F6E672E73726563F2
S11300000C94D3010C94F0010C94F0010C94F001C5
S11300100C94F0010C94F0010C94F0010C94F00198
S11300200C94F0010C94F0010C94F0010C94F00188
S11300300C94F0010C94F0010C94F0010C94F00178
S11300400C94F0010C94F0010C94F0010C94F00168
S11300500C94F0010C94F0010C94F0010C94F00158
S11300600C94F0010C94F0010C94F0010C94F00148
S1130070D307E10703080C0815081E08220800002E
S113008000000000000000065F5F0600000000079B
S1130090070007070000147F7F147F7F1400242EBD
S11300A06B6B3A120000466630180C666200307AB8
S11300B04F5D377A48000407030000000000001C6D
S11300C03E63410000000041633E1C000000082A1A
S11300D03E1C1C3E2A0808083E3E0808000000A0FA
S11300E0E06000000000080808080808000000009C
S11300F06060000000006030180C060301003E7FC1
S1130100594D7F3E000042427F7F404000006273B1
S113011059496F660000226349497F360000181C64
S113012016137F7F1000276745457D3900003C7E0C
S11301304B4979300000036371190F070000367FC3
S113014049497F360000064F49693F1E0000000000
S11301506C6C0000000000A0EC6C00000000081CA7
S113016036634100000014141414141400000041F8
S113017063361C080000020351590F0600003E7F3D
S1130180415D5D1F1E007C7E13137E7C0000417F59
S11301907F49497F36001C3E634141632200417F11
S11301A07F41637F1C00417F7F495D416300417F44
S11301B07F491D0103001C3E6341517372007F7F20
S11301C008087F7F000000417F7F410000003070FD
S11301D040417F3F0100417F7F081C776300417FDE
S11301E07F41406070007F7F060C067F7F007F7F29
S11301F0060C187F7F001C3E6341633E1C00417F58
S11302007F49090F06001E3F21717F5E0000417F78
S11302107F19396F460026674D597B320000034130
S11302207F7F410300007F7F40407F7F00001F3FAE
S113023060603F1F00007F7F3018307F7F0063774E
S11302401C081C776300074F78784F07000067731A
S1130250594D47637100007F7F4141000000010355
S1130260060C183060000041417F7F000000080C3C
S11302700603060C08008080808080808080000057
S1130280030704000000207454543C784000413FAC
S11302907F44447C3800387C44446C280000307827
S11302A048493F7F4000387C54545C180000487E25
S11302B07F490302000098BCA4A4F87C0400417F99
S11302C07F08047C780000447D7D4000000040C429
S11302D084FD7D000000417F7F10386C44000041A4
S11302E07F7F400000007C7C0C180C7C78007C7CB8
S11302F004047C780000387C44447C38000084FC8E
S1130300F8A4243C1800183C24A4F8FC8400447C81
S113031078441C180000485C545474240000000401
S11303203E7F442400003C7C40403C7C40001C3C1C
S113033060603C1C00003C7C6030607C3C00446C91
S11303403810386C44009CBCA0A0FC7C00004C64B9
S1130350745C4C64000008083E77414100000000D2
S11303600077770000004141773E0808000002034F
S1130370010302030100080C7E7F7E0C08000818AC
S11303803F7F3F180800081C3E7F1C1C1C00001CFB
S11303901C7F3E1C0800000070187DB6BC3CBCB637
S11303A07D187000000011241FBECFEFD4E0DEBF23
S11303B0CDBF12E0A0E0B1E0EEE9F2E202C00590A8
S11303C00D92A43BB107D9F723E0A4EBB2E001C03E
S11303D01D92A93FB207E1F70E9466070C944D11E4
S11303E00C940000FF920F931F93CF93DF93EC01C3
S11303F0F62E88819981BC017695679576956795E7
S11304007695679581E08F0D0E945203688162950D
S1130410660F607E82E08F0D0E9452036A8185E040
S11304208F0D0E9452038A81882379F010E006E040
S11304300F0DFE01E10FF11D6381802F810F0E94DA
S113044052031F5F8A811817A0F380E3F81204C0D7
S113045081E80E946D030DC080E4F81204C082E8B4
S11304600E946D0306C080E5F81203C084E80E9470
S11304706D03DF91CF911F910F91FF900895CF935A
S1130480DF93EC010E94640360E3CE010E94F20159
S113049081E0DF91CF910895EF92FF920F931F9324
S11304A0CF93DF93EC01E62E8BE0FE0111928A9547
S11304B0E9F70E9464032E2D22952F70265041E007
S11304C050E0BA0102C0660F771F2A95E2F79B013C
S11304D0282B232B89F181E08E0D0E94430378E0C1
S11304E0879F800111241983088382E08E0D0E9466
S11304F04303829586958770082B1983088385E0CA
S11305008E0D0E9443038F708A838823B9F08E0175
S11305100D5F1F4FF12C86E0E80E8E2D8F0D0E948B
S11305204303F80181938F01F3948A81F81640F410
S1130530F8E0FF12F2CF06C080E005C081E003C0FE
S113054081E001C081E0DF91CF911F910F91FF9075
S1130550EF900895839906C08EE00E9443038E7045
S11305608695089580E0089560E08CE20E9452032D
S113057008958B980E9490030E948A038EE00E9443
S11305804303807E803821F08AE091E00E94B10C20
S113059040E260E680E60E94720344E064E080E6A4
S11305A00E94720340E260E680E70E94720363E205
S11305B08BE20E94520360EC80E20E94520340E20C
S11305C060EE81E20E94720360EC84E20E945203B6
S11305D040E660EE85E20E94720360E480E00E94DF
S11305E0520340E060EE81E00E94720360E484E024
S11305F00E94520340E260EE85E00E94720360ECC8
S113060088E00E94520340E060EE89E00E94720399
S113061060EC80E10E94520340E260EE81E10E94BE
S1130620720360EC84E10E94520340E460EE85E1D1
S11306300E94720360EC88E10E94520340E660EE7F
S113064089E10E9472030E94B40240E060EE8FE0F0
S11306500E9472030895863031F0873031F0813082
S113066031F080E0089581E0089582E0089580E209
S11306700895882339F00E942B0340E0682F8CE210
S11306800E9472030895CF93C82FC49883E00E94F8
S113069098038C2F0E94980380E00E949803C49AC8
S11306A0CF910895CF93DF93D82FC62FC49882E0BB
S11306B00E9498038D2F0E9498038C2F0E94980308
S11306C0C49ADF91CF910895C49880EA0E94980358
S11306D080E00E949803C49A0895C4980E949803E5
S11306E0C49A08951F93CF93DF93182FD62FC42F46
S11306F0C49885E00E949803812F0E9498038D2F4F
S11307000E9498038C2F0E949803C49ADF91CF9182
S11307101F910895C49880EC0E949803C49A089588
S1130720BD9ABE98BF9ABC9A8DB181658DB9089562
S11307308FB9779BFECF8FB108955D9BFECF8CB9A7
S113074008955F9BFECF8CB108958FEF80BD8FE03D
S113075089B988E18AB98EE880BD61EA73E08DE9E0
S113076093E00E94520C0895B9980895843008F0DB
S113077083E0846080930014B199FECF80910014CB
S11307800895BA98BB9808950F931F93CF93DF935E
S11307908C01EB0181E00E94B603F801848380E0C0
S11307A00E94B6038C83DF91CF911F910F9108951E
S11307B0CF93DF93EC010E94520640E060E08DE3AA
S11307C091E00E94CE0540E062E08EE491E00E9458
S11307D0CE0540E063E08FE591E00E94CE058C8178
S11307E0882349F0BE016F5E7F4FCE010C960E94B4
S11307F0C40381E001C080E0DF91CF910895833389
S11308003CF491E08E3C0CF090E0892F81950895A2
S113081081E00895FF920F931F93CF93DF93EC0130
S11308208B0181E00E94B603888380E00E94B603B6
S1130830F801808348812C81241788F0622F70E0AE
S113084050E0461B570B24E6249FC001259F900DC2
S11308501124615071090E94B70B698311C030E003
S113086050E0421B530B64E6649FC001659F900DEA
S113087011246FEF70E0621B730B0E94B70B698346
S1130880F80140812481241788F0622F70E050E041
S1130890461B570B24E6249FC001259F900D11246D
S11308A0615071090E94B70B618312C030E050E0BF
S11308B0421B530B64E6649FC001659F900D112495
S11308C06FEF70E0621B730B0E94B70BF80161833A
S11308D089810E94FF03F82EF80181810E94FF03A1
S11308E09A819F1511F0FB8201C01B82F80192814D
S11308F0981711F0838302C0F8011382FA82F80179
S11309008283DF91CF911F910F91FF900895FF9201
S11309100F931F93CF93DF938C01EB0183E00E942D
S1130920B603F82E82E00E94B603682F70E0F80147
S1130930208130E0A9014B505109641775072CF050
S1130940255F3F4F261737073CF5F8018083660F74
S1130950771F882777FD8095982F0E942B0B23E320
S113096033E343E250E40E94900A20E030E048EC94
S113097052E40E942B0A0E94F80AF8016183633250
S11309801CF48FEF828308C0623424F081E0F80104
S1130990828302C0F80112826F2D70E0888190E09A
S11309A09C012B5031096217730724F00B968617AC
S11309B097071CF5F882660F771F882777FD8095C7
S11309C0982F0E942B0B23E333E343E250E40E946D
S11309D0900A20E030E048EC52E40E942B0A0E9486
S11309E0F80A698363321CF48FEF8A8306C0623489
S11309F01CF081E08A8301C01A82DF91CF911F919C
S1130A000F91FF900895DC01FB0111961C92119740
S1130A10118296B38C919470891769F081110BC07F
S1130A2081E011968C93119712968C9112978F5F97
S1130A3012968C93129796B380819870981739F018
S1130A40811105C081E0818382818F5F828386B3B7
S1130A5084708C9386B3887080830895CF93DF93DA
S1130A60EC01BC016F5E7F4F0C960E940A04BE012C
S1130A70675F7F4FCE0106960E948704BE016D5FBB
S1130A807F4FCE010E940305DF91CF910895EF922D
S1130A90FF920F931F93CF93DF9380E791E09F938F
S1130AA08F930E949D0C0E94420C7C010E94470C73
S1130AB00F900F90C0E0D8E100E010E00E94420CDB
S1130AC088839881981711F00F5F1F4F2196C115E5
S1130AD080E2D80799F7C7010E94470CC0E0D8E12B
S1130AE0E12CF12C0E94420C9881981719F08FEF99
S1130AF0E81AF80A2196C11580E2D80799F7FF92FF
S1130B00EF921F930F9388E891E09F938F930E9435
S1130B109D0C0F900F900F900F900F900F90DF91FE
S1130B20CF911F910F91FF90EF90089585B7806842
S1130B3085BF80B7806280BF0E9447050895877093
S1130B40806BE0E0F0E18083108280E1808308958F
S1130B50A62FB0E0D896A295B295B07FBA27A07F11
S1130B60BA27A40FB11DAA0FBB1FAA0FBB1FAA0F40
S1130B70BB1F28E0829FC00111248A1B9B0B20E02D
S1130B8030E082589040FC01EA0FFB1FE491ED93A2
S1130B902F5F3F4F28303105B1F70895DF92EF9270
S1130BA0FF920F931F93CF93DF93EC01D42EE62E85
S1130BB087E0861720F40F2EF7E0EF2EF02D8881C2
S1130BC0882309F467C000E110E00D19110910161B
S1130BD011060CF05FC020E030E0F12C8D3209F0FA
S1130BE046C0FE01E20FF31F81818E3559F028F4CF
S1130BF08C33C1F08E33F1F033C0833719F186376B
S1130C0049F02EC04F2D4D0D6E2D8FE70E94A80583
S1130C10F39432C04F2D4D0D6E2D80E80E94A8052F
S1130C20F3942AC04F2D4D0D6E2D81E80E94A80526
S1130C30F39422C04F2D4D0D6E2D82E80E94A8051D
S1130C40F3941AC04F2D4D0D6E2D83E80E94A80514
S1130C50F3944F2D4D0D6E2D84E80E94A8050CC011
S1130C604F2D4D0D6E2D8DE20E94A80505C04F2D10
S1130C704D0D6E2D0E94A805F3942F2D30E0FE013A
S1130C80E20FF31F8081882329F0F901E017F107AF
S1130C900CF4A4CFDF91CF911F910F91FF90EF90AF
S1130CA0DF900895E0E0FCE11192E11580E2F8079D
S1130CB0D9F70895E0E0F0E18EEA808381EA808349
S1130CC08AED808382E1808388EC808388EA808354
S1130CD08FE3808385ED808380E8808381E880834F
S1130CE080E5808389ED808381E2808390E2908334
S1130CF010829BED908390E390839DEA9083108211
S1130D0094EA908396EA9083808310828FEF8083A5
S1130D1092E290831082808380E4808380E094E078
S1130D20E0E0F2E1108201970097E1F7E0E0F0E102
S1130D3080E28083108280EB8083108280E1808354
S1130D408FEA80830E945206089580E00E949F05E6
S1130D50E0E0FCE1A0E0B2E181918C93E11580E256
S1130D60F807D1F708956F927F928F929F92AF9276
S1130D70BF92CF92DF92EF92FF920F931F93CF9384
S1130D80DF93CDB7DEB72F970FB6F894DEBF0FBE53
S1130D90CDBF4C017B018A0139010E94520640E01B
S1130DA063E086EE91E00E94CE05F7012585822F4F
S1130DB0992787FD90959F932F930F2EF5EFCF2EB4
S1130DC0F1E0DF2EF02DDF92CF92CE0101965C018F
S1130DD0BF928F930E94DE0CF7012289822F9927FC
S1130DE087FD90959F932F93DF92CF926E01F6E04B
S1130DF0CF0ED11CDF92CF920E94DE0C40E064E063
S1130E00C5010E94CE0540E065E0C6010E94CE0502
S1130E100FB6F894DEBF0FBECDBFF80182818111F9
S1130E2003C084818E7F8483F7018481882321F029
S1130E30F801848181608483F7018285F8018583C8
S1130E40F7018585F801868384E08283F30182813A
S1130E50882359F08381823041F4F40181819281A5
S1130E60019692838183F3011282F40182818F932C
S1130E7081818F9388EF91E09F938F938E01055F1B
S1130E801F4F1F930F930E94DE0C40E066E0C801E1
S1130E900E94CE050F900F900F900F900F900F901F
S1130EA080E02F960FB6F894DEBF0FBECDBFDF9162
S1130EB0CF911F910F91FF90EF90DF90CF90BF9053
S1130EC0AF909F908F907F906F900895CF93DF9312
S1130ED0CDB7DEB7EC970FB6F894DEBF0FBECDBF2B
S1130EE00E94A5030E9496050E94B4030E945A061C
S1130EF00E94B9020E94C103B89AEAE8F0E0808136
S1130F00826080838BEF91E00E94B10CBE016E5E23
S1130F107F4FCE010D960E94C4031D821C820E9445
S1130F20A0087C01988F8F8B21E0298F1B8E1A8E4D
S1130F301E8E1F8E18A219A21AA280E095E09D8F22
S1130F408C8F19A62AA780E091E098A78FA31CAAEA
S1130F50A12CB12C0F2EF5E0CF2EF2E0DF2EF02DD8
S1130F60882483946894992491F80F2EF8E86F2EBE
S1130F70712CF02DCE0101960E942E050E94AA022A
S1130F80182F8A81882311F0F88EEF8AEF89F88D63
S1130F90408150E04730510508F057C0FA01E85C41
S1130FA0FF4F0C94CB0BBE016F5F7F4FCE01479672
S1130FB00E94B5098BA5882309F447C099A61BA6EE
S1130FC044C0898D813031F48BA5813051F099A6CC
S1130FD08BA607C0811105C08BA5823011F099A69C
S1130FE09BA69E012E5C3F4FAE01445E5F4FBE0147
S1130FF06F5F7F4FCE0149960E94B306882329F183
S1131000F88EEF8A22C0CE0101960E9488088823B8
S1131010E1F0F88EEF8A19C0CE0101960E94D80340
S1131020882399F0F88EEF8A10C00E94520640E09F
S113103060E08EEF91E00E94CE0507C0898EF88EA5
S1131040EF8A03C0198EF88EEF8A163059F01730E4
S113105079F0113091F4DF92CF920E949D0C0F90A1
S11310600F900BC060E6CE01C2960E944C0205C0F0
S113107060E7CE01C2960E944C02812F0E94390380
S1131080F301808191818130984208F473CF2FEF6E
S1131090A21AB20A9501A9E8B8E80E94D10B969564
S11310A08795929582958F7089279F7089274CE345
S11310B0489F9001499F300D1124A216B30621F4D4
S11310C098B381E0892788BB89A5882329F0CE01BC
S11310D087960E943F0219A68E8D882329F0CE019F
S11310E04C960E943F021E8E0E94A5061092890013
S11310F010928800898D1F928F938FE092E09F93C6
S11311008F930E949D0C0F900F900F900F9028CFFB
S1131110CF93DF93EC010E94520640E060E084E14B
S113112092E00E94CE0540E062E08EE192E00E94EF
S1131130CE058F85881F8827881FDF91CF9108955A
S1131140CF92DF92EF92FF920F931F93CF93DF938F
S11311508FE0EAE2F2E0ADEFB2E001900D928A9501
S1131160E1F78FE0E9E3F2E0A9E8B3E001900D9242
S11311708A95E1F78FE0E8E4F2E0A3E4B3E00190BC
S11311800D928A95E1F78FE0E7E5F2E0A0E2B3E0A3
S113119001900D928A95E1F78FE0E6E6F2E0AFEC7C
S11311A0B3E001900D928A95E1F78FE0E5E7F2E074
S11311B0AAEDB2E001900D928A95E1F78FE0E4E8A0
S11311C0F2E0A6E6B3E001900D928A95E1F78FE094
S11311D0E3E9F2E0A7EBB2E001900D928A95E1F722
S11311E08FE0E2EAF2E0ACEAB3E001900D928A9576
S11311F0E1F710923103109230036894FF24F2F85F
S1131200F0921E03CAEFD2E0D0933303C0933203AB
S113121046E853E0509335034093340320E433E02D
S1131220309337032093360387ED92E0909339038C
S11312308093380311E010931F03EDE1F3E0108273
S1131240F0930E03E0930D0302E00093FB026CECB9
S113125073E07093100360930F030F2EF3E6CF2E09
S1131260F3E0DF2EF02DD0921203C09211031093FD
S1131270FC021882D093E003C093DF031092CD03E5
S11312801093CE030F2EF3E0EF2EF02DDB01EC9242
S1131290D0937703C09376030093640364EB72E006
S11312A07093790360937803C9EAD3E0D0937B0306
S11312B0C0937A0310936503D6011C92D092C8029E
S11312C0C092C7021092B5021093B6020F2EF5E039
S11312D0EF2EF02DDB01EC92D092BD03C092BC0343
S11312E01092AA031093AB0366E06883F0939A0309
S11312F0E09399031092870310938803DA011C93F7
S1131300F0935403E0935303109241031093420368
S1131310D9010C93F093EB02E093EA021092D80205
S11313201093D902FC01F0828DE193E0DF91CF911B
S11313301F910F91FF90EF90DF90CF900895FB01E4
S11313402381222389F0FC012081FB013281231BAC
S113135019F4FC0140830895421718F0FC0120831E
S1131360089521E0FC0120830895EF92FF920F93EA
S11313701F93CF93DF938C017B01DC018D919C91B2
S11313806F5E7F4FFC01418102960E949F090E947B
S11313905206D8018D919C9140E060E003960E9432
S11313A0CE05D801ED91FC912181222371F1C1E098
S11313B0D0E06281862F90E08C179D0731F440E0E5
S11313C081EB92E00E94CE0506C040E06C2F8EEACD
S11313D092E00E94CE05F80180819181FE0131974F
S11313E0EE0FFF1FE80FF91F8589968942E06C2FE5
S11313F003960E94CE052196D801ED91FC9121819E
S1131400822F90E08C179D07A4F6D7011F968C912C
S113141018168CF482818823B9F02817A8F090E07C
S11314200197880F991FE80FF91F85899689F8019C
S11314309183808309C088233CF48389948900972D
S113144019F0D8018D939C93DF91CF911F910F9147
S1131450FF90EF9008955058BB27AA270ED04DC196
S11314603ED130F043D120F031F49F3F11F41EF40B
S113147033C10EF4E095E7FB29C1E92F4FD180F386
S1131480BA17620773078407950718F071F49EF57D
S113149067C10EF4E0950B2EBA2FA02D0B01B901F4
S11314A090010C01CA01A0011124FF27591B99F0D6
S11314B0593F50F4503E68F11A16F040A22F232FE2
S11314C0342F4427585FF3CF469537952795A79532
S11314D0F0405395C9F77EF41F16BA0B620B730BD9
S11314E0840BBAF09150A1F0FF0FBB1F661F771F4A
S11314F0881FC2F70EC0BA0F621F731F841F48F4FF
S1131500879577956795B795F7959E3F08F0B3CF84
S11315109395880F08F09927EE0F9795879508956E
S11315200CD0EBC0E3D040F0DAD030F021F45F3FD0
S113153019F0CCC0511115C1CFC0F0D098F3992344
S1131540C9F35523B1F3951B550BBB27AA27621783
S11315507307840738F09F5F5F4F220F331F441FC8
S1131560AA1FA9F333D00E2E3AF0E0E830D0915000
S11315705040E695001CCAF729D0FE2F27D0660FED
S1131580771F881FBB1F261737074807AB07B0E82C
S113159009F0BB0B802DBF01FF2793585F4F2AF042
S11315A09E3F510568F092C0DCC05F3FECF3983E6B
S11315B0DCF3869577956795B795F7959F5FC9F79F
S11315C0880F911D9695879597F90895E1E0660F28
S11315D0771F881FBB1F621773078407BA0720F0A1
S11315E0621B730B840BBA0BEE1F88F7E09508950A
S11315F004D06894B111B5C0089598D088F09F576D
S113160090F0B92F9927B751A0F0D1F0660F771F4A
S1131610881F991F1AF0BA95C9F712C0B13081F02A
S11316209FD0B1E008959CC0672F782F8827B85FBA
S113163039F0B93FCCF3869577956795B395D9F78B
S11316403EF490958095709561957F4F8F4F9F4F95
S11316500895E89409C097FB3EF4909580957095A1
S113166061957F4F8F4F9F4F9923A9F0F92F96E9EA
S1131670BB279395F695879577956795B795F1115F
S1131680F8CFFAF4BB0F11F460FF1BC06F5F7F4FFC
S11316908F4F9F4F16C0882311F096E911C077230E
S11316A021F09EE8872F762F05C0662371F096E817
S11316B0862F70E060E02AF09A95660F771F881FE6
S11316C0DAF7880F9695879597F9089597F99F67A4
S11316D080E870E060E008959FEF80EC08950024B6
S11316E00A941616170618060906089500240A9483
S11316F012161306140605060895092E0394000C09
S113170011F4882352F0BB0F40F4BF2B11F460FF97
S113171004C06F5F7F4F8F4F9F4F089557FD9058C0
S1131720440F551F59F05F3F71F04795880F97FBA1
S1131730991F61F09F3F79F087950895121613065B
S11317401406551FF2CF4695F1DF08C0161617068A
S11317501806991FF1CF86957105610508940895BF
S1131760E894BB2766277727CB0197F9089597FB61
S1131770072E16F4009407D077FD09D00E94E00BE1
S113178007FC05D03EF4909581959F4F0895709580
S113179061957F4F0895EE0FFF1F0590F491E02DA2
S11317A00994A29FB001B39FC001A39F700D811D36
S11317B01124911DB29F700D811D1124911D089556
S11317C0AA1BBB1B51E107C0AA1FBB1FA617B70763
S11317D010F0A61BB70B881F991F5A95A9F780957F
S11317E09095BC01CD0108958F929F92AF92BF92C4
S11317F0CF92DF92EF92FF92CF93DF93EC01688157
S113180079818A819B81611571058105910521F496
S113181064E279ED8BE597E02DE133EF41E050E0B0
S11318200E94C21049015A019B01AC01A7EAB1E42C
S11318300E94E1106B017C01ACEEB4EFA5019401B0
S11318400E94EF10C60ED71EE81EF91EF7FE06C052
S113185081E0C81AD108E10880E8F80AC882D98270
S1131860EA82FB82C6019F77DF91CF91FF90EF90D0
S1131870DF90CF90BF90AF909F908F9008950E947B
S1131880F40B089580E091E00E94F40B0895A0E029
S1131890B0E08093000190930101A0930201B09302
S11318A0030108950F931F93CF93DF93EC018B01F2
S11318B0009731F46115710519F480E090E038C0A7
S11318C06EE070E081E090E00E94D20EFC0100978F
S11318D0A1F380E883830115110571F01387028752
S11318E081E883838091EF039091F003892B21F4A5
S11318F0F093F003E093EF032097C9F0D187C087FA
S11319008381826083838091F1039091F203892B18
S113191071F4F093F203E093F1038091F303909157
S1131920F403892B21F4F093F403E093F303CF0140
S1131930DF91CF911F910F910895A0E0B0E0E3EA09
S1131940FCE00C940411FE01359661917191AF0194
S11319508091F1039091F2030E94000DE2E00C9457
S113196020110F931F93CF93DF93E091F103F09134
S1131970F203238121FF1BC0EC0100E010E08991F8
S11319806091F1037091F203DB011896ED91FC91E3
S11319901997882331F00995892B89F30FEF1FEFED
S11319A0EECF8AE00995892B11F4C80102C08FEFAC
S11319B09FEFDF91CF911F910F910895AEE0B0E0BA
S11319C0E4EEFCE00C9402110D891E8986E08C8300
S11319D01A8309838FEF9FE79E838D83AE01475E51
S11319E05F4F6F89788DCE0101960E94000DEF81C3
S11319F0F885E00FF11F10822E96E4E00C941E117E
S1131A00ACE0B0E0E6E0FDE00C94F4107C016B0186
S1131A108A01FC0117821682838181FFBDC1CE0138
S1131A2001964C01F7019381F60193FD859193FF93
S1131A3081916F01882309F4ABC1853239F493FD98
S1131A40859193FF81916F01853229F4B70190E06C
S1131A500E943210E7CF512C312C20E02032A0F428
S1131A608B3269F030F4803259F0833269F42061AA
S1131A702CC08D3239F0803339F4216026C02260C5
S1131A80246023C0286021C027FD27C030ED380F13
S1131A903A3078F426FF06C0FAE05F9E300D112438
S1131AA0532E13C08AE0389E300D1124332E206249
S1131AB00CC08E3221F426FD6BC1206406C08C3626
S1131AC011F4206802C0883641F4F60193FD859133
S1131AD093FF81916F018111C1CF982F9F7D955400
S1131AE0933028F40C5F1F4FFFE3F9830DC0833656
S1131AF031F0833771F0833509F05BC022C0F801FF
S1131B00808189830E5F1F4F44244394512C5401D8
S1131B1015C03801F2E06F0E711CF801A080B1808D
S1131B2026FF03C0652D70E002C06FEF7FEFC50193
S1131B302C870E9427102C0183012C852F77222EBD
S1131B4017C03801F2E06F0E711CF801A080B1805B
S1131B5026FF03C0652D70E002C06FEF7FEFC50163
S1131B602C870E9415102C012C852068222E8301BD
S1131B7023FC1BC0832D90E048165906B0F4B7012E
S1131B8080E290E00E9432103A94F4CFF50127FCF1
S1131B90859127FE81915F01B70190E00E94321088
S1131BA031103A94F1E04F1A51084114510471F77D
S1131BB0E5C0843611F0893639F5F80127FF07C0EE
S1131BC060817181828193810C5F1F4F08C06081A5
S1131BD07181882777FD8095982F0E5F1F4F2F7690
S1131BE0B22E97FF09C090958095709561957F4FAF
S1131BF08F4F9F4F2068B22E2AE030E0A4010E944C
S1131C006410A82EA81844C0853729F42F7EB22E5C
S1131C102AE030E025C0F22FF97FBF2E8F36C1F0C5
S1131C2018F4883579F0B4C0803719F0883721F07A
S1131C30AFC02F2F2061B22EB4FE0DC08B2D846057
S1131C40B82E09C024FF0AC09F2F9660B92E06C083
S1131C5028E030E005C020E130E002C020E132E0BD
S1131C60F801B7FE07C060817181828193810C5FA6
S1131C701F4F06C06081718180E090E00E5F1F4FAE
S1131C80A4010E946410A82EA818FB2DFF77BF2E74
S1131C90B6FE0BC02B2D2E7FA51450F4B4FE0AC043
S1131CA0B2FC08C02B2D2E7E05C07A2C2B2D03C030
S1131CB07A2C01C0752C24FF0DC0FE01EA0DF11D24
S1131CC08081803311F4297E09C022FF06C07394F9
S1131CD0739404C0822F867809F0739423FD13C093
S1131CE020FF06C05A2C731418F4530C5718732C85
S1131CF0731468F4B70180E290E02C870E943210DC
S1131D0073942C85F5CF731410F4371801C0312C5B
S1131D1024FF12C0B70180E390E02C870E943210A8
S1131D202C8522FF17C021FF03C088E590E002C084
S1131D3088E790E0B7010CC0822F867859F021FD26
S1131D4002C080E201C08BE227FD8DE2B70190E082
S1131D500E943210A51438F4B70180E390E00E9489
S1131D6032105A94F7CFAA94F401EA0DF11D808140
S1131D70B70190E00E943210A110F5CF332009F48E
S1131D8051CEB70180E290E00E9432103A94F6CF2F
S1131D90F7018681978102C08FEF9FEF2C96E2E1D5
S1131DA00C9410110F931F93CF93DF93869F8001A0
S1131DB0879F100D969F100D1124C8010E94EE0EEE
S1131DC0EC01009729F0A80160E070E00E94201067
S1131DD0CE01DF91CF911F910F910895CF93DF939F
S1131DE08230910510F482E090E0E091F703F091E5
S1131DF0F80320E030E0A0E0B0E0309739F1408112
S1131E00518148175907B8F04817590771F482816E
S1131E109381109729F013969C938E9312972CC05C
S1131E209093F8038093F70327C02115310531F00F
S1131E304217530718F0A901DB0101C0EF019A0111
S1131E40BD01DF010280F381E02DD7CF21153105DB
S1131E50F9F0281B390B2430310580F48A819B81E9
S1131E606115710521F0FB019383828304C0909373
S1131E70F8038093F703FE01329644C0FE01E20F9B
S1131E80F31F8193919322503109398328833AC0F7
S1131E902091F5033091F603232B41F420910601A0
S1131EA0309107013093F6032093F5032091040148
S1131EB0309105012115310541F42DB73EB740910C
S1131EC0080150910901241B350BE091F503F091B1
S1131ED0F603E217F307A0F42E1B3F0B281739076C
S1131EE078F0AC014E5F5F4F2417350748F04E0F72
S1131EF05F1F5093F6034093F5038193919302C0BF
S1131F00E0E0F0E0CF01DF91CF910895CF93DF932C
S1131F10009709F487C0FC01329713821282C091A2
S1131F20F703D091F803209781F420813181280FA1
S1131F30391F8091F5039091F6038217930779F581
S1131F40F093F603E093F5036DC0DE0120E030E08A
S1131F50AE17BF0750F412964D915C9113979D01F3
S1131F604115510509F1DA01F3CFB383A28340810E
S1131F705181840F951F8A179B0771F48D919C9151
S1131F801197840F951F02969183808312968D91E9
S1131F909C911397938382832115310529F4F0933F
S1131FA0F803E093F7033EC0D9011396FC93EE9334
S1131FB012974D915D91A40FB51FEA17FB0779F4B1
S1131FC080819181840F951F0296D90111969C936B
S1131FD08E938281938113969C938E931297E0E063
S1131FE0F0E08A819B81009719F0FE01EC01F9CFA2
S1131FF0CE01029628813981820F931F2091F50327
S11320003091F6032817390769F4309729F41092B0
S1132010F8031092F70302C013821282D093F603DE
S1132020C093F503DF91CF910895FC0105906150B1
S113203070400110D8F7809590958E0F9F1F0895DA
S1132040DC0101C06D9341505040E0F70895FC015C
S11320506150704001900110D8F7809590958E0FD3
S11320609F1F08950F931F93CF93DF93182F092F6A
S1132070EB018B8181FD03C08FEF9FEF20C082FFB6
S113208010C04E815F812C813D81421753077CF43F
S1132090E881F9819F012F5F3F4F398328831083A3
S11320A006C0E885F985812F0995892B29F72E81AA
S11320B03F812F5F3F4F3F832E83812F902FDF91EE
S11320C0CF911F910F910895FA01AA27283051F159
S11320D0203181F1E8946F936E7F6E5F7F4F8F4F55
S11320E09F4FAF4FB1E03ED0B4E03CD0670F781FB4
S11320F0891F9A1FA11D680F791F8A1F911DA11D99
S11321006A0F711D811D911DA11D20D009F46894D1
S11321103F912AE0269F11243019305D3193DEF679
S1132120CF010895462F4770405D4193B3E00FD02F
S1132130C9F7F6CF462F4F70405D4A3318F0495D1A
S113214031FD4052419302D0A9F7EACFB4E0A695FD
S11321509795879577956795BA95C9F7009761051F
S1132160710508959B01AC010A2E06945795479575
S113217037952795BA95C9F7620F731F841F951F6A
S1132180A01D0895052E97FB1EF400940E94D910FB
S113219057FD07D00E942B1107FC03D04EF40C947A
S11321A0D91050954095309521953F4F4F4F5F4F33
S11321B0089590958095709561957F4F8F4F9F4FAF
S11321C008950E94D10BA59F900DB49F900DA49FDC
S11321D0800D911D11240895B7FF0C94E1100E9405
S11321E0E110821B930B08952F923F924F925F92BE
S11321F06F927F928F929F92AF92BF92CF92DF9213
S1132200EF92FF920F931F93CF93DF93CDB7DEB777
S1132210CA1BDB0B0FB6F894DEBF0FBECDBF09940B
S11322202A88398848885F846E847D848C849B8462
S1132230AA84B984C884DF80EE80FD800C811B8170
S1132240AA81B981CE0FD11D0FB6F894DEBF0FBE9F
S1132250CDBFED010895A1E21A2EAA1BBB1BFD01FF
S11322600DC0AA1FBB1FEE1FFF1FA217B307E40771
S1132270F50720F0A21BB30BE40BF50B661F771FC9
S1132280881F991F1A9469F76095709580959095A9
S11122909B01AC01BD01CF010895F894FFCF6E
S113229E010000000000F90320004D435032353197
S11322AE35206973204E4F5420696E20636F6E661D
S11322BE696775726174696F6E206D6F64652061F4
S11322CE66746572207265736574210A0043616CCD
S11322DE6962726174696E67204A533A20005072C3
S11322EE657373205220746F2020202020200063F9
S11322FE616C6962726174652020202020202000A8
S113230E5374617274696E67205352414D20746523
S113231E73742E2E2E0A0D005352414D2074657384
S113232E7420636F6D706C6574656420776974686E
S113233E200A0D253464206572726F727320696EE3
S113234E20777269746520706861736520616E64AC
S113235E200A0D253464206572726F727320696EC3
S113236E2072657472696576616C2070686173653C
S113237E200A200A0D005350494C4C4554204B4A18
S113238E4F524552002569002575000A0A00556E04
S113239E757365640043414E206572726F72002539
S11323AE69200D004869676873636F7265002020A9
S11323BE5065723A2031303234004F7074696F6E4A
S11323CE7320202020202020004E65772047616D49
S11323DE6520202020202000486967682073636FE1
S11323EE726573202020004D61696E206D656E75D7
S11323FE21202020200052652063616C69622E200A
S113240E6A732E2000446973702E2043414E206D52
S113241E73672E0043686F6F736520636E74726CFE
S113242E722E004A6F79737469636B20202020200A
S113243E200053656E736F722020202020202020F0
S107244E002D7300E6
S9030000FC
