S010000050696E67506F6E672E73726563F2
S11300000C94CC010C94E9010C94E9010C94E901E1
S11300100C94E9010C94E9010C94E9010C94E901B4
S11300200C94E9010C94E9010C94E9010C94E901A4
S11300300C94E9010C94E9010C94E9010C94E90194
S11300400C94E9010C94E9010C94E9010C94E90184
S11300500C94E9010C94E9010C94E9010C94E90174
S11300600C94E9010C94E9010C94E9010C94E90164
S1130070000000000000000000065F5F06000000B2
S11300800007070007070000147F7F147F7F140018
S1130090242E6B6B3A120000466630180C66620020
S11300A0307A4F5D377A48000407030000000000EF
S11300B0001C3E63410000000041633E1C00000040
S11300C0082A3E1C1C3E2A0808083E3E0808000078
S11300D000A0E0600000000008080808080800000C
S11300E000006060000000006030180C060301008E
S11300F03E7F594D7F3E000042427F7F40400000DA
S1130100627359496F660000226349497F360000D3
S1130110181C16137F7F1000276745457D390000A2
S11301203C7E4B4979300000036371190F070000CE
S1130130367F49497F360000064F49693F1E00005B
S113014000006C6C0000000000A0EC6C00000000DB
S1130150081C366341000000141414141414000025
S1130160004163361C080000020351590F060000C9
S11301703E7F415D5D1F1E007C7E13137E7C00006C
S1130180417F7F49497F36001C3E63414163220021
S1130190417F7F41637F1C00417F7F495D41630054
S11301A0417F7F491D0103001C3E6341517372006E
S11301B07F7F08087F7F000000417F7F41000000AF
S11301C0307040417F3F0100417F7F081C7763000E
S11301D0417F7F41406070007F7F060C067F7F0077
S11301E07F7F060C187F7F001C3E6341633E1C002A
S11301F0417F7F49090F06001E3F21717F5E000089
S1130200417F7F19396F460026674D597B320000C4
S113021003417F7F410300007F7F40407F7F0000D8
S11302201F3F60603F1F00007F7F3018307F7F00DA
S113023063771C081C776300074F78784F0700002A
S11302406773594D47637100007F7F41410000008F
S11302500103060C183060000041417F7F0000005C
S1130260080C0603060C0800808080808080808053
S11302700000030704000000207454543C7840003C
S1130280413F7F44447C3800387C44446C2800005F
S1130290307848493F7F4000387C54545C18000053
S11302A0487E7F490302000098BCA4A4F87C0400A3
S11302B0417F7F08047C780000447D7D400000007D
S11302C040C484FD7D000000417F7F10386C4400F1
S11302D000417F7F400000007C7C0C180C7C78007F
S11302E07C7C04047C780000387C44447C38000026
S11302F084FCF8A4243C1800183C24A4F8FC8400D2
S1130300447C78441C180000485C54547424000055
S113031000043E7F442400003C7C40403C7C400080
S11303201C3C60603C1C00003C7C6030607C3C00F9
S1130330446C3810386C44009CBCA0A0FC7C0000C9
S11303404C64745C4C64000008083E774141000032
S113035000000077770000004141773E0808000064
S11303600203010302030100080C7E7F7E0C0800D7
S113037008183F7F3F180800081C3E7F1C1C1C0007
S1130380001C1C7F3E1C0800000070187DB6BC3C9D
S1130390BCB67D187000000011241FBECFEFD4E05E
S11303A0DEBFCDBF12E0A0E0B1E0E6E1F9E102C0BA
S11303B005900D92A834B107D9F722E0A8E4B2E081
S11303C001C01D92A235B207E1F70E9430040C94DB
S11303D0890C0C940000B9980895843008F083E0E7
S11303E0846080930014B199FECF80910014089525
S11303F0BA98BB98BC980895CF93DF93EC0181E041
S11304000E94ED01888780E00E94ED018987DF91D9
S1130410CF910895CF93DF93EC0160E070E08AE020
S113042091E00E94490362E070E08BE191E00E9458
S1130430490363E070E08CE291E00E944903B29BBF
S113044005C0CE010E94FC0181E001C080E0DF9183
S1130450CF91089583333CF491E08E3C0CF090E00E
S1130460892F8195089581E00895CF93DF93EC015E
S113047081E00E94ED01888380E00E94ED01482F15
S1130480898388812885281790F0622F70E0282FAF
S113049030E0261B370B54E6529FC001539F900D4A
S11304A01124615071090E9410076A8313C030E05F
S11304B0682F70E0621B730B84E6869FF001879FB0
S11304C0F00D11246FEF70E0621B730BCF010E94DB
S11304D010076A832985241788F0622F70E050E0A2
S11304E0461B570B24E6249FC001259F900D112421
S11304F0615071090E9410076B8311C030E050E015
S1130500421B530B64E6649FC001659F900D112448
S11305106FEF70E0621B730B0E9410076B838E8178
S11305208C838F818D838A810E942A028E838B81A2
S11305300E942A028F83DF91CF910895CF93DF9396
S1130540EC0188810E94ED018983682F70E080E0CE
S113055090E00E94840623E333E343E250E40E94E4
S1130560E9050E9451066A8363321CF48FEF8B8382
S113057006C062341CF081E08B8301C01B82DF91D2
S1130580CF910895EF92FF920F931F93CF93DF9330
S11305908DE391E09F938F930E9422090E94BC08EF
S11305A07C010E94C1080F900F90C0E0D8E100E0E8
S11305B010E00E94BC0888839881981711F00F5F9F
S11305C01F4F2196C11580E2D80799F7C7010E94F1
S11305D0C108C0E0D8E1E12CF12C0E94BC0898814C
S11305E0981719F08FEFE81AF80A2196C11580E2DE
S11305F0D80799F7FF92EF921F930F9385E591E047
S11306009F938F930E9422090F900F900F900F9049
S11306100F900F90DF91CF911F910F91FF90EF906A
S1130620089585B7806885BF80B7806280BF0E94C7
S1130630C20208958770806BE0E0F0E1808310824D
S113064080E180830895A62FB0E0D896A295B29554
S1130650B07FBA27A07FBA27A40FB11DAA0FBB1F72
S1130660AA0FBB1FAA0FBB1F28E0829FC001112441
S11306708A1B9B0B20E030E080599040FC01EA0F7C
S1130680FB1FE491ED932F5F3F4F28303105B1F705
S113069008950F931F93CF93DF93EC01062F6830D7
S11306A008F007E08881882309F455C020E030E091
S11306B010E08D3209F03FC0FE01E20FF31F81818B
S11306C08E3559F028F48C33B1F08E33D9F02DC027
S11306D08337F9F0863741F028C0412F602F8FE728
S11306E00E9423031F5F2BC0412F602F80E80E94CC
S11306F023031F5F24C0412F602F81E80E9423033E
S11307001F5F1DC0412F602F82E80E9423031F5FDB
S113071016C0412F602F83E80E9423031F5F412FDF
S1130720602F84E80E9423030AC0412F602F8DE2CA
S11307300E94230304C0412F602F0E9423031F5FE4
S1130740212F30E0FE01E20FF31F8081882319F08E
S1130750103108F4AECFDF91CF911F910F9108951E
S113076080E00E941A03E0E0FCE1A0E0B2E18191A4
S11307708C93E11580E2F807D1F70895E0E0FCE1FD
S11307801192E11580E2F807D9F70895E0E0F0E16D
S11307908EEA808381EA80838AED808382E180838C
S11307A088EC808388EA80838FE3808385ED80836F
S11307B080E8808381E8808380E5808389ED80837D
S11307C081E2808390E2908310829BED908390E39A
S11307D090839DEA9083108294EA908396EA9083B2
S11307E0808310828FEF808392E2908310828083D3
S11307F080E4808380E094E0E0E0F2E110820197FD
S11308000097E1F7E0E0F0E180E28083108280EB82
S11308108083108280E180838FEA80830E94BE03FC
S113082008955D9BFECF8CB908955F9BFECF8CB17C
S113083008958FEF80BD8FE089B988E18AB98EE889
S113084080BD65E174E081E194E00E94D7080895D9
S113085063E070E083EB91E00E94490380E0089537
S1130860CF93DF93CDB7DEB768970FB6F894DEBFAA
S11308700FBECDBF0E94190482EC91E00E9436099C
S11308800E9411030E94EB010E94C603B89A0E94C1
S1130890F801CE0101960E94FC0183E08B8782E07F
S11308A08F878DED91E00E9436090E940A055C0154
S11308B09C8B8B8B01E010E00F2EFDE24F2EF3E7B3
S11308C05F2E612C712CF02D7E0185E1E80EF11C68
S11308D00F2EF0EECF2EF1E0DF2EF02D0F2EF4E6EA
S11308E09F2EF02D8824839403C088B3882588BB69
S11308F0CE0101960E943502CE010B960E949E0203
S1130900CE010F960E949E02B39B02C0BC8AAB8AA2
S1130910EB89FC898081813071F028F08230D1F03C
S1130920833009F128C0BE016F5F7F4FCE0143962B
S11309300E949D0520C0AE01415F5F4FBE01655F0F
S11309407F4FCE0101960E9428048823A1F0BC8A1F
S1130950AB8A11C0CE0101960E94EE04882359F09F
S1130960BC8AAB8A08C0CE0101960E940A02882381
S113097011F0BC8AAB8A4D8A5E8A6F8A788EEB89C5
S1130980FC89658976896D5F7F4FC7010E94CC0819
S113099064E00E944903FF92EF92DF92CF920E949B
S11309A022090E94B0030F5F1F4F980136952795C7
S11309B036952795ABE7B4E10E9424079695879571
S11309C0989E9001999E300D11240F900F900F90D6
S11309D00F900217130709F488CF8ACFCF93DF93C0
S11309E0EC0160E070E087EE91E00E94490362E070
S11309F070E081EF91E00E9449039E81992334F4D1
S1130A0081E02C81921303C080E001C080E0DF917B
S1130A10CF910895CF92DF92EF92FF920F931F939D
S1130A20CF93DF9383E290E00E944707EC0183E2D7
S1130A3090E00E9447078C0183E290E00E94470700
S1130A406C0183E290E00E9447077C0183E290E01E
S1130A500E944707D80113962FE0EDEFF1E00190D3
S1130A600D922A95E1F7D70113962FE0ECE0F2E01E
S1130A7001900D922A95E1F7DC0113962FE0EBE14A
S1130A80F2E001900D922A95E1F7DE0113962FE032
S1130A90EAE2F2E001900D922A95E1F7D60113966D
S1130AA02FE0E9E3F2E001900D922A95E1F71C8A28
S1130AB01B8A33E039831E8B0D8BF88EEF8A9A8F55
S1130AC0898F21E02A831882F801D48BC38B218378
S1130AD0D68AC58A22831082F601148B038B118275
S1130AE022833083F701D48BC38B1182228320832A
S1130AF0FC01D48BC38B1182228322E02083CE019C
S1130B00DF91CF911F910F91FF90EF90DF90CF90E5
S1130B100895FB0127813581321771F0FC01308182
S1130B20321B11F440830895431718F0FC013083FD
S1130B30089521E0FC01208308950F931F93CF9320
S1130B40DF93EC018B0188819981DC0111964C9132
S1130B5002960E9489050E94BE038881998160E003
S1130B6003960E944903E881F9819181492F50E05D
S1130B70141615063CF421E030E02F5F3F4F421776
S1130B805307DCF7D80116968C91169714962C917E
S1130B908217D1F0181684F482818823A9F098175B
S1130BA098F090E00197880F991FE80FF91F858945
S1130BB096899983888308C0882334F48389948927
S1130BC0009711F099838883DF91CF911F910F9142
S1130BD008950CD0EBC0E3D040F0DAD030F021F42B
S1130BE05F3F19F0CCC0511115C1CFC0F0D098F3BC
S1130BF09923C9F35523B1F3951B550BBB27AA279A
S1130C0062177307840738F09F5F5F4F220F331F0B
S1130C10441FAA1FA9F333D00E2E3AF0E0E830D0D7
S1130C2091505040E695001CCAF729D0FE2F27D0DA
S1130C30660F771F881FBB1F261737074807AB07A8
S1130C40B0E809F0BB0B802DBF01FF2793585F4F1D
S1130C502AF09E3F510568F092C0DCC05F3FECF380
S1130C60983EDCF3869577956795B795F7959F5FE2
S1130C70C9F7880F911D9695879597F90895E1E036
S1130C80660F771F881FBB1F621773078407BA0795
S1130C9020F0621B730B840BBA0BEE1F88F7E095F0
S1130CA0089504D06894B111B5C0089598D088F01F
S1130CB09F5790F0B92F9927B751A0F0D1F0660F44
S1130CC0771F881F991F1AF0BA95C9F712C0B1305F
S1130CD081F09FD0B1E008959CC0672F782F8827BA
S1130CE0B85F39F0B93FCCF3869577956795B3959E
S1130CF0D9F73EF490958095709561957F4F8F4F0D
S1130D009F4F0895E89409C097FB3EF49095809511
S1130D10709561957F4F8F4F9F4F9923A9F0F92FBD
S1130D2096E9BB279395F695879577956795B7953B
S1130D30F111F8CFFAF4BB0F11F460FF1BC06F5F21
S1130D407F4F8F4F9F4F16C0882311F096E911C033
S1130D50772321F09EE8872F762F05C0662371F054
S1130D6096E8862F70E060E02AF09A95660F771F68
S1130D70881FDAF7880F9695879597F9089597F95C
S1130D809F6780E870E060E008959FEF80EC08952D
S1130D9000240A9416161706180609060895002456
S1130DA00A9412161306140605060895092E0394D0
S1130DB0000C11F4882352F0BB0F40F4BF2B11F444
S1130DC060FF04C06F5F7F4F8F4F9F4F089557FDA3
S1130DD09058440F551F59F05F3F71F04795880FA5
S1130DE097FB991F61F09F3F79F08795089512163C
S1130DF013061406551FF2CF4695F1DF08C01616E8
S1130E0017061806991FF1CF869571056105089498
S1130E100895E894BB2766277727CB0197F90895AF
S1130E2097FB072E16F4009407D077FD09D00E9493
S1130E30330707FC05D03EF4909581959F4F0895A4
S1130E40709561957F4F0895A29FB001B39FC00133
S1130E50A39F700D811D1124911DB29F700D811DE2
S1130E601124911D0895AA1BBB1B51E107C0AA1FA1
S1130E70BB1FA617B70710F0A61BB70B881F991F37
S1130E805A95A9F780959095BC01CD010895CF930B
S1130E90DF938230910510F482E090E0E0914A0201
S1130EA0F0914B0220E030E0A0E0B0E0309739F15F
S1130EB04081518148175907B8F04817590771F410
S1130EC082819381109729F013969C938E931297A5
S1130ED02CC090934B0280934A0227C02115310500
S1130EE031F04217530718F0A901DB0101C0EF01EB
S1130EF09A01BD01DF010280F381E02DD7CF2115D6
S1130F003105F9F0281B390B2430310580F48A812E
S1130F109B816115710521F0FB019383828304C0D9
S1130F2090934B0280934A02FE01329644C0FE0124
S1130F30E20FF31F8193919322503109398328835F
S1130F403AC02091480230914902232B41F4209168
S1130F500201309103013093490220934802209109
S1130F600001309101012115310541F42DB73EB73F
S1130F704091040150910501241B350BE091480276
S1130F80F0914902E217F307A0F42E1B3F0B281738
S1130F90390778F0AC014E5F5F4F2417350748F0EE
S1130FA04E0F5F1F509349024093480281939193DF
S1130FB002C0E0E0F0E0CF01DF91CF910895CF933C
S1130FC0DF93009709F487C0FC01329713821282E1
S1130FD0C0914A02D0914B02209781F42081318143
S1130FE0280F391F80914802909149028217930774
S1130FF079F5F0934902E09348026DC0DE0120E0E8
S113100030E0AE17BF0750F412964D915C911397E0
S11310109D014115510509F1DA01F3CFB383A28390
S113102040815181840F951F8A179B0771F48D911C
S11310309C911197840F951F029691838083129639
S11310408D919C911397938382832115310529F403
S1131050F0934B02E0934A023EC0D9011396FC93ED
S1131060EE9312974D915D91A40FB51FEA17FB07FC
S113107079F480819181840F951F0296D90111968C
S11310809C938E938281938113969C938E93129753
S1131090E0E0F0E08A819B81009719F0FE01EC0109
S11310A0F9CFCE01029628813981820F931F2091B6
S11310B04802309149022817390769F4309729F416
S11310C010924B0210924A0202C013821282D093F1
S11310D04902C0934802DF91CF9108958F929F9265
S11310E0AF92BF92CF92DF92EF92FF92CF93DF93B2
S11310F0EC01688179818A819B8161157105810583
S1131100910521F464E279ED8BE597E02DE133EF6D
S113111041E050E00E94FE0B49015A019B01AC01E1
S1131120A7EAB1E40E941D0C6B017C01ACEEB4EFA4
S1131130A50194010E942B0CC60ED71EE81EF91EB1
S1131140F7FE06C081E0C81AD108E10880E8F80A71
S1131150C882D982EA82FB82C6019F77DF91CF9150
S1131160FF90EF90DF90CF90BF90AF909F908F90C3
S113117008950E946E08089586E091E00E946E082A
S11311800895A0E0B0E08093060190930701A09336
S11311900801B09309010895FB01DC010D900020C2
S11311A0E9F7119701900D920020E1F708950F934C
S11311B01F93CF93DF93EC018B01009731F46115FA
S11311C0710519F480E090E038C06EE070E081E0D1
S11311D090E00E94350BFC010097A1F380E8838323
S11311E00115110571F01387028781E883838091CB
S11311F04C0290914D02892B21F4F0934D02E0931F
S11312004C022097C9F0D187C08783818260838391
S113121080914E0290914F02892B71F4F0934F020A
S1131220E0934E028091500290915102892B21F457
S1131230F0935102E0935002CF01DF91CF911F91BF
S11312400F910895A0E0B0E0E8E2F9E00C94400CBE
S1131250FE01359661917191AF0180914E0290919A
S11312604F020E946309E2E00C945C0C0F931F93FD
S1131270CF93DF93E0914E02F0914F02238121FF3F
S11312801BC0EC0100E010E0899160914E02709166
S11312904F02DB011896ED91FC911997882331F0E8
S11312A00995892B89F30FEF1FEFEECF8AE009959B
S11312B0892B11F4C80102C08FEF9FEFDF91CF910A
S11312C01F910F910895ACE0B0E0E9E6F9E00C94C9
S11312D0300C7C016B018A01FC0117821682838128
S11312E081FFBDC1CE0101964C01F7019381F60146
S11312F093FD859193FF81916F01882309F4ABC11C
S1131300853239F493FD859193FF81916F01853284
S113131029F4B70190E00E946E0BE7CF512C312CD9
S113132020E02032A0F48B3269F030F4803259F09E
S1131330833269F420612CC08D3239F0803339F462
S1131340216026C02260246023C0286021C027FDBC
S113135027C030ED380F3A3078F426FF06C0FAE0A3
S11313605F9E300D1124532E13C08AE0389E300D39
S11313701124332E20620CC08E3221F426FD6BC161
S1131380206406C08C3611F4206802C0883641F40B
S1131390F60193FD859193FF81916F018111C1CF76
S11313A0982F9F7D9554933028F40C5F1F4FFFE3D3
S11313B0F9830DC0833631F0833771F0833509F03A
S11313C05BC022C0F801808189830E5F1F4F4424D3
S11313D04394512C540115C03801F2E06F0E711C76
S11313E0F801A080B18026FF03C0652D70E002C023
S11313F06FEF7FEFC5012C870E94630B2C018301E3
S11314002C852F77222E17C03801F2E06F0E711C45
S1131410F801A080B18026FF03C0652D70E002C0F2
S11314206FEF7FEFC5012C870E94510B2C012C8597
S11314302068222E830123FC1BC0832D90E04816D4
S11314405906B0F4B70180E290E00E946E0B3A9422
S1131450F4CFF50127FC859127FE81915F01B70147
S113146090E00E946E0B31103A94F1E04F1A51084B
S11314704114510471F7E5C0843611F0893639F509
S1131480F80127FF07C060817181828193810C5F1D
S11314901F4F08C060817181882777FD8095982F40
S11314A00E5F1F4F2F76B22E97FF09C0909580953F
S11314B0709561957F4F8F4F9F4F2068B22E2AE021
S11314C030E0A4010E94A00BA82EA81844C08537C0
S11314D029F42F7EB22E2AE030E025C0F22FF97FC6
S11314E0BF2E8F36C1F018F4883579F0B4C0803738
S11314F019F0883721F0AFC02F2F2061B22EB4FE2F
S11315000DC08B2D8460B82E09C024FF0AC09F2F04
S11315109660B92E06C028E030E005C020E130E036
S113152002C020E132E0F801B7FE07C0608171819A
S1131530828193810C5F1F4F06C06081718180E0BE
S113154090E00E5F1F4FA4010E94A00BA82EA818C4
S1131550FB2DFF77BF2EB6FE0BC02B2D2E7FA514BF
S113156050F4B4FE0AC0B2FC08C02B2D2E7E05C078
S11315707A2C2B2D03C07A2C01C0752C24FF0DC0AE
S1131580FE01EA0DF11D8081803311F4297E09C02A
S113159022FF06C07394739404C0822F867809F0E6
S11315A0739423FD13C020FF06C05A2C731418F43F
S11315B0530C5718732C731468F4B70180E290E04D
S11315C02C870E946E0B73942C85F5CF731410F442
S11315D0371801C0312C24FF12C0B70180E390E01A
S11315E02C870E946E0B2C8522FF17C021FF03C09D
S11315F088E590E002C088E790E0B7010CC0822F34
S1131600867859F021FD02C080E201C08BE227FDFB
S11316108DE2B70190E00E946E0BA51438F4B70177
S113162080E390E00E946E0B5A94F7CFAA94F401E1
S1131630EA0DF11D8081B70190E00E946E0BA110AC
S1131640F5CF332009F451CEB70180E290E00E9437
S11316506E0B3A94F6CFF7018681978102C08FEF23
S11316609FEF2C96E2E10C944C0C0F931F93CF93B5
S1131670DF93869F8001879F100D969F100D112484
S1131680C8010E944707EC01009729F0A80160E017
S113169070E00E945C0BCE01DF91CF911F910F91FE
S11316A00895FC010590615070400110D8F78095B1
S11316B090958E0F9F1F0895DC0101C06D934150DA
S11316C05040E0F70895FC01615070400190011012
S11316D0D8F7809590958E0F9F1F08950F931F93B1
S11316E0CF93DF93182F092FEB018B8181FD03C06A
S11316F08FEF9FEF20C082FF10C04E815F812C814D
S11317003D81421753077CF4E881F9819F012F5FE3
S11317103F4F39832883108306C0E885F985812FDC
S11317200995892B29F72E813F812F5F3F4F3F83F6
S11317302E83812F902FDF91CF911F910F910895C8
S1131740FA01AA27283051F1203181F1E8946F93EE
S11317506E7F6E5F7F4F8F4F9F4FAF4FB1E03ED094
S1131760B4E03CD0670F781F891F9A1FA11D680F32
S1131770791F8A1F911DA11D6A0F711D811D911D65
S1131780A11D20D009F468943F912AE0269F1124DA
S11317903019305D3193DEF6CF010895462F47703E
S11317A0405D4193B3E00FD0C9F7F6CF462F4F7099
S11317B0405D4A3318F0495D31FD4052419302D0F7
S11317C0A9F7EACFB4E0A69597958795779567959D
S11317D0BA95C9F700976105710508959B01AC019D
S11317E00A2E06945795479537952795BA95C9F7C4
S11317F0620F731F841F951FA01D0895052E97FB6C
S11318001EF400940E94150C57FD07D00E94670C2B
S113181007FC03D04EF40C94150C5095409530956C
S113182021953F4F4F4F5F4F089590958095709548
S113183061957F4F8F4F9F4F08950E942407A59F66
S1131840900DB49F900DA49F800D911D11240895B7
S1131850B7FF0C941D0C0E941D0C821B930B089562
S11318602F923F924F925F926F927F928F929F92AC
S1131870AF92BF92CF92DF92EF92FF920F931F939A
S1131880CF93DF93CDB7DEB7CA1BDB0B0FB6F8944B
S1131890DEBF0FBECDBF09942A88398848885F848B
S11318A06E847D848C849B84AA84B984C884DF80FC
S11318B0EE80FD800C811B81AA81B981CE0FD11DE0
S11318C00FB6F894DEBF0FBECDBFED010895A1E2BF
S11318D01A2EAA1BBB1BFD010DC0AA1FBB1FEE1FA6
S11318E0FF1FA217B307E407F50720F0A21BB30BF1
S11318F0E40BF50B661F771F881F991F1A9469F76D
S113190060957095809590959B01AC01BD01CF01C8
S10919100895F894FFCFD6
S11319160000520220000100000043616C696272FB
S11319266174696E67204A533A2000507265737376
S1131936204120746F2020202020200063616C69E0
S11319466272617465202020202020200053746177
S11319567274696E67205352414D20746573742EF8
S11319662E2E0A0D005352414D2074657374206364
S11319766F6D706C657465642077697468200A0DF0
S1131986253464206572726F727320696E207772D3
S113199669746520706861736520616E64200A0D40
S11319A6253464206572726F727320696E207265C5
S11319B67472696576616C207068617365200A20AB
S11319C60A0D005350494C4C4554204B4A4F52453E
S11319D652000A0A0A0A0A0A0A0A0A0A0A0A0A0A1F
S11319E60A0A0A0A0A0A0A0A0A0A0A0A0A0A0A0057
S11319F625730A0A0A0D004869676873636F72657E
S1131A060020205065723A2031303234004F707411
S1131A16696F6E7320202020202020004E657720D9
S1131A2647616D65202020202020004869676820D2
S1131A3673636F726573202020004D61696E206D9B
S1131A46656E7521202020200052652063616C6933
S10B1A56622E206A732E2000A9
S9030000FC
