S010000050696E67506F6E672E73726563F2
S11300000C94CC010C94E9010C94E9010C94E901E1
S11300100C94E9010C94E9010C94E9010C94E901B4
S11300200C94E9010C94E9010C94E9010C94E901A4
S11300300C94E9010C94E9010C94E9010C94E90194
S11300400C94E9010C94E9010C94E9010C94E90184
S11300500C94E9010C94E9010C94E9010C94E90174
S11300600C94E9010C94E9010C94E9010C94E90164
S1130070000000000000000000065F5F06000000B2
S11300800007070007070000147F7F147F7F140018
S1130090242E6B6B3A120000466630180C66620020
S11300A0307A4F5D377A48000407030000000000EF
S11300B0001C3E63410000000041633E1C00000040
S11300C0082A3E1C1C3E2A0808083E3E0808000078
S11300D000A0E0600000000008080808080800000C
S11300E000006060000000006030180C060301008E
S11300F03E7F594D7F3E000042427F7F40400000DA
S1130100627359496F660000226349497F360000D3
S1130110181C16137F7F1000276745457D390000A2
S11301203C7E4B4979300000036371190F070000CE
S1130130367F49497F360000064F49693F1E00005B
S113014000006C6C0000000000A0EC6C00000000DB
S1130150081C366341000000141414141414000025
S1130160004163361C080000020351590F060000C9
S11301703E7F415D5D1F1E007C7E13137E7C00006C
S1130180417F7F49497F36001C3E63414163220021
S1130190417F7F41637F1C00417F7F495D41630054
S11301A0417F7F491D0103001C3E6341517372006E
S11301B07F7F08087F7F000000417F7F41000000AF
S11301C0307040417F3F0100417F7F081C7763000E
S11301D0417F7F41406070007F7F060C067F7F0077
S11301E07F7F060C187F7F001C3E6341633E1C002A
S11301F0417F7F49090F06001E3F21717F5E000089
S1130200417F7F19396F460026674D597B320000C4
S113021003417F7F410300007F7F40407F7F0000D8
S11302201F3F60603F1F00007F7F3018307F7F00DA
S113023063771C081C776300074F78784F0700002A
S11302406773594D47637100007F7F41410000008F
S11302500103060C183060000041417F7F0000005C
S1130260080C0603060C0800808080808080808053
S11302700000030704000000207454543C7840003C
S1130280413F7F44447C3800387C44446C2800005F
S1130290307848493F7F4000387C54545C18000053
S11302A0487E7F490302000098BCA4A4F87C0400A3
S11302B0417F7F08047C780000447D7D400000007D
S11302C040C484FD7D000000417F7F10386C4400F1
S11302D000417F7F400000007C7C0C180C7C78007F
S11302E07C7C04047C780000387C44447C38000026
S11302F084FCF8A4243C1800183C24A4F8FC8400D2
S1130300447C78441C180000485C54547424000055
S113031000043E7F442400003C7C40403C7C400080
S11303201C3C60603C1C00003C7C6030607C3C00F9
S1130330446C3810386C44009CBCA0A0FC7C0000C9
S11303404C64745C4C64000008083E774141000032
S113035000000077770000004141773E0808000064
S11303600203010302030100080C7E7F7E0C0800D7
S113037008183F7F3F180800081C3E7F1C1C1C0007
S1130380001C1C7F3E1C0800000070187DB6BC3C9D
S1130390BCB67D187000000011241FBECFEFD4E05E
S11303A0DEBFCDBF12E0A0E0B1E0E6EBF5E102C0B4
S11303B005900D92A034B107D9F722E0A0E4B2E091
S11303C001C01D92AA34B207E1F70E94C1030C9444
S11303D0D90A0C940000B9980895843008F083E099
S11303E0846080930014B199FECF80910014089525
S11303F0BA98BB98BC980895CF93DF93EC0181E041
S11304000E94ED01888780E00E94ED018987DF91D9
S1130410CF91089583333CF491E08E3C0CF090E04E
S1130420892F8195089581E00895CF93DF93EC019E
S113043081E00E94ED01888380E00E94ED01482F55
S1130440898388812885281790F0622F70E0282FEF
S113045030E0261B370B54E6529FC001539F900D8A
S11304601124615071090E946B056A8313C030E046
S1130470682F70E0621B730B84E6869FF001879FF0
S1130480F00D11246FEF70E0621B730BCF010E941B
S11304906B056A832985241788F0622F70E050E089
S11304A0461B570B24E6249FC001259F900D112461
S11304B0615071090E946B056B8311C030E050E0FC
S11304C0421B530B64E6649FC001659F900D112489
S11304D06FEF70E0621B730B0E946B056B838E8160
S11304E08C838F818D838A810E940A028E838B8103
S11304F00E940A028F83DF91CF910895EF92FF92B9
S11305000F931F93CF93DF938AE091E09F938F9390
S11305100E9463070E9408077C010E940D070F9048
S11305200F90C0E0D8E100E010E00E940807888343
S11305309881981711F00F5F1F4F2196C11580E223
S1130540D80799F7C7010E940D07C0E0D8E1E12C54
S1130550F12C0E9408079881981719F08FEFE81A78
S1130560F80A2196C11580E2D80799F7FF92EF9215
S11305701F930F9382E291E09F938F930E946307EE
S11305800F900F900F900F900F900F90DF91CF91DD
S11305901F910F91FF90EF90089585B7806885BFF4
S11305A080B7806280BF0E947E020895E0E0F0E19F
S11305B08EEA808381EA80838AED808382E180836E
S11305C088EC808388EA80838FE3808385ED808351
S11305D080E8808381E8808380E5808389ED80835F
S11305E081E2808390E2908310829BED908390E37C
S11305F090839DEA9083108294EA908396EA908394
S11306009FEA9083808310828FEF808392E29083AD
S11306101082808380E4808380E094E0E0E0F2E173
S1130620108201970097E1F7E0E0F0E180E2808337
S113063082E0808380EB8083108280E18083089550
S11306408770806BE0E0F0E18083108280E180833A
S1130650089528E0829FC0011124FC01E059F04074
S113066020E030E0A0E0B2E184918C932F5F3F4F13
S1130670319628303105C1F708951F93CF93DF9346
S1130680EC018881882309F444C020E030E010E0C4
S11306908D3289F5FE01E20FF31F81818E3559F009
S11306A028F48C3391F08E33A9F021C08337B9F04C
S11306B0863731F01CC08FE70E9429031F5F1DC0DD
S11306C080E80E9429031F5F18C081E80E94290363
S11306D01F5F13C082E80E9429031F5F0EC083E8D6
S11306E00E94290384E80E9429031F5F06C08DE24B
S11306F00E94290302C00E9429031F5F212F30E0BA
S1130700FE01E20FF31F8081882319F0103108F4F1
S1130710BFCFDF91CF911F910895CF93DF93D82F4F
S11307200E942003C0E08EEF91E00E943D03CF5F62
S1130730C038C9F78D2F0E942003DF91CF9108950F
S1130740CF93C0E08C2F0E948D03CF5FC830D1F7C8
S1130750CF9108955D9BFECF8CB908955F9BFECF2A
S11307608CB108958FEF80BD8FE089B988E18AB993
S11307708EE880BD6EEA73E08AEA93E00E9418076F
S11307800895CF93DF93CDB7DEB72C970FB6F894C7
S1130790DEBF0FBECDBF0E94B20380E891E00E948D
S11307A077070E94CD020E94EB010E94D602B89AFC
S11307B00E94F801CE0101960E94FC018DE991E0AE
S11307C00E9477070E9448048C019C878B87FF2432
S11307D0F39498B39F2598BBCE0101960E9415020D
S11307E0B39B04C01C870B870E94A003EB85FC8588
S11307F09081913071F028F0923099F0933051F15A
S1130800E8CFBE016F5F7F4FCE010B960E94EF04CD
S1130810E0CF83E00E94200380EA91E00E943D0340
S1130820D8CF80E00E9420038FEA91E00E943D032C
S11308308F2D0E94200389EB91E00E943D038F815C
S113084088233CF69D81891721F21C870B870E941F
S1130850A003BFCF80E00E94200385EC91E00E94BA
S11308603D0382E00E948D0384ED91E00E943D03EC
S113087083E00E948D038FED91E00E943D03B299C5
S113088004C01C870B87B29BFCCF0E94A003A1CF9E
S1130890CF92DF92EF92FF920F931F93CF93DF9348
S11308A089EE91E00E94770783E290E00E9493052D
S11308B0EC018BEE91E00E94770783E290E00E94C6
S11308C093058C018DEE91E00E94770783E290E01E
S11308D00E9493056C018FEE91E00E94770783E2FA
S11308E090E00E9493057C0187EB91E00E947707DA
S11308F083E290E00E949305D80113962FE0E1EF84
S1130900F1E001900D922A95E1F7D70113962FE0BB
S1130910E0E0F2E001900D922A95E1F7DC011396F4
S11309202FE0EFE0F2E001900D922A95E1F7DE016D
S113093013962FE0EEE1F2E001900D922A95E1F793
S1130940D60113962FE0EDE2F2E001900D922A9584
S1130950E1F71C8A1B8A33E039831E8B0D8BF88EDA
S1130960EF8A9A8F898F21E02A831882F801D48B29
S1130970C38B2183D68AC58A22831082F601148B05
S1130980038B118222833083F701D48BC38B1182B2
S113099022832083FC01D48BC38B1182228322E027
S11309A02083CE01DF91CF911F910F91FF90EF90A3
S11309B0DF90CF900895FB0127813581321771F0C4
S11309C0FC013081321B11F440830895431718F061
S11309D0FC013083089521E0FC0120830895EF9207
S11309E0FF920F931F93CF93DF938C017B01DC0164
S11309F08D919C91FC01418102960E94DB0480E070
S1130A000E942003D8018D919C9103960E943D037E
S1130A10D801ED91FC912181222371F1C1E0D0E054
S1130A208C2F0E942003D801ED91FC91828190E0EB
S1130A308C179D0729F48CE392E00E943D0304C0C7
S1130A408DEF91E00E943D03F80180819181FE01C8
S1130A503197EE0FFF1FE80FF91F858996890396DA
S1130A600E943D032196D801ED91FC912181822FB2
S1130A7090E08C179D07A4F6D70116968C911697D3
S1130A8014969C91891701F118169CF4828188238D
S1130A90D9F02817C8F090E00197880F991FE80F44
S1130AA0F91F85899689F801918380830E94A003A8
S1130AB00BC088234CF483899489009729F0D801CA
S1130AC08D939C930E94A003DF91CF911F910F916E
S1130AD0FF90EF90089597FB072E16F4009407D02B
S1130AE077FD09D00E947F0507FC05D03EF4909560
S1130AF081959F4F0895709561957F4F0895AA1B26
S1130B00BB1B51E107C0AA1FBB1FA617B70710F0F4
S1130B10A61BB70B881F991F5A95A9F78095909526
S1130B20BC01CD010895CF93DF938230910510F479
S1130B3082E090E0E0914202F091430220E030E054
S1130B40A0E0B0E0309739F140815181481759074E
S1130B50B8F04817590771F482819381109729F0EE
S1130B6013969C938E9312972CC090934302809378
S1130B70420227C02115310531F04217530718F0FE
S1130B80A901DB0101C0EF019A01BD01DF0102806F
S1130B90F381E02DD7CF21153105F9F0281B390B4E
S1130BA02430310580F48A819B816115710521F01F
S1130BB0FB019383828304C0909343028093420297
S1130BC0FE01329644C0FE01E20FF31F819391931C
S1130BD022503109398328833AC020914002309150
S1130BE04102232B41F420910201309103013093FF
S1130BF0410220934002209100013091010121150E
S1130C00310541F42DB73EB74091040150910501DF
S1130C10241B350BE0914002F0914102E217F307E7
S1130C20A0F42E1B3F0B2817390778F0AC014E5F58
S1130C305F4F2417350748F04E0F5F1F5093410252
S1130C40409340028193919302C0E0E0F0E0CF0131
S1130C50DF91CF910895CF93DF93009709F487C074
S1130C60FC01329713821282C0914202D091430256
S1130C70209781F420813181280F391F809140020F
S1130C80909141028217930779F5F0934102E09322
S1130C9040026DC0DE0120E030E0AE17BF0750F423
S1130CA012964D915C9113979D014115510509F1DF
S1130CB0DA01F3CFB383A28340815181840F951F5E
S1130CC08A179B0771F48D919C911197840F951F3E
S1130CD002969183808312968D919C9113979383AE
S1130CE082832115310529F4F0934302E0934202F3
S1130CF03EC0D9011396FC93EE9312974D915D91EA
S1130D00A40FB51FEA17FB0779F480819181840F42
S1130D10951F0296D90111969C938E93828193819B
S1130D2013969C938E931297E0E0F0E08A819B8166
S1130D30009719F0FE01EC01F9CFCE01029628814B
S1130D403981820F931F209140023091410228176C
S1130D50390769F4309729F4109243021092420241
S1130D6002C013821282D0934102C0934002DF91E9
S1130D70CF9108958F929F92AF92BF92CF92DF92BC
S1130D80EF92FF92CF93DF93EC01688179818A819E
S1130D909B81611571058105910521F464E279ED6A
S1130DA08BE597E02DE133EF41E050E00E943F0AEC
S1130DB049015A019B01AC01A7EAB1E40E945E0A11
S1130DC06B017C01ACEEB4EFA50194010E946C0AA6
S1130DD0C60ED71EE81EF91EF7FE06C081E0C81A2B
S1130DE0D108E10880E8F80AC882D982EA82FB8245
S1130DF0C6019F77DF91CF91FF90EF90DF90CF9066
S1130E00BF90AF909F908F9008950E94BA06089566
S1130E1086E091E00E94BA060895A0E0B0E08093D5
S1130E20060190930701A0930801B0930901089566
S1130E300F931F93CF93DF93EC018B01009731F451
S1130E406115710519F480E090E038C06EE070E03F
S1130E5081E090E00E947609FC010097A1F380E80C
S1130E6083830115110571F01387028781E8838359
S1130E708091440290914502892B21F4F09345021C
S1130E80E09344022097C9F0D187C08783818260B0
S1130E9083838091460290914702892B71F4F093E9
S1130EA04702E09346028091480290914902892BBF
S1130EB021F4F0934902E0934802CF01DF91CF91EE
S1130EC01F910F910895A0E0B0E0E9E6F7E00C94DB
S1130ED0810AFE01359661917191AF0180914602BC
S1130EE0909147020E94A407E2E00C949D0A0F939C
S1130EF01F93CF93DF93E0914602F0914702238141
S1130F0021FF1BC0EC0100E010E0899160914602D2
S1130F1070914702DB011896ED91FC911997882393
S1130F2031F00995892B89F30FEF1FEFEECF8AE09B
S1130F300995892B11F4C80102C08FEF9FEFDF914F
S1130F40CF911F910F910895ACE0B0E0EAEAF7E089
S1130F500C94710A7C016B018A01FC0117821682D0
S1130F60838181FFBDC1CE0101964C01F7019381BC
S1130F70F60193FD859193FF81916F01882309F414
S1130F80ABC1853239F493FD859193FF81916F0153
S1130F90853229F4B70190E00E94AF09E7CF512CC4
S1130FA0312C20E02032A0F48B3269F030F480320E
S1130FB059F0833269F420612CC08D3239F08033CA
S1130FC039F4216026C02260246023C0286021C037
S1130FD027FD27C030ED380F3A3078F426FF06C0DD
S1130FE0FAE05F9E300D1124532E13C08AE0389E20
S1130FF0300D1124332E20620CC08E3221F426FDD4
S11310006BC1206406C08C3611F4206802C0883697
S113101041F4F60193FD859193FF81916F01811154
S1131020C1CF982F9F7D9554933028F40C5F1F4FA8
S1131030FFE3F9830DC0833631F0833771F08335D4
S113104009F05BC022C0F801808189830E5F1F4FC5
S113105044244394512C540115C03801F2E06F0E1E
S1131060711CF801A080B18026FF03C0652D70E0DB
S113107002C06FEF7FEFC5012C870E94A4092C01E9
S113108083012C852F77222E17C03801F2E06F0ED2
S1131090711CF801A080B18026FF03C0652D70E0AB
S11310A002C06FEF7FEFC5012C870E9492092C01CB
S11310B02C852068222E830123FC1BC0832D90E005
S11310C048165906B0F4B70180E290E00E94AF09D7
S11310D03A94F4CFF50127FC859127FE81915F01B5
S11310E0B70190E00E94AF0931103A94F1E04F1A31
S11310F051084114510471F7E5C0843611F0893662
S113110039F5F80127FF07C06081718182819381DD
S11311100C5F1F4F08C060817181882777FD80951F
S1131120982F0E5F1F4F2F76B22E97FF09C0909510
S11311308095709561957F4F8F4F9F4F2068B22E99
S11311402AE030E0A4010E94E109A82EA81844C0B6
S1131150853729F42F7EB22E2AE030E025C0F22F05
S1131160F97FBF2E8F36C1F018F4883579F0B4C0FA
S1131170803719F0883721F0AFC02F2F2061B22EAD
S1131180B4FE0DC08B2D8460B82E09C024FF0AC0A4
S11311909F2F9660B92E06C028E030E005C020E1FC
S11311A030E002C020E132E0F801B7FE07C0608100
S11311B07181828193810C5F1F4F06C060817181B0
S11311C080E090E00E5F1F4FA4010E94E109A82E69
S11311D0A818FB2DFF77BF2EB6FE0BC02B2D2E7F3C
S11311E0A51450F4B4FE0AC0B2FC08C02B2D2E7E08
S11311F005C07A2C2B2D03C07A2C01C0752C24FF3A
S11312000DC0FE01EA0DF11D8081803311F4297EA9
S113121009C022FF06C07394739404C0822F867899
S113122009F0739423FD13C020FF06C05A2C7314D5
S113123018F4530C5718732C731468F4B70180E234
S113124090E02C870E94AF0973942C85F5CF73141A
S113125010F4371801C0312C24FF12C0B70180E309
S113126090E02C870E94AF092C8522FF17C021FF34
S113127003C088E590E002C088E790E0B7010CC0A5
S1131280822F867859F021FD02C080E201C08BE2F2
S113129027FD8DE2B70190E00E94AF09A51438F450
S11312A0B70180E390E00E94AF095A94F7CFAA9463
S11312B0F401EA0DF11D8081B70190E00E94AF09AD
S11312C0A110F5CF332009F451CEB70180E290E0AC
S11312D00E94AF093A94F6CFF7018681978102C044
S11312E08FEF9FEF2C96E2E10C948D0A0F931F93DE
S11312F0CF93DF93869F8001879F100D969F100DDB
S11313001124C8010E949305EC01009729F0A8015B
S113131060E070E00E949D09CE01DF91CF911F91A2
S11313200F910895FC010590615070400110D8F7A9
S1131330809590958E0F9F1F0895DC0101C06D93D9
S113134041505040E0F70895FC0161507040019015
S11313500110D8F7809590958E0F9F1F08950F93D5
S11313601F93CF93DF93182F092FEB018B8181FDFE
S113137003C08FEF9FEF20C082FF10C04E815F81BA
S11313802C813D81421753077CF4E881F9819F0148
S11313902F5F3F4F39832883108306C0E885F98582
S11313A0812F0995892B29F72E813F812F5F3F4F8C
S11313B03F832E83812F902FDF91CF911F910F9127
S11313C00895FA01AA27283051F1203181F1E894D7
S11313D06F936E7F6E5F7F4F8F4F9F4FAF4FB1E024
S11313E03ED0B4E03CD0670F781F891F9A1FA11D1F
S11313F0680F791F8A1F911DA11D6A0F711D811D20
S1131400911DA11D20D009F468943F912AE0269FE4
S113141011243019305D3193DEF6CF010895462F43
S11314204770405D4193B3E00FD0C9F7F6CF462F24
S11314304F70405D4A3318F0495D31FD405241938D
S113144002D0A9F7EACFB4E0A6959795879577954A
S11314506795BA95C9F700976105710508959B01D1
S1131460AC010A2E06945795479537952795BA955A
S1131470C9F7620F731F841F951FA01D0895052EC1
S113148097FB1EF400940E94560A57FD07D00E9451
S1131490A80A07FC03D04EF40C94560A50954095C4
S11314A0309521953F4F4F4F5F4F0895909580950C
S11314B0709561957F4F8F4F9F4F08950E94CA0A80
S11314C0A59F900DB49F900DA49F800D911D112494
S11314D00895B7FF0C945E0A0E945E0A821B930B68
S11314E008952F923F924F925F926F927F928F92C4
S11314F09F92AF92BF92CF92DF92EF92FF920F939F
S11315001F93CF93DF93CDB7DEB7CA1BDB0B0FB6A8
S1131510F894DEBF0FBECDBF09942A883988488865
S11315205F846E847D848C849B84AA84B984C884FB
S1131530DF80EE80FD800C811B81AA81B981CE0FF2
S1131540D11D0FB6F894DEBF0FBECDBFED010895D7
S1131550A1E21A2EAA1BBB1BFD010DC0AA1FBB1FB3
S1131560EE1FFF1FA217B307E407F50720F0A21B25
S1131570B30BE40BF50B661F771F881F991F1A9492
S113158069F760957095809590959B01AC01BD01BC
S1131590CF010895A29FB001B39FC001A39F700D16
S11315A0811D1124911DB29F700D811D1124911D67
S10915B00895F894FFCF3A
S11315B600004A022000010000005374617274693D
S11315C66E67205352414D20746573742E2E2E0A75
S11315D60D005352414D207465737420636F6D7012
S11315E66C657465642077697468200A0D25346413
S11315F6206572726F727320696E207772697465E2
S113160620706861736520616E64200A0D25346458
S1131616206572726F727320696E207265747269C6
S11316266576616C207068617365200A200A0D0076
S11316360A0A0A0A0A0A0A0A0A0A0A0A0A0A0A0A00
S11316460A0A0A0A0A0A0A0A0A0A0A0A0A0A0A00FA
S11316565350494C4C4554204B4A4F52455200482E
S113166669676873636F72650020205065723A205B
S1131676313032340043616C6962726174696E6739
S1131686204A53005072657373204120746F0063BF
S1131696616C696272617465006100620063006472
S11316A6004F7074696F6E73202020202020200064
S11316B64E65772047616D65202020202020004854
S11316C66967682073636F726573202020004D611B
S11316D6696E206D656E75212020202000526520DC
S11316E663616C69622E206A732E20002D730000DC
S9030000FC
