:100000000C94D4010C94F1010C94F1010C94F101C5
:100010000C94F1010C94F1010C94F1010C94F10198
:100020000C94F1010C94F1010C94F1010C94F10188
:100030000C94F1010C94F1010C94F1010C94F10178
:100040000C94F1010C94F1010C94F1010C94F10168
:100050000C94F1010C94F1010C94F1010C94F10158
:100060000C94F1010C94F1010C94F1010C94F10148
:100070002F093D095F096B098709740978097C0913
:10008000000000000000000000065F5F06000000A6
:100090000007070007070000147F7F147F7F14000C
:1000A000242E6B6B3A120000466630180C66620014
:1000B000307A4F5D377A48000407030000000000E3
:1000C000001C3E63410000000041633E1C00000034
:1000D000082A3E1C1C3E2A0808083E3E080800006C
:1000E00000A0E06000000000080808080808000000
:1000F00000006060000000006030180C0603010082
:100100003E7F594D7F3E000042427F7F40400000CD
:10011000627359496F660000226349497F360000C7
:10012000181C16137F7F1000276745457D39000096
:100130003C7E4B4979300000036371190F070000C2
:10014000367F49497F360000064F49693F1E00004F
:1001500000006C6C0000000000A0EC6C00000000CF
:10016000081C366341000000141414141414000019
:10017000004163361C080000020351590F060000BD
:100180003E7F415D5D1F1E007C7E13137E7C000060
:10019000417F7F49497F36001C3E63414163220015
:1001A000417F7F41637F1C00417F7F495D41630048
:1001B000417F7F491D0103001C3E63415173720062
:1001C0007F7F08087F7F000000417F7F41000000A3
:1001D000307040417F3F0100417F7F081C77630002
:1001E000417F7F41406070007F7F060C067F7F006B
:1001F0007F7F060C187F7F001C3E6341633E1C001E
:10020000417F7F49090F06001E3F21717F5E00007C
:10021000417F7F19396F460026674D597B320000B8
:1002200003417F7F410300007F7F40407F7F0000CC
:100230001F3F60603F1F00007F7F3018307F7F00CE
:1002400063771C081C776300074F78784F0700001E
:100250006773594D47637100007F7F414100000083
:100260000103060C183060000041417F7F00000050
:10027000080C0603060C0800808080808080808047
:100280000000030704000000207454543C78400030
:10029000413F7F44447C3800387C44446C28000053
:1002A000307848493F7F4000387C54545C18000047
:1002B000487E7F490302000098BCA4A4F87C040097
:1002C000417F7F08047C780000447D7D4000000071
:1002D00040C484FD7D000000417F7F10386C4400E5
:1002E00000417F7F400000007C7C0C180C7C780073
:1002F0007C7C04047C780000387C44447C3800001A
:1003000084FCF8A4243C1800183C24A4F8FC8400C5
:10031000447C78441C180000485C54547424000049
:1003200000043E7F442400003C7C40403C7C400074
:100330001C3C60603C1C00003C7C6030607C3C00ED
:10034000446C3810386C44009CBCA0A0FC7C0000BD
:100350004C64745C4C64000008083E774141000026
:1003600000000077770000004141773E0808000058
:100370000203010302030100080C7E7F7E0C0800CB
:1003800008183F7F3F180800081C3E7F1C1C1C00FB
:10039000001C1C7F3E1C0800000070187DB6BC3C91
:1003A000BCB67D187000000011241FBECFEFD4E052
:1003B000DEBFCDBF13E0A0E0B1E0ECE6F5E202C0A5
:1003C00005900D92A83BB107D9F724E0A8EBB3E064
:1003D00001C01D92AD3FB207E1F70E9489080C945D
:1003E000B4120C940000FF920F931F93CF93DF93EE
:1003F000EC01F62E88819981BC01769567957695FA
:1004000067957695679581E08F0D0E944F0368810F
:100410006295660F607E82E08F0D0E944F036A81B5
:1004200085E08F0D0E944F038A81882379F010E0C8
:1004300006E00F0DFE01E10FF11D6381802F810F9A
:100440000E944F031F5F8A811817A0F380E3F81200
:1004500004C081E80E946A030DC080E4F81204C061
:1004600082E80E946A0306C080E5F81203C084E8AF
:100470000E946A03DF91CF911F910F91FF90089521
:10048000CF93DF93EC010E94610360E3CE010E94F1
:10049000F30181E0DF91CF910895EF92FF920F93E6
:1004A0001F93CF93DF938C01E62E0E9461032E2DC4
:1004B00022952F70265041E050E0BA0102C0660F2D
:1004C000771F2A95E2F79B01282B232B91F181E0DE
:1004D0008E0D0E94400378E0879FE0011124F8010F
:1004E000D183C08382E08E0D0E9440038295869561
:1004F0008770C82BF801D183C08385E08E0D0E94E0
:1005000040038F70F80182838823A9F0E8012396C5
:10051000F12CF6E0EF0E8E2D8F0D0E944003899393
:10052000F394F8018281F81640F4F8E0FF12F3CF5B
:1005300006C080E005C081E003C081E001C081E029
:10054000DF91CF911F910F91FF90EF9008958399C4
:1005500006C08EE00E9440038E708695089580E06C
:10056000089560E08CE20E944F0308958B980E94EA
:100570008D030E9487038EE00E944003807E8038B6
:1005800021F08AE091E00E94F40D40E260E680E60E
:100590000E946F0344E064E080E60E946F0340E243
:1005A00060E680E70E946F0363E28BE20E944F03E4
:1005B00060EC80E20E944F0340E260EE81E20E9424
:1005C0006F0360EC84E20E944F0340E660EE85E238
:1005D0000E946F0360E480E00E944F0340E060EE01
:1005E00081E00E946F0360E484E00E944F0340E2D8
:1005F00060EE85E00E946F0360EC88E00E944F038C
:1006000040E060EE89E00E946F0360EC80E10E94B0
:100610004F0340E260EE81E10E946F0360EC84E1F1
:100620000E944F0340E460EE85E10E946F0360EC9E
:1006300088E10E944F0340E660EE89E10E946F036B
:100640000E94B10240E060EE8FE00E946F030895C7
:10065000863031F0873031F0813031F080E008951C
:1006600081E0089582E0089580E20895882339F0BA
:100670000E94280340E0682F8CE20E946F030895D7
:10068000CF93C82FC49883E00E9495038C2F0E94BB
:10069000950380E00E949503C49ACF910895CF936B
:1006A000DF93D82FC62FC49882E00E9495038D2F28
:1006B0000E9495038C2F0E949503C49ADF91CF91DD
:1006C0000895C49880EA0E94950380E00E949503F3
:1006D000C49A0895C4980E949503C49A08951F93DC
:1006E000CF93DF93182FD62FC42FC49885E00E9494
:1006F0009503812F0E9495038D2F0E9495038C2FC7
:100700000E949503C49ADF91CF911F910895C498D8
:1007100080EC0E949503C49A0895BD9ABE98BF9A32
:10072000BC9A8DB181658DB908958FB9779BFECF45
:100730008FB108955D9BFECF8CB908955F9BFECF6E
:100740008CB1089510BC8FE089B988E18AB98EE830
:1007500080BD6EE973E08AE993E00E94950D0895EB
:10076000B9980895843008F083E084608093001481
:10077000B199FECF809100140895BA98BB9808955E
:100780000F931F93CF93DF938C01EB0181E00E94C5
:10079000B203F801848380E00E94B2038C83DF916E
:1007A000CF911F910F910895CF93DF93EC010E9499
:1007B000590640E060E08DE391E00E94CD0540E005
:1007C00062E08EE491E00E94CD0540E063E08FE5B9
:1007D00091E00E94CD058C81882349F0BE016F5EB7
:1007E0007F4FCE010C960E94C00381E001C080E0E3
:1007F000DF91CF91089583333CF491E08E3C0CF06F
:1008000090E0892F8195089581E00895FF920F93DC
:100810001F93CF93DF93EC018B0181E00E94B20321
:10082000888380E00E94B203F801808348812C8194
:10083000241788F0622F70E050E0461B570B24E627
:10084000249FC001259F900D1124615071090E94C1
:10085000090D698311C030E050E0421B530B64E680
:10086000649FC001659F900D11246FEF70E0621BC3
:10087000730B0E94090D6983F801408124812417BC
:1008800088F0622F70E050E0461B570B24E6249F4F
:10089000C001259F900D1124615071090E94090D1E
:1008A000618312C030E050E0421B530B64E6649F4A
:1008B000C001659F900D11246FEF70E0621B730BF8
:1008C0000E94090DF801618389810E94FB03F82EC3
:1008D000F80181810E94FB039A819F1511F0FB8230
:1008E00001C01B82F8019281981711F0838302C026
:1008F000F8011382FA82F8018283DF91CF911F9170
:100900000F91FF900895FF920F931F93CF93DF9362
:100910008C01EB0183E00E94B203F82E82E00E947A
:10092000B203682F70E0F801208130E0A9014B503C
:100930005109641775072CF0255F3F4F26173707BD
:100940003CF5F8018083660F771F882777FD809537
:10095000982F0E947D0C23E333E343E250E40E948E
:10096000E20B20E030E048EC52E40E947D0B0E9454
:100970004A0CF801618363321CF48FEF828308C054
:10098000623424F081E0F801828302C0F80112820F
:100990006F2D70E0888190E09C012B503109621727
:1009A000730724F00B96861797071CF5F882660FDD
:1009B000771F882777FD8095982F0E947D0C23E371
:1009C00033E343E250E40E94E20B20E030E048ECE5
:1009D00052E40E947D0B0E944A0C698363321CF42E
:1009E0008FEF8A8306C062341CF081E08A8301C0E5
:1009F0001A82DF91CF911F910F91FF900895DC0132
:100A0000FB0111961C921197118296B38C919470F0
:100A1000891769F081110BC081E011968C931197B1
:100A200012968C9112978F5F12968C93129796B3B1
:100A300080819870981739F0811105C081E0818319
:100A400082818F5F828386B384708C9386B3887033
:100A500080830895CF93DF93EC01BC016F5E7F4FDD
:100A60000C960E940604BE01675F7F4FCE0106967A
:100A70000E948304BE016D5F7F4FCE010E94FF0480
:100A8000DF91CF910895EF92FF920F931F93CF9331
:100A9000DF9380E791E09F938F930E94E00D0E9487
:100AA000850D7C010E948A0D0F900F90C0E0D8E167
:100AB00000E010E00E94850D88839881981711F05E
:100AC0000F5F1F4F2196C11580E2D80799F7C70124
:100AD0000E948A0DC0E0D8E1E12CF12C0E94850D26
:100AE0009881981719F08FEFE81AF80A2196C11526
:100AF00080E2D80799F7FF92EF921F930F9388E84F
:100B000091E09F938F930E94E00D0F900F900F90B4
:100B10000F900F900F90DF91CF911F910F91FF9049
:100B2000EF90089585B7806885BF80B7806280BFE9
:100B30000E9443050895803108F08FE08770806B34
:100B4000E0E0F0E18083108280E180830895A62FA9
:100B5000B0E0D896A295B295B07FBA27A07FBA2709
:100B6000A40FB11DAA0FBB1FAA0FBB1FAA0FBB1F4B
:100B700028E0829FC00111248A1B9B0B20E030E0FB
:100B800080589040FC01EA0FFB1FE491ED932F5F2A
:100B90003F4F28303105B1F70895CF92DF92EF92A1
:100BA000FF920F931F93CF93DF93EC01E42EF62E69
:100BB00087E0861720F40F2EF7E0FF2EF02D8881B6
:100BC000882309F46DC000E110E00E191109101618
:100BD00011060CF065C0D12CC12C2D2D30E0FE018A
:100BE000E20FF31F90819D3209F047C0FE01E20F32
:100BF000F31F81818E3559F028F48C33C1F08E3388
:100C0000F1F034C0833719F1863749F02FC04D2DEC
:100C10004E0D6F2D8FE70E94A705C39433C04D2D55
:100C20004E0D6F2D80E80E94A705C3942BC04D2D5B
:100C30004E0D6F2D81E80E94A705C39423C04D2D52
:100C40004E0D6F2D82E80E94A705C3941BC04D2D49
:100C50004E0D6F2D83E80E94A705D394C3944D2DAC
:100C60004E0D6F2D84E80E94A7050CC04D2D4E0D32
:100C70006F2D8DE20E94A70505C04D2D4E0D6F2DE5
:100C80000E94A705C394D394FE01EC0DF11D808151
:100C9000882331F02D2D30E0201731070CF49DCF43
:100CA000DF91CF911F910F91FF90EF90DF90CF9048
:100CB000089580E0E82FF0E0F45E10828F5FFACFB5
:100CC000E0E0F0E18EEA808381EA80838AED808330
:100CD00082E1808388EC808388EA80838FE380834D
:100CE00085ED808380E8808381E8808380E5808350
:100CF00089ED808391E2908380E2808310822BEDE6
:100D0000208320E320832DEA2083108224EA20839D
:100D100026EA2083908310829FEF908322E2208333
:100D20001082908390E490838083108280EB808394
:100D3000108280E180830E94590680E00E949B051A
:100D400080E0A0E0B2E1E82FF0E0F45E90819C93B7
:100D50008F5FF9CFCF93DF93EC0180E290E00E94A8
:100D6000151090E09C838B8381E290E00E94151027
:100D70008D8382E290E00E9415108E8383E290E0E2
:100D80000E9415108F831886DF91CF910895AF923E
:100D9000BF92CF92DF92EF92FF920F931F93CF9368
:100DA000DF93CDB7DEB769970FB6F894DEBF0FBEFD
:100DB000CDBF8C017B01FA018281811103C0848146
:100DC0008E7F8483D70114968C91882319F08481B7
:100DD00081608483D7011A968C911A9785831D961A
:100DE0008C91868384E08283F90182818823B1F02B
:100DF0008381823099F48481813021F4D8011A965C
:100E00008C9309C0811107C0F8018285823019F4E2
:100E1000128612821182D90112961C920E945906E2
:100E2000F8018285813009F477C068F1823009F0D9
:100E300009C140E061E086EE91E00E94CD0540E00E
:100E400063E081EF91E00E94CD05D8018C91882369
:100E500039F040E064E081E092E00E94CD0506C0F8
:100E600040E064E08AE092E00E94CD0540E066E068
:100E700081E192E00E94CD0540E067E081E292E0EE
:100E80000E94CD05DFC040E061E08DE292E00E946B
:100E9000CD0540E063E08CE392E00E94CD05F801CF
:100EA00082818F9381818F930F2EF3E4CF2EF2E016
:100EB000DF2EF02DDF92CF925E01F5E1AF0EB11C77
:100EC000BF92AF920E94210E49E063E0C5010E94EB
:100ED000CD0540E065E086E492E00E94CD05D801B2
:100EE00014968C9114978F9313968C918F93DF9215
:100EF000CF926E01B0E1CB0ED11CDF92CF920E9457
:100F0000210E49E065E0C6010E94CD050FB6F894B8
:100F1000DEBF0FBECDBF96C0818192812381348117
:100F20002817390718F49483838303C08217930723
:100F300068F040E060E08EE492E00E94CD0540E081
:100F400061E089E592E00E94CD0506C040E061E0E5
:100F500085E692E00E94CD0540E063E08CE392E0FC
:100F60000E94CD05F80182818F9381818F930F2E8E
:100F7000F3E4CF2EF2E0DF2EF02DDF92CF925E0170
:100F8000F5E1AF0EB11CBF92AF920E94210E49E075
:100F900063E0C5010E94CD0540E065E086E492E093
:100FA0000E94CD05D80114968C9114978F931396B7
:100FB0008C918F93DF92CF926E01B0E1CB0ED11C5A
:100FC000DF92CF920E94210E49E065E0C6010E94A7
:100FD000CD0540E067E08FE692E00E94CD0540E05D
:100FE00062E0C80105960E94CD050FB6F894DEBFF9
:100FF0000FBECDBFD70114968C91882319F1F8014B
:10100000638174818181928186179707C0F080E2A5
:1010100090E00E941D10D80115966C9181E290E03D
:101020000E941D10F801668182E290E00E941D106E
:10103000D80117966C9183E290E00E941D1082E027
:10104000F8018287D80112968C9112978F9311968E
:101050008C918F9383E492E09F938F938E010F5F27
:101060001F4F1F930F930E94210E40E066E0C801BE
:101070000E94CD050E94590640E063E08DE792E0B2
:101080000E94CD05F7012585822F992787FD909530
:101090009F932F930CE812E01F930F936E01F6E0DD
:1010A000CF0ED11CDF92CF920E94210ED701529613
:1010B0002C91822F992787FD90959F932F931F93B3
:1010C0000F938E01055F1F4F1F930F930E94210EF8
:1010D00040E064E0C6010E94CD0540E065E0C80143
:1010E0000E94CD050FB6F894DEBF0FBECDBF80E0E5
:1010F00069960FB6F894DEBF0FBECDBFDF91CF91DA
:101100001F910F91FF90EF90DF90CF90BF90AF9025
:101110000895CF93DF93CDB7DEB7C454D1090FB68E
:10112000F894DEBF0FBECDBF0E94A2038FE892E00D
:101130000E94F40D0E9492058FE992E00E94F40D46
:101140000E94B0038EEA92E00E94F40D0E946006B5
:101150008CEB92E00E94F40D0E94B6028BEC92E0C0
:101160000E94F40D0E94BD0389ED92E00E94F40DEF
:10117000B89AEAE8F0E08081826080838EEE92E0A7
:101180000E94F40D8EEF92E00E94F40DBE016E5E9F
:101190007F4FCE010D960E94C0031D821C820E94CB
:1011A000FF097C01988F8F8B11E0198FCE01499632
:1011B0000E94AA061EA21FA218A619A61AA680E0BF
:1011C00095E09DA38CA319AA1AAB80E091E098AB9F
:1011D0008FA71CAEB12C0F2EF1E0CF2EF3E0DF2E47
:1011E000F02D992493946894AA24A1F80F2EF8E87E
:1011F0006F2E712CF02DCE0101960E942A050E94BF
:10120000A702182F863059F0873079F0813091F499
:10121000DF92CF920E94E00D0F900F900BC060E61E
:10122000CE01CA960E944D0205C060E7CE01CA9663
:101230000E944D02812F0E9436038A81882311F07B
:10124000F88EEF8AEF89F88D408150E048305105E3
:1012500008F05DC0FA01E85CFF4F0C941D0DBE0163
:101260006F5F7F4FCE0147960E94070B8BA98823A3
:1012700009F44DC0A9AA1BAA4AC0898D813031F456
:101280008BA9813051F0A9AA9BAA07C0811105C082
:101290008BA9823011F0A9AAABAA9E01265C3F4F10
:1012A000AE014C5D5F4FBE016F5F7F4FCE0149962F
:1012B0000E94C706882359F1F88EEF8A28C0BE0124
:1012C0006F5F7F4FCE0149960E94B8098823F9F0DD
:1012D000F88EEF8A1CC0CE0101960E94D4038823A9
:1012E000B1F0F88EEF8A13C0998EF88EEF8A0FC096
:1012F000198EF88EEF8A0BC060E080E290E00E94C9
:101300001D10CE0149960E94AA06F88EEF8AF301BD
:10131000808191818130984208F46DCFB39489E83F
:10132000B89E812D11248295869587709B2D2CE384
:10133000829F90191124911104C098B381E08927EC
:1013400088BB89A9882329F0CE018F960E9440028C
:1013500019AA8EA1882329F0CE0184960E9440020A
:101360001EA20E949D06109289001092880039CF1B
:10137000EF92FF920F931F93CF93DF9300D000D093
:101380001F92CDB7DEB78C017B010E94590640E069
:1013900060E08BE093E00E94CD0540E061E08CE1ED
:1013A00093E00E94CD05F80182818F9381818F9314
:1013B00083E492E09F938F938E010F5F1F4F1F93E3
:1013C0000F930E94210E46E063E0C8010E94CD0504
:1013D000F70187850F900F900F900F900F900F904F
:1013E000881F8827881F0F900F900F900F900F90E5
:1013F000DF91CF911F910F91FF90EF900895EF92A1
:10140000FF920F931F93CF93DF938FE0EDE2F3E012
:10141000A1E0B4E001900D928A95E1F78FE0ECE352
:10142000F3E0ADE8B4E001900D928A95E1F78FE02A
:10143000EBE4F3E0A7E4B4E001900D928A95E1F7C4
:101440008FE0EAE5F3E0A4E2B4E001900D928A9522
:10145000E1F78FE0E9E6F3E0A3EDB4E001900D924F
:101460008A95E1F78FE0E8E7F3E0AAE6B4E00190BF
:101470000D928A95E1F78FE0E7E8F3E0AEEDB3E097
:1014800001900D928A95E1F78FE0E6E9F3E0A0EB99
:10149000B4E001900D928A95E1F78FE0E5EAF3E080
:1014A000ABEBB3E001900D928A95E1F71092350411
:1014B0001092340403E000932204EEEFF3E0F09383
:1014C0003704E09336042AE834E03093390420935B
:1014D000380484E494E090933B0480933A0411E050
:1014E000109323040F2EF1E2EF2EF4E0FF2EF02DE7
:1014F000D7011C92F0921204E09211040093FF03B2
:1015000060ED74E07093140460931304C7E6D4E0B4
:10151000D0931604C093150448EB53E0509318047D
:1015200040931704109300041082F093E404E093B6
:10153000E3041092D1041093D204DB010C93F093D6
:10154000CC03E093CB031092B9031093BA0367E086
:10155000DA016C93F0937B04E0937A0462E0609389
:1015600068044BED53E050937D0440937C04EDEA16
:10157000F4E0F0937F04E0937E04109369041882F2
:10158000D093EF03C093EE031092DC031093DD03BE
:1015900075E0DA017C93D093C104C093C00410922B
:1015A000AE041093AF0446E04083F0929E04E092B4
:1015B0009D0410928B0410938C04F9011083F09217
:1015C0005804E09257041092450410934604DC013D
:1015D0006C93C701DF91CF911F910F91FF90EF9016
:1015E0000895FB012381222389F0FC012081FB0166
:1015F0003281231B19F4FC0140830895421718F02F
:10160000FC012083089521E0FC0120830895EF92DE
:10161000FF920F931F93CF93DF938C017B01DC012B
:101620008D919C916F5E7F4FFC01418102960E94DB
:10163000F10A0E945906D8018D919C9140E060E02A
:1016400003960E94CD05D801ED91FC9121812223C2
:1016500071F1C1E0D0E06281862F90E08C179D0788
:1016600031F440E084EB93E00E94CD0506C040E0F9
:101670006C2F89E193E00E94CD05F8018081918172
:10168000FE013197EE0FFF1FE80FF91F858996893C
:1016900042E06C2F03960E94CD052196D801ED9172
:1016A000FC912181822F90E08C179D07A4F6D70131
:1016B0001F968C9118168CF482818823B9F0281714
:1016C000A8F090E00197880F991FE80FF91F85890E
:1016D0009689F8019183808309C088233CF483892B
:1016E0009489009719F0D8018D939C93DF91CF9145
:1016F0001F910F91FF90EF9008955058BB27AA2794
:101700000ED04DC13ED130F043D120F031F49F3F97
:1017100011F41EF433C10EF4E095E7FB29C1E92F63
:101720004FD180F3BA17620773078407950718F043
:1017300071F49EF567C10EF4E0950B2EBA2FA02D23
:101740000B01B90190010C01CA01A0011124FF276E
:10175000591B99F0593F50F4503E68F11A16F04069
:10176000A22F232F342F4427585FF3CF4695379568
:101770002795A795F0405395C9F77EF41F16BA0B2D
:10178000620B730B840BBAF09150A1F0FF0FBB1FDB
:10179000661F771F881FC2F70EC0BA0F621F731F24
:1017A000841F48F4879577956795B795F7959E3F81
:1017B00008F0B3CF9395880F08F09927EE0F97950F
:1017C000879508950CD0EBC0E3D040F0DAD030F02C
:1017D00021F45F3F19F0CCC0511115C1CFC0F0D03A
:1017E00098F39923C9F35523B1F3951B550BBB27E8
:1017F000AA2762177307840738F09F5F5F4F220F95
:10180000331F441FAA1FA9F333D00E2E3AF0E0E88D
:1018100030D091505040E695001CCAF729D0FE2FD9
:1018200027D0660F771F881FBB1F2617370748076B
:10183000AB07B0E809F0BB0B802DBF01FF27935821
:101840005F4F2AF09E3F510568F092C0DCC05F3FB9
:10185000ECF3983EDCF3869577956795B795F79509
:101860009F5FC9F7880F911D9695879597F9089501
:10187000E1E0660F771F881FBB1F6217730784079D
:10188000BA0720F0621B730B840BBA0BEE1F88F7AC
:10189000E095089504D06894B111B5C0089598D02A
:1018A00088F09F5790F0B92F9927B751A0F0D1F049
:1018B000660F771F881F991F1AF0BA95C9F712C0D3
:1018C000B13081F09FD0B1E008959CC0672F782F90
:1018D0008827B85F39F0B93FCCF38695779567953F
:1018E000B395D9F73EF490958095709561957F4FAB
:1018F0008F4F9F4F0895E89409C097FB3EF4909551
:101900008095709561957F4F8F4F9F4F9923A9F0D8
:10191000F92F96E9BB279395F69587957795679567
:10192000B795F111F8CFFAF4BB0F11F460FF1BC0AB
:101930006F5F7F4F8F4F9F4F16C0882311F096E93E
:1019400011C0772321F09EE8872F762F05C06623EC
:1019500071F096E8862F70E060E02AF09A95660FA5
:10196000771F881FDAF7880F9695879597F908955E
:1019700097F99F6780E870E060E008959FEF80EC42
:10198000089500240A9416161706180609060895E5
:1019900000240A9412161306140605060895092E4B
:1019A0000394000C11F4882352F0BB0F40F4BF2BBA
:1019B00011F460FF04C06F5F7F4F8F4F9F4F0895FA
:1019C00057FD9058440F551F59F05F3F71F04795F0
:1019D000880F97FB991F61F09F3F79F087950895D5
:1019E000121613061406551FF2CF4695F1DF08C0F4
:1019F000161617061806991FF1CF86957105610511
:101A000008940895E894BB2766277727CB0197F9B8
:101A1000089597FB072E16F4009407D077FD09D0A0
:101A20000E94230D07FC05D03EF4909581959F4FB1
:101A30000895709561957F4F0895EE0FFF1F0590F3
:101A4000F491E02D0994AA1BBB1B51E107C0AA1F0A
:101A5000BB1FA617B70710F0A61BB70B881F991F4F
:101A60005A95A9F780959095BC01CD0108958F9264
:101A70009F92AF92BF92CF92DF92EF92FF92CF935D
:101A8000DF93EC01688179818A819B816115710501
:101A90008105910521F464E279ED8BE597E02DE174
:101AA00033EF41E050E00E941A1249015A019B01B4
:101AB000AC01A7EAB1E40E9439126B017C01ACEEE3
:101AC000B4EFA50194010E944712C60ED71EE81E6E
:101AD000F91EF7FE06C081E0C81AD108E10880E8C7
:101AE000F80AC882D982EA82FB82C6019F77DF9119
:101AF000CF91FF90EF90DF90CF90BF90AF909F90ED
:101B00008F9008950E94370D089580E091E00E9423
:101B1000370D0895A0E0B0E080930001909301019B
:101B2000A0930201B093030108950F931F93CF93E5
:101B3000DF93EC018B01009731F46115710519F405
:101B400080E090E038C06EE070E081E090E00E94BC
:101B50002A10FC010097A1F380E883830115110589
:101B600071F01387028781E883838091F304909159
:101B7000F404892B21F4F093F404E093F304209708
:101B8000C9F0D187C0878381826083838091F50407
:101B90009091F604892B71F4F093F604E093F50428
:101BA0008091F7049091F804892B21F4F093F804C4
:101BB000E093F704CF01DF91CF911F910F9108952A
:101BC000A0E0B0E0E6EEFDE00C945C12FE0135967C
:101BD00061917191AF018091F5049091F6040E949A
:101BE000430EE2E00C9478120F931F93CF93DF9390
:101BF000E091F504F091F604238121FF1BC0EC0174
:101C000000E010E089916091F5047091F604DB0129
:101C10001896ED91FC911997882331F00995892B3D
:101C200089F30FEF1FEFEECF8AE00995892B11F4AE
:101C3000C80102C08FEF9FEFDF91CF911F910F91ED
:101C40000895AEE0B0E0E7E2FEE00C945A120D8990
:101C50001E8986E08C831A8309838FEF9FE79E831A
:101C60008D83AE01475E5F4F6F89788DCE010196FF
:101C70000E94430EEF81F885E00FF11F10822E962F
:101C8000E4E00C947612ACE0B0E0E9E4FEE00C9401
:101C90004C127C016B018A01FC0117821682838140
:101CA00081FFBDC1CE0101964C01F7019381F60180
:101CB00093FD859193FF81916F01882309F4ABC156
:101CC000853239F493FD859193FF81916F018532BF
:101CD00029F4B70190E00E948A11E7CF512C312CF2
:101CE00020E02032A0F48B3269F030F4803259F0D9
:101CF000833269F420612CC08D3239F0803339F49D
:101D0000216026C02260246023C0286021C027FDF6
:101D100027C030ED380F3A3078F426FF06C0FAE0DD
:101D20005F9E300D1124532E13C08AE0389E300D73
:101D30001124332E20620CC08E3221F426FD6BC19B
:101D4000206406C08C3611F4206802C0883641F445
:101D5000F60193FD859193FF81916F018111C1CFB0
:101D6000982F9F7D9554933028F40C5F1F4FFFE30D
:101D7000F9830DC0833631F0833771F0833509F074
:101D80005BC022C0F801808189830E5F1F4F44240D
:101D90004394512C540115C03801F2E06F0E711CB0
:101DA000F801A080B18026FF03C0652D70E002C05D
:101DB0006FEF7FEFC5012C870E947F112C018301FB
:101DC0002C852F77222E17C03801F2E06F0E711C80
:101DD000F801A080B18026FF03C0652D70E002C02D
:101DE0006FEF7FEFC5012C870E946D112C012C85B0
:101DF0002068222E830123FC1BC0832D90E048160F
:101E00005906B0F4B70180E290E00E948A113A943A
:101E1000F4CFF50127FC859127FE81915F01B70181
:101E200090E00E948A1131103A94F1E04F1A510863
:101E30004114510471F7E5C0843611F0893639F543
:101E4000F80127FF07C060817181828193810C5F57
:101E50001F4F08C060817181882777FD8095982F7A
:101E60000E5F1F4F2F76B22E97FF09C09095809579
:101E7000709561957F4F8F4F9F4F2068B22E2AE05B
:101E800030E0A4010E94BC11A82EA81844C08537D8
:101E900029F42F7EB22E2AE030E025C0F22FF97F00
:101EA000BF2E8F36C1F018F4883579F0B4C0803772
:101EB00019F0883721F0AFC02F2F2061B22EB4FE69
:101EC0000DC08B2D8460B82E09C024FF0AC09F2F3F
:101ED0009660B92E06C028E030E005C020E130E071
:101EE00002C020E132E0F801B7FE07C060817181D5
:101EF000828193810C5F1F4F06C06081718180E0F9
:101F000090E00E5F1F4FA4010E94BC11A82EA818DC
:101F1000FB2DFF77BF2EB6FE0BC02B2D2E7FA514F9
:101F200050F4B4FE0AC0B2FC08C02B2D2E7E05C0B2
:101F30007A2C2B2D03C07A2C01C0752C24FF0DC0E8
:101F4000FE01EA0DF11D8081803311F4297E09C064
:101F500022FF06C07394739404C0822F867809F020
:101F6000739423FD13C020FF06C05A2C731418F479
:101F7000530C5718732C731468F4B70180E290E087
:101F80002C870E948A1173942C85F5CF731410F45A
:101F9000371801C0312C24FF12C0B70180E390E054
:101FA0002C870E948A112C8522FF17C021FF03C0B5
:101FB00088E590E002C088E790E0B7010CC0822F6E
:101FC000867859F021FD02C080E201C08BE227FD36
:101FD0008DE2B70190E00E948A11A51438F4B70190
:101FE00080E390E00E948A115A94F7CFAA94F401FA
:101FF000EA0DF11D8081B70190E00E948A11A110C5
:10200000F5CF332009F451CEB70180E290E00E9471
:102010008A113A94F6CFF7018681978102C08FEF3B
:102020009FEF2C96E2E10C946812E199FECF9FBBE2
:102030008EBBE09A99278DB30895262FE199FECFA4
:102040009FBB8EBB2DBB0FB6F894E29AE19A0FBEF0
:10205000019608950F931F93CF93DF93869F80017E
:10206000879F100D969F100D1124C8010E944610E5
:10207000EC01009729F0A80160E070E00E9478115F
:10208000CE01DF91CF911F910F910895CF93DF93F0
:102090008230910510F482E090E0E091FB04F09131
:1020A000FC0420E030E0A0E0B0E0309739F140815E
:1020B000518148175907B8F04817590771F48281C0
:1020C0009381109729F013969C938E9312972CC0AE
:1020D0009093FC048093FB0427C02115310531F057
:1020E0004217530718F0A901DB0101C0EF019A0163
:1020F000BD01DF010280F381E02DD7CF211531052D
:10210000F9F0281B390B2430310580F48A819B813A
:102110006115710521F0FB019383828304C09093C4
:10212000FC048093FB04FE01329644C0FE01E20FE2
:10213000F31F8193919322503109398328833AC048
:102140002091F9043091FA04232B41F420910601E7
:10215000309107013093FA042093F904209104018F
:10216000309105012115310541F42DB73EB740915D
:10217000080150910901241B350BE091F904F091FD
:10218000FA04E217F307A0F42E1B3F0B28173907B8
:1021900078F0AC014E5F5F4F2417350748F04E0FC3
:1021A0005F1F5093FA044093F9048193919302C006
:1021B000E0E0F0E0CF01DF91CF910895CF93DF937E
:1021C000009709F487C0FC01329713821282C091F4
:1021D000FB04D091FC04209781F420813181280FE9
:1021E000391F8091F9049091FA048217930779F5C9
:1021F000F093FA04E093F9046DC0DE0120E030E0D2
:10220000AE17BF0750F412964D915C9113979D0144
:102210004115510509F1DA01F3CFB383A28340815F
:102220005181840F951F8A179B0771F48D919C91A2
:102230001197840F951F02969183808312968D913A
:102240009C911397938382832115310529F4F09390
:10225000FC04E093FB043EC0D9011396FC93EE937B
:1022600012974D915D91A40FB51FEA17FB0779F402
:1022700080819181840F951F0296D90111969C93BC
:102280008E938281938113969C938E931297E0E0B4
:10229000F0E08A819B81009719F0FE01EC01F9CFF3
:1022A000CE01029628813981820F931F2091F90473
:1022B0003091FA042817390769F4309729F41092FD
:1022C000FC041092FB0402C013821282D093FA0421
:1022D000C093F904DF91CF910895FC0105906150FE
:1022E00070400110D8F7809590958E0F9F1F08952C
:1022F000DC0101C06D9341505040E0F70895FC01AE
:102300006150704001900110D8F7809590958E0F24
:102310009F1F08950F931F93CF93DF93182F092FBB
:10232000EB018B8181FD03C08FEF9FEF20C082FF07
:1023300010C04E815F812C813D81421753077CF490
:10234000E881F9819F012F5F3F4F398328831083F4
:1023500006C0E885F985812F0995892B29F72E81FB
:102360003F812F5F3F4F3F832E83812F902FDF913F
:10237000CF911F910F910895FA01AA27283051F1AA
:10238000203181F1E8946F936E7F6E5F7F4F8F4FA6
:102390009F4FAF4FB1E03ED0B4E03CD0670F781F05
:1023A000891F9A1FA11D680F791F8A1F911DA11DEA
:1023B0006A0F711D811D911DA11D20D009F4689423
:1023C0003F912AE0269F11243019305D3193DEF6CB
:1023D000CF010895462F4770405D4193B3E00FD081
:1023E000C9F7F6CF462F4F70405D4A3318F0495D6C
:1023F00031FD4052419302D0A9F7EACFB4E0A6954F
:102400009795879577956795BA95C9F70097610570
:10241000710508959B01AC010A2E069457954795C6
:1024200037952795BA95C9F7620F731F841F951FBB
:10243000A01D0895052E97FB1EF400940E943112F2
:1024400057FD07D00E94831207FC03D04EF40C9472
:10245000311250954095309521953F4F4F4F5F4F2A
:10246000089590958095709561957F4F8F4F9F4F00
:1024700008950E94A512A59F900DB49F900DA49F52
:10248000800D911D11240895B7FF0C9439120E94FC
:102490003912821B930B08952F923F924F925F92B5
:1024A0006F927F928F929F92AF92BF92CF92DF9264
:1024B000EF92FF920F931F93CF93DF93CDB7DEB7C9
:1024C000CA1BDB0B0FB6F894DEBF0FBECDBF09945D
:1024D0002A88398848885F846E847D848C849B84B4
:1024E000AA84B984C884DF80EE80FD800C811B81C2
:1024F000AA81B981CE0FD11D0FB6F894DEBF0FBEF1
:10250000CDBFED010895A1E21A2EAA1BBB1BFD0150
:102510000DC0AA1FBB1FEE1FFF1FA217B307E407C2
:10252000F50720F0A21BB30BE40BF50B661F771F1A
:10253000881F991F1A9469F76095709580959095FA
:102540009B01AC01BD01CF010895A29FB001B39FD3
:10255000C001A39F700D811D1124911DB29F700DAC
:0C256000811D1124911D0895F894FFCFF7
:10256C00010000000000FD0420004D4350323531C5
:10257C0035206973204E4F5420696E20636F6E6650
:10258C00696775726174696F6E206D6F6465206127
:10259C0066746572207265736574210A0043616C00
:1025AC006962726174696E67204A533A20005072F6
:1025BC00657373205220746F20202020202000632C
:1025CC00616C6962726174652020202020202000DB
:1025DC005374617274696E67205352414D20746557
:1025EC0073742E2E2E0A0D005352414D20746573B8
:1025FC007420636F6D706C657465642077697468A2
:10260C00200A0D253464206572726F727320696E16
:10261C0020777269746520706861736520616E64DF
:10262C00200A0D253464206572726F727320696EF6
:10263C002072657472696576616C2070686173656F
:10264C00200A200A0D004E595454205350494C4C2A
:10265C000044494E204B4F4E54524F4C4C45523A2D
:10266C00004A4F59535449434B0053454E534F5214
:10267C00005354415254205350494C4C205645441D
:10268C0000202020414120534B59544500535049C0
:10269C004C4C4554204B4AD852455200504F454E55
:1026AC00473A0025750052454B4F52443A004E595B
:1026BC002052454B4F5244210047524154554C45F2
:1026CC00524552210044552054415054452100524A
:1026DC00455354415254204D4544204100535049D8
:1026EC004C4C4554204B4A4F5245520025690055DD
:1026FC005341525420696E697420646F6E650053A7
:10270C0052414D20696E697420646F6E65004144BE
:10271C004320696E697420646F6E65004F4C4544AC
:10272C0020696E746920646F6E650043414E2069A8
:10273C006E746920646F6E6500436F6E74726F6C9B
:10274C006C657220696E697420646F6E65005469E3
:10275C006D657220696E697420646F6E65000A0A7B
:10276C000043414E206572726F7200437572726540
:10277C006E742020202020202020200020202020CB
:10278C002020486967682053636F7265004F70742E
:10279C00696F6E7320202020202020004E6577204A
:1027AC0047616D6520202020202000486967682043
:1027BC0073636F726573202020004D61696E206D0C
:1027CC00656E7521202020200052652063616C69A4
:1027DC00622E206A732E200043686F6F736520632E
:1027EC006E74726C722E004A6F79737469636B200D
:1027FC0020202020200053656E736F722020202033
:10280C00202020200044656C65746520482E532ED2
:08281C00202020002D730000B4
:00000001FF
