:100000000C94D3010C94F0010C94F0010C94F001C9
:100010000C94F0010C94F0010C94F0010C94F0019C
:100020000C94F0010C94F0010C94F0010C94F0018C
:100030000C94F0010C94F0010C94F0010C94F0017C
:100040000C94F0010C94F0010C94F0010C94F0016C
:100050000C94F0010C94F0010C94F0010C94F0015C
:100060000C94F0010C94F0010C94F0010C94F0014C
:10007000C208D008F408000909090D091109000097
:1000800000000000000000065F5F0600000000079F
:10009000070007070000147F7F147F7F1400242EC1
:1000A0006B6B3A120000466630180C666200307ABC
:1000B0004F5D377A48000407030000000000001C71
:1000C0003E63410000000041633E1C000000082A1E
:1000D0003E1C1C3E2A0808083E3E0808000000A0FE
:1000E000E0600000000008080808080800000000A0
:1000F0006060000000006030180C060301003E7FC5
:10010000594D7F3E000042427F7F404000006273B5
:1001100059496F660000226349497F360000181C68
:1001200016137F7F1000276745457D3900003C7E10
:100130004B4979300000036371190F070000367FC7
:1001400049497F360000064F49693F1E0000000004
:100150006C6C0000000000A0EC6C00000000081CAB
:1001600036634100000014141414141400000041FC
:1001700063361C080000020351590F0600003E7F41
:10018000415D5D1F1E007C7E13137E7C0000417F5D
:100190007F49497F36001C3E634141632200417F15
:1001A0007F41637F1C00417F7F495D416300417F48
:1001B0007F491D0103001C3E6341517372007F7F24
:1001C00008087F7F000000417F7F41000000307001
:1001D00040417F3F0100417F7F081C776300417FE2
:1001E0007F41406070007F7F060C067F7F007F7F2D
:1001F000060C187F7F001C3E6341633E1C00417F5C
:100200007F49090F06001E3F21717F5E0000417F7C
:100210007F19396F460026674D597B320000034134
:100220007F7F410300007F7F40407F7F00001F3FB2
:1002300060603F1F00007F7F3018307F7F00637752
:100240001C081C776300074F78784F07000067731E
:10025000594D47637100007F7F4141000000010359
:10026000060C183060000041417F7F000000080C40
:100270000603060C0800808080808080808000005B
:10028000030704000000207454543C784000413FB0
:100290007F44447C3800387C44446C28000030782B
:1002A00048493F7F4000387C54545C180000487E29
:1002B0007F490302000098BCA4A4F87C0400417F9D
:1002C0007F08047C780000447D7D4000000040C42D
:1002D00084FD7D000000417F7F10386C44000041A8
:1002E0007F7F400000007C7C0C180C7C78007C7CBC
:1002F00004047C780000387C44447C38000084FC92
:10030000F8A4243C1800183C24A4F8FC8400447C85
:1003100078441C180000485C545474240000000405
:100320003E7F442400003C7C40403C7C40001C3C20
:1003300060603C1C00003C7C6030607C3C00446C95
:100340003810386C44009CBCA0A0FC7C00004C64BD
:10035000745C4C64000008083E77414100000000D6
:100360000077770000004141773E08080000020353
:10037000010302030100080C7E7F7E0C08000818B0
:100380003F7F3F180800081C3E7F1C1C1C00001CFF
:100390001C7F3E1C0800000070187DB6BC3CBCB63B
:1003A0007D187000000011241FBECFEFD4E0DEBF27
:1003B000CDBF12E0A0E0B1E0E4E7F3E202C00590B7
:1003C0000D92AA3EB107D9F724E0AAEEB2E001C02F
:1003D0001D92AF32B207E1F70E942A080C94B811BF
:1003E0000C940000FF920F931F93CF93DF93EC01C7
:1003F000F62E88819981BC017695679576956795EB
:100400007695679581E08F0D0E9451036881629512
:10041000660F607E82E08F0D0E9451036A8185E045
:100420008F0D0E9451038A81882379F010E006E045
:100430000F0DFE01E10FF11D6381802F810F0E94DE
:1004400051031F5F8A811817A0F380E3F81204C0DC
:1004500081E80E946C030DC080E4F81204C082E8B9
:100460000E946C0306C080E5F81203C084E80E9475
:100470006C03DF91CF911F910F91FF900895CF935F
:10048000DF93EC010E94630360E3CE010E94F2015E
:1004900081E0DF91CF910895EF92FF920F931F9328
:1004A000CF93DF938C01E62E0E9463032E2D2295BD
:1004B0002F70265041E050E0BA0102C0660F771F4E
:1004C0002A95E2F79B01282B232B91F181E08E0DD9
:1004D0000E94420378E0879FE0011124F801D18354
:1004E000C08382E08E0D0E944203829586958770BC
:1004F000C82BF801D183C08385E08E0D0E94420392
:100500008F70F80182838823A9F0E8012396F12CEB
:10051000F6E0EF0E8E2D8F0D0E9442038993F39427
:10052000F8018281F81640F4F8E0FF12F3CF06C01C
:1005300080E005C081E003C081E001C081E0DF917F
:10054000CF911F910F91FF90EF900895839906C06E
:100550008EE00E9442038E708695089580E0089593
:1005600060E08CE20E94510308958B980E948F03F3
:100570000E94890381E28A95F1F78EE00E9442038E
:10058000807E803821F086E091E00E945B0D40E2A1
:1005900060E680E60E94710344E064E080E60E9429
:1005A000710340E260E680E70E94710363E28BE240
:1005B0000E94510360EC80E20E94510340E260EE31
:1005C00081E20E94710360EC84E20E94510340E6E4
:1005D00060EE85E20E94710360E480E00E945103B6
:1005E00040E060EE81E00E94710360E484E00E94DC
:1005F000510340E260EE85E00E94710360EC88E008
:100600000E94510340E060EE89E00E94710360ECBB
:1006100080E10E94510340E260EE81E10E9471039B
:1006200060EC84E10E94510340E460EE85E10E94A9
:10063000710360EC88E10E94510340E660EE89E1BD
:100640000E9471030E94B00240E060EE8FE00E94C1
:1006500071030895863031F0873031F0813031F008
:1006600080E0089581E0089582E0089580E2089591
:10067000882339F00E942A0340E0682F8CE20E9410
:1006800071030895CF93C82FC49883E00E94970305
:100690008C2F0E94970380E00E949703C49ACF9109
:1006A0000895CF93DF93D82FC62FC49882E00E947D
:1006B00097038D2F0E9497038C2F0E949703C49A53
:1006C000DF91CF910895C49880EA0E94970380E05B
:1006D0000E949703C49A0895C4980E949703C49AED
:1006E00008951F93CF93DF93182FD62FC42FC4984C
:1006F00085E00E949703812F0E9497038D2F0E940F
:1007000097038C2F0E949703C49ADF91CF911F917A
:100710000895C49880EC0E949703C49A0895BD9AE6
:10072000BE98BF9ABC9A8DB181658DB908958FB975
:10073000779BFECF8FB108955D9BFECF8CB9089556
:100740005F9BFECF8CB1089510BC8FE089B988E122
:100750008AB98EE880BD60EA73E08CE993E00E947C
:10076000FC0C0895B9980895843008F083E0846003
:1007700080930014B199FECF809100140895BA9827
:10078000BB9808950F931F93CF93DF938C01EB01D8
:1007900081E00E94B403F801848380E00E94B403E6
:1007A0008C83DF91CF911F910F910895CF93DF93A9
:1007B000EC010E942C0640E060E089E391E00E9499
:1007C000B90540E062E08AE491E00E94B90540E0AA
:1007D00063E08BE591E00E94B9058C81882349F0A4
:1007E000BE016F5E7F4FCE010C960E94C20381E076
:1007F00001C080E0DF91CF91089583333CF491E014
:100800008E3C0CF090E0892F8195089581E0089549
:10081000FF920F931F93CF93DF93EC018B0181E045
:100820000E94B403888380E00E94B403F8018083AF
:1008300048812C81241788F0622F70E050E0461B1D
:10084000570B24E6249FC001259F900D1124615071
:1008500071090E94CE0C698311C030E050E0421B48
:10086000530B64E6649FC001659F900D11246FEFE8
:1008700070E0621B730B0E94CE0C6983F80140810B
:100880002481241788F0622F70E050E0461B570B3C
:1008900024E6249FC001259F900D11246150710909
:1008A0000E94CE0C618312C030E050E0421B530B1B
:1008B00064E6649FC001659F900D11246FEF70E0A6
:1008C000621B730B0E94CE0CF801618389810E9428
:1008D000FD03F82EF80181810E94FD039A819F1586
:1008E00011F0FB8201C01B82F8019281981711F070
:1008F000838302C0F8011382FA82F8018283DF91B8
:10090000CF911F910F91FF900895FF920F931F9326
:10091000CF93DF938C01EB0183E00E94B403F82EA8
:1009200082E00E94B403682F70E0F801208130E07B
:10093000A9014B505109641775072CF0255F3F4FF3
:10094000261737073CF5F8018083660F771F882745
:1009500077FD8095982F0E94420C23E333E343E216
:1009600050E40E94A70B20E030E048EC52E40E94E3
:10097000420B0E940F0CF801618363321CF48FEF6D
:10098000828308C0623424F081E0F801828302C0CF
:10099000F80112826F2D70E0888190E09C012B504D
:1009A00031096217730724F00B96861797071CF519
:1009B000F882660F771F882777FD8095982F0E9411
:1009C000420C23E333E343E250E40E94A70B20E010
:1009D00030E048EC52E40E94420B0E940F0C698305
:1009E00063321CF48FEF8A8306C062341CF081E00E
:1009F0008A8301C01A82DF91CF911F910F91FF90DE
:100A00000895DC01FB0111961C921197118296B397
:100A10008C919470891769F081110BC081E0119657
:100A20008C93119712968C9112978F5F12968C93DC
:100A3000129796B380819870981739F0811105C08C
:100A400081E0818382818F5F828386B384708C93FF
:100A500086B3887080830895CF93DF93EC01BC0147
:100A60006F5E7F4F0C960E940804BE01675F7F4F48
:100A7000CE0106960E948504BE016D5F7F4FCE01B8
:100A80000E940105DF91CF91089585B7806885BFE9
:100A900080B7806280BF0895E0E0F0E18EEA808355
:100AA00081EA80838AED808382E1808388EC808381
:100AB00088EA80838FE3808385ED808380E880836C
:100AC00081E8808380E5808389ED808391E2908353
:100AD00080E2808310822BED208320E320832DEAA7
:100AE0002083108224EA208326EA208390831082C8
:100AF0009FEF908322E220831082908390E4908382
:100B00008083108280EB8083108280E180838FEA73
:100B100080830895803108F08FE08770806BE0E07B
:100B2000F0E18083108280E180830895A62FB0E0F9
:100B3000D896A295B295B07FBA27A07FBA27A40F06
:100B4000B11DAA0FBB1FAA0FBB1FAA0FBB1F28E016
:100B5000829FC00111248A1B9B0B20E08258904089
:100B6000FC01EA0FFB1FE491ED932F5F2830C1F7E2
:100B70000895FF920F931F93CF93DF93EC01142FEF
:100B8000F62E87E0861720F40F2EF7E0FF2EF02DCB
:100B90008881882309F45AC0103108F057C020E03A
:100BA00030E000E08D3209F040C0FE01E20FF31F9B
:100BB00081818E3559F028F48C33B1F08E33D9F021
:100BC0002EC08337F9F0863741F029C0412F6F2DB1
:100BD0008FE70E9496050F5F2CC0412F6F2D80E894
:100BE0000E9496050F5F25C0412F6F2D81E80E945E
:100BF00096050F5F1EC0412F6F2D82E80E9496055B
:100C00000F5F17C0412F6F2D83E80E9496051F5F6D
:100C10000F5F412F6F2D84E80E9496050AC0412F77
:100C20006F2D8DE20E94960504C0412F6F2D0E940A
:100C300096050F5F1F5F202F30E0FE01E20FF31FCC
:100C40008081882319F0103108F4ACCFDF91CF9167
:100C50001F910F91FF900895E0E0FCE11192E115E2
:100C600080E2F807D9F7089580E00E948A05E0E065
:100C7000FCE1A0E0B2E181918C93E11580E2F807FC
:100C8000D1F70895CF93DF93EC0180E290E00E94CA
:100C90007C0F90E09C838B8381E290E00E947C0F2C
:100CA0008D8382E290E00E947C0F8E8383E290E04D
:100CB0000E947C0F8F83DF91CF910895FC01DB01AF
:100CC0001F968C91181624F481858F5F818705C04B
:100CD00088231CF48185815081878185833019F4B4
:100CE00080E2818704C0843010F082E08187DB01DC
:100CF00054968C9118165CF48185DF01A80FB11D04
:100D000015968C9115978F5F15968C930CC0882340
:100D100054F48185DF01A80FB11D15968C911597AC
:100D2000815015968C93818590E0DF01A80FB91F43
:100D300015962C911597253820F0FD0181E28583C9
:100D40000895213220F4E80FF91F84E8858308957F
:100D5000AF92BF92CF92DF92EF92FF920F931F93C9
:100D6000CF93DF93CDB7DEB72A970FB6F894DEBFE7
:100D70000FBECDBF7C016B018A015901FA0182814E
:100D8000811103C084818E7F8483F601848188234E
:100D900021F0F801848181608483F6018285F80165
:100DA0008583F6018585F801868384E08283F501D9
:100DB00082818823A1F08381823089F4848181300B
:100DC00019F4F701828709C0811107C0F7018285F4
:100DD000823019F4128612821182F50112820E9469
:100DE0002C06F7018285813009F483C008F440C0E5
:100DF0008230A1F0833009F01BC1FFEF2FE781E0C3
:100E0000F15020408040E1F700C000C0F50112829F
:100E1000F801128282E0F70182870AC140E061E0B6
:100E20008CE691E00E94B90540E063E087E791E03D
:100E30000E94B905F7018081882339F040E064E021
:100E400087E891E00E94B90506C040E064E080E9CF
:100E500091E00E94B90540E066E087E991E00E94D8
:100E6000B90540E067E087EA91E00E94B905E0C07B
:100E700040E061E083EB91E00E94B90540E063E06F
:100E800082EC91E00E94B905F70182818F93818104
:100E90008F9309EC11E01F930F936E01F6E0CF0ED4
:100EA000D11CDF92CF920E94880D49E063E0C60119
:100EB0000E94B90540E065E08CEC91E00E94B90524
:100EC000F70184818F9383818F931F930F938E01FA
:100ED0000F5F1F4F1F930F930E94880D49E065E03D
:100EE000C8010E94B9050FB6F894DEBF0FBECDBF92
:100EF0009FC0F701818192812381348128173907AE
:100F000068F49483838340E064E084ED91E00E9480
:100F1000B90581E6F701858386838783F7012181FF
:100F200032818381948128173907B8F040E060E06E
:100F30008CED91E00E94B90540E061E087EE91E020
:100F40000E94B905B601C7010E945E0640E062E05A
:100F5000C70105960E94B90506C040E061E083EF35
:100F600091E00E94B90540E063E08DEF91E00E94BE
:100F7000B905F70182818F9381818F9309EC11E08C
:100F80001F930F935E01F6E0AF0EB11CBF92AF92BC
:100F90000E94880D49E063E0C5010E94B90540E068
:100FA00065E085E092E00E94B905F70184818F93A6
:100FB00083818F931F930F938E010F5F1F4F1F939A
:100FC0000F930E94880D49E065E0C8010E94B905B1
:100FD00040E067E08DE092E00E94B9050FB6F8941A
:100FE000DEBF0FBECDBFF6018481882309F1F70172
:100FF000638174818181928186179707B0F080E2C6
:1010000090E00E94840FF701658181E290E00E94E8
:10101000840FF701668182E290E00E94840FF7015D
:10102000678183E290E00E94840F83E0F70182876A
:1010300080E02A960FB6F894DEBF0FBECDBFDF91D9
:10104000CF911F910F91FF90EF90DF90CF90BF90C5
:10105000AF900895CF93DF93CDB7DEB7C454D109D5
:101060000FB6F894DEBF0FBECDBFB89A0E94A4039E
:101070000E9445050E94B203C09A0E944C050E943E
:10108000B5020E94BF03B89AEAE8F0E0808182606E
:101090008083BE016E5E7F4FCE010D960E94C2031B
:1010A0001D821C820E94C4097C01988F8F8B11E0E5
:1010B000198F1B8E1A8E83E08BA3CE0149960E9456
:1010C00042061EA21FA218A619A61AA680E095E045
:1010D0009DA38CA319AA1AAB80E091E098AB8FA7CF
:1010E0001CAE8BE192E09F938F930E94470D0F906F
:1010F0000F90B12C0F2EFDE2CF2EF2E0DF2EF02D5F
:10110000992493940F2EF3E08F2EF02D6894AA2447
:10111000A1F80F2EF8E86F2E712CF02DCE0101965C
:101120000E942C050E94A602182F863059F08730A5
:1011300079F0813091F4DF92CF920E94470D0F90A9
:101140000F900BC060E6CE01CA960E944C0205C00B
:1011500060E7CE01CA960E944C02812F0E9438039C
:101160008A81882311F0F88EEF8AEF89F88D40810B
:1011700050E04730510508F06EC0FA01E85CFF4FBF
:101180000C94E20CBE016F5F7F4FCE0147960E9428
:10119000CC0A8BA9882309F45EC0A9AA1BAA5BC04C
:1011A000898D813039F48BA9813061F08BA2A9AA95
:1011B0009BAA08C0811106C08BA9823019F08BA2AE
:1011C000A9AAABAA9E01265C3F4FAE014C5D5F4FC2
:1011D000BE016F5F7F4FCE0149960E94A80688230B
:1011E000D1F1F88EEF8A37C0BE016F5F7F4FCE011D
:1011F00049960E947309882371F1F88EEF8A2BC0FB
:10120000CE0101960E94D603882329F1F88EEF8A39
:1012100022C0998EF88EEF8A1EC0198EF88EEF8A42
:101220001AC060E080E290E00E94840F6EE481E2E8
:1012300090E00E94840F61E482E290E00E94840FBB
:101240006EE483E290E00E94840FCE0149960E94F2
:101250004206F88EEF8AF3018081918181309842B5
:1012600008F45CCFB39489E8B89E812D112482954F
:10127000869587709B2D2CE3829F901911249111E4
:1012800011C098B381E0892788BB8BA181110AC066
:10129000EF89F88D8081813029F48A8D9B8D0196AC
:1012A0009B8F8A8F89A9882329F0CE018F960E946F
:1012B0003F0219AA8EA1882379F08BA1813061F0B9
:1012C000CE0184960E943F021EA288A5882321F0A9
:1012D00087E392E00E945B0D0E9434061092890021
:1012E000109288000DCFCF92DF92EF92FF920F9372
:1012F0001F93CF93DF9300D000D01F92CDB7DEB7FE
:101300008C016B010E942C0640E060E08DE392E0CE
:101310000E94B90540E061E08EE492E00E94B905C8
:10132000F80184818F9383818F9389EC91E09F935F
:101330008F93CE0101967C01FF928F930E94880DBE
:1013400046E063E0C7010E94B90540E064E0C801DF
:1013500005960E94B905F60187850F900F900F90B2
:101360000F900F900F90881F8827881F0F900F9065
:101370000F900F900F90DF91CF911F910F91FF90E1
:10138000EF90DF90CF900895EF92FF920F931F930D
:10139000CF93DF938FE0EFE5F2E0A3E3B3E00190BA
:1013A0000D928A95E1F78FE0EEE6F2E0AFEBB3E065
:1013B00001900D928A95E1F78FE0EDE7F2E0A9E761
:1013C000B3E001900D928A95E1F78FE0ECE8F2E04E
:1013D000A6E5B3E001900D928A95E1F78FE0EBE985
:1013E000F2E0A5E0B4E001900D928A95E1F78FE07C
:1013F000EAEAF2E0ACE9B3E001900D928A95E1F7F8
:101400008FE0E9EBF2E0A0E1B3E001900D928A9564
:10141000E1F78FE0E8ECF2E0A2EEB3E001900D928C
:101420008A95E1F78FE0E7EDF2E0ADEEB2E00190F2
:101430000D928A95E1F7109267031092660303E01C
:1014400000935403E0E3F3E0F0936903E09368034F
:101450002CEB33E030936B0320936A0386E793E031
:1014600090936D0380936C0311E0109355030F2E3E
:10147000F3E5EF2EF3E0FF2EF02DD7011C92F09252
:101480004403E09243030093310362E074E07093FD
:10149000460360934503C9E9D3E0D0934803C09362
:1014A00047034AEE52E050934A0340934903109396
:1014B00032031082F0931604E09315041092030493
:1014C00010930404DB010C93F093FE02E093FD0201
:1014D0001092EB021093EC0266E0DA016C93F09349
:1014E000AD03E093AC0362E060939A034DE053E0F8
:1014F0005093AF034093AE03EFEDF3E0F093B103ED
:10150000E093B00310939B031882D0932103C09300
:10151000200310920E0310930F0374E0DA017C9302
:10152000D093F303C093F2031092E0031093E1030E
:1015300045E04083F092D003E092CF031092BD03C8
:101540001093BE03F9011083F0928A03E09289039D
:101550001092770310937803DC016C93C701DF913D
:10156000CF911F910F91FF90EF900895FB01238180
:10157000222389F0FC012081FB013281231B19F415
:10158000FC0140830895421718F0FC012083089560
:1015900021E0FC0120830895EF92FF920F931F93A7
:1015A000CF93DF938C017B01DC018D919C916F5E69
:1015B0007F4FFC01418102960E94B60A0E942C06D0
:1015C000D8018D919C9140E060E003960E94B9059E
:1015D000D801ED91FC912181222371F1C1E0D0E08D
:1015E0006281862F90E08C179D0731F440E086EEF3
:1015F00092E00E94B90506C040E06C2F8BE492E0B7
:101600000E94B905F80180819181FE013197EE0FAA
:10161000FF1FE80FF91F8589968942E06C2F03961A
:101620000E94B9052196D801ED91FC912181822F6C
:1016300090E08C179D07A4F6D7011F968C91181681
:101640008CF482818823B9F02817A8F090E00197E4
:10165000880F991FE80FF91F85899689F8019183F2
:10166000808309C088233CF483899489009719F00A
:10167000D8018D939C93DF91CF911F910F91FF9093
:10168000EF9008955058BB27AA270ED04DC13ED1E8
:1016900030F043D120F031F49F3F11F41EF433C1F8
:1016A0000EF4E095E7FB29C1E92F4FD180F3BA177B
:1016B000620773078407950718F071F49EF567C1F8
:1016C0000EF4E0950B2EBA2FA02D0B01B90190015D
:1016D0000C01CA01A0011124FF27591B99F0593FA1
:1016E00050F4503E68F11A16F040A22F232F342FE9
:1016F0004427585FF3CF469537952795A795F04037
:101700005395C9F77EF41F16BA0B620B730B840B4B
:10171000BAF09150A1F0FF0FBB1F661F771F881F03
:10172000C2F70EC0BA0F621F731F841F48F487955B
:1017300077956795B795F7959E3F08F0B3CF93954A
:10174000880F08F09927EE0F9795879508950CD08C
:10175000EBC0E3D040F0DAD030F021F45F3F19F075
:10176000CCC0511115C1CFC0F0D098F39923C9F363
:101770005523B1F3951B550BBB27AA276217730797
:10178000840738F09F5F5F4F220F331F441FAA1F4B
:10179000A9F333D00E2E3AF0E0E830D0915050400B
:1017A000E695001CCAF729D0FE2F27D0660F771FB9
:1017B000881FBB1F261737074807AB07B0E809F09B
:1017C000BB0B802DBF01FF2793585F4F2AF09E3F30
:1017D000510568F092C0DCC05F3FECF3983EDCF34B
:1017E000869577956795B795F7959F5FC9F7880FA9
:1017F000911D9695879597F90895E1E0660F771FFB
:10180000881FBB1F621773078407BA0720F0621B8B
:10181000730B840BBA0BEE1F88F7E095089504D084
:101820006894B111B5C0089598D088F09F5790F092
:10183000B92F9927B751A0F0D1F0660F771F881FF5
:10184000991F1AF0BA95C9F712C0B13081F09FD034
:10185000B1E008959CC0672F782F8827B85F39F0D2
:10186000B93FCCF3869577956795B395D9F73EF454
:1018700090958095709561957F4F8F4F9F4F0895FC
:10188000E89409C097FB3EF490958095709561951A
:101890007F4F8F4F9F4F9923A9F0F92F96E9BB27D0
:1018A0009395F695879577956795B795F111F8CF4C
:1018B000FAF4BB0F11F460FF1BC06F5F7F4F8F4FB7
:1018C0009F4F16C0882311F096E911C0772321F0AD
:1018D0009EE8872F762F05C0662371F096E8862F45
:1018E00070E060E02AF09A95660F771F881FDAF79C
:1018F000880F9695879597F9089597F99F6780E8DF
:1019000070E060E008959FEF80EC089500240A9451
:101910001616170618060906089500240A941216CA
:101920001306140605060895092E0394000C11F4FD
:10193000882352F0BB0F40F4BF2B11F460FF04C0AA
:101940006F5F7F4F8F4F9F4F089557FD9058440F03
:10195000551F59F05F3F71F04795880F97FB991F0E
:1019600061F09F3F79F087950895121613061406CB
:10197000551FF2CF4695F1DF08C016161706180658
:10198000991FF1CF86957105610508940895E89433
:10199000BB2766277727CB0197F9089597FB072E7A
:1019A00016F4009407D077FD09D00E94E80C07FCDC
:1019B00005D03EF4909581959F4F0895709561955F
:1019C0007F4F0895EE0FFF1F0590F491E02D0994CD
:1019D000AA1BBB1B51E107C0AA1FBB1FA617B70755
:1019E00010F0A61BB70B881F991F5A95A9F7809571
:1019F0009095BC01CD0108950F931F93CF93DF9372
:101A0000EC018B01009731F46115710519F480E048
:101A100090E038C06EE070E081E090E00E94910FAD
:101A2000FC010097A1F380E883830115110571F093
:101A30001387028781E8838380912504909126048F
:101A4000892B21F4F0932604E09325042097C9F014
:101A5000D187C0878381826083838091270490919E
:101A60002804892B71F4F0932804E09327048091D3
:101A7000290490912A04892B21F4F0932A04E093FD
:101A80002904CF01DF91CF911F910F910895A0E01C
:101A9000B0E0EDE4FDE00C949111FE01359661910A
:101AA0007191AF0180912704909128040E94AA0DA2
:101AB000E2E00C94AD110F931F93CF93DF93E0916D
:101AC0002704F0912804238121FF1BC0EC0100E0D2
:101AD00010E089916091270470912804DB01189629
:101AE000ED91FC911997882331F00995892B89F3A1
:101AF0000FEF1FEFEECF8AE00995892B11F4C80193
:101B000002C08FEF9FEFDF91CF911F910F9108954A
:101B1000AEE0B0E0EEE8FDE00C948F110D891E8977
:101B200086E08C831A8309838FEF9FE79E838D83E2
:101B3000AE01475E5F4F6F89788DCE0101960E949E
:101B4000AA0DEF81F885E00FF11F10822E96E4E0D8
:101B50000C94AB11ACE0B0E0E0EBFDE00C94811133
:101B60007C016B018A01FC0117821682838181FF4F
:101B7000BDC1CE0101964C01F7019381F60193FDA1
:101B8000859193FF81916F01882309F4ABC1853260
:101B900039F493FD859193FF81916F01853229F48A
:101BA000B70190E00E94F110E7CF512C312C20E0DA
:101BB0002032A0F48B3269F030F4803259F0833255
:101BC00069F420612CC08D3239F0803339F4216002
:101BD00026C02260246023C0286021C027FD27C0C2
:101BE00030ED380F3A3078F426FF06C0FAE05F9EF9
:101BF000300D1124532E13C08AE0389E300D11246D
:101C0000332E20620CC08E3221F426FD6BC120647D
:101C100006C08C3611F4206802C0883641F4F60103
:101C200093FD859193FF81916F018111C1CF982F11
:101C30009F7D9554933028F40C5F1F4FFFE3F98389
:101C40000DC0833631F0833771F0833509F05BC006
:101C500022C0F801808189830E5F1F4F4424439482
:101C6000512C540115C03801F2E06F0E711CF801BF
:101C7000A080B18026FF03C0652D70E002C06FEF29
:101C80007FEFC5012C870E94E6102C0183012C8573
:101C90002F77222E17C03801F2E06F0E711CF80169
:101CA000A080B18026FF03C0652D70E002C06FEFF9
:101CB0007FEFC5012C870E94D4102C012C85206851
:101CC000222E830123FC1BC0832D90E04816590669
:101CD000B0F4B70180E290E00E94F1103A94F4CFA2
:101CE000F50127FC859127FE81915F01B70190E006
:101CF0000E94F11031103A94F1E04F1A510841144A
:101D0000510471F7E5C0843611F0893639F5F801D0
:101D100027FF07C060817181828193810C5F1F4F13
:101D200008C060817181882777FD8095982F0E5FAC
:101D30001F4F2F76B22E97FF09C090958095709512
:101D400061957F4F8F4F9F4F2068B22E2AE030E081
:101D5000A4010E942311A82EA81844C0853729F495
:101D60002F7EB22E2AE030E025C0F22FF97FBF2E61
:101D70008F36C1F018F4883579F0B4C0803719F087
:101D8000883721F0AFC02F2F2061B22EB4FE0DC0D6
:101D90008B2D8460B82E09C024FF0AC09F2F966047
:101DA000B92E06C028E030E005C020E130E002C0D6
:101DB00020E132E0F801B7FE07C0608171818281C5
:101DC00093810C5F1F4F06C06081718180E090E0BD
:101DD0000E5F1F4FA4010E942311A82EA818FB2DEF
:101DE000FF77BF2EB6FE0BC02B2D2E7FA51450F40F
:101DF000B4FE0AC0B2FC08C02B2D2E7E05C07A2C82
:101E00002B2D03C07A2C01C0752C24FF0DC0FE01C0
:101E1000EA0DF11D8081803311F4297E09C022FF73
:101E200006C07394739404C0822F867809F073946B
:101E300023FD13C020FF06C05A2C731418F4530C52
:101E40005718732C731468F4B70180E290E02C8764
:101E50000E94F11073942C85F5CF731410F4371889
:101E600001C0312C24FF12C0B70180E390E02C8721
:101E70000E94F1102C8522FF17C021FF03C088E5C6
:101E800090E002C088E790E0B7010CC0822F86780E
:101E900059F021FD02C080E201C08BE227FD8DE2F6
:101EA000B70190E00E94F110A51438F4B70180E367
:101EB00090E00E94F1105A94F7CFAA94F401EA0D31
:101EC000F11D8081B70190E00E94F110A110F5CFC3
:101ED000332009F451CEB70180E290E00E94F11066
:101EE0003A94F6CFF7018681978102C08FEF9FEF7A
:101EF0002C96E2E10C949D11E199FECF9FBB8EBB25
:101F0000E09A99278DB30895262FE199FECF9FBBC4
:101F10008EBB2DBB0FB6F894E29AE19A0FBE0196E4
:101F200008950F931F93CF93DF93869F8001879F20
:101F3000100D969F100D1124C8010E94AD0FEC01E9
:101F4000009729F0A80160E070E00E94DF10CE0148
:101F5000DF91CF911F910F910895CF93DF9382303E
:101F6000910510F482E090E0E0912D04F0912E04B0
:101F700020E030E0A0E0B0E0309739F140815181BD
:101F800048175907B8F04817590771F482819381AF
:101F9000109729F013969C938E9312972CC09093D0
:101FA0002E0480932D0427C02115310531F04217EE
:101FB000530718F0A901DB0101C0EF019A01BD012F
:101FC000DF010280F381E02DD7CF21153105F9F033
:101FD000281B390B2430310580F48A819B816115DF
:101FE000710521F0FB019383828304C090932E043A
:101FF00080932D04FE01329644C0FE01E20FF31FD0
:102000008193919322503109398328833AC02091DA
:102010002B0430912C04232B41F4209102013091A8
:10202000030130932C0420932B0420910001309164
:1020300001012115310541F42DB73EB7409104014E
:1020400050910501241B350BE0912B04F0912C04D9
:10205000E217F307A0F42E1B3F0B2817390778F07F
:10206000AC014E5F5F4F2417350748F04E0F5F1FDE
:1020700050932C0440932B048193919302C0E0E091
:10208000F0E0CF01DF91CF910895CF93DF930097D8
:1020900009F487C0FC01329713821282C0912D048B
:1020A000D0912E04209781F420813181280F391F8F
:1020B00080912B0490912C048217930779F5F0936B
:1020C0002C04E0932B046DC0DE0120E030E0AE175D
:1020D000BF0750F412964D915C9113979D014115E5
:1020E000510509F1DA01F3CFB383A2834081518115
:1020F000840F951F8A179B0771F48D919C911197FE
:10210000840F951F02969183808312968D919C91E6
:102110001397938382832115310529F4F0932E04BC
:10212000E0932D043EC0D9011396FC93EE931297D1
:102130004D915D91A40FB51FEA17FB0779F48081DB
:102140009181840F951F0296D90111969C938E93CD
:102150008281938113969C938E931297E0E0F0E036
:102160008A819B81009719F0FE01EC01F9CFCE0125
:10217000029628813981820F931F20912B04309180
:102180002C042817390769F4309729F410922E048B
:1021900010922D0402C013821282D0932C04C0939B
:1021A0002B04DF91CF910895FC01059061507040A0
:1021B0000110D8F7809590958E0F9F1F0895DC0130
:1021C00001C06D9341505040E0F70895FC0161500B
:1021D000704001900110D8F7809590958E0F9F1F49
:1021E00008950F931F93CF93DF93182F092FEB01BF
:1021F0008B8181FD03C08FEF9FEF20C082FF10C055
:102200004E815F812C813D81421753077CF4E88128
:10221000F9819F012F5F3F4F39832883108306C0C8
:10222000E885F985812F0995892B29F72E813F8132
:102230002F5F3F4F3F832E83812F902FDF91CF91D0
:102240001F910F910895FA01AA27283051F12031EA
:1022500081F1E8946F936E7F6E5F7F4F8F4F9F4F3A
:10226000AF4FB1E03ED0B4E03CD0670F781F891F7C
:102270009A1FA11D680F791F8A1F911DA11D6A0F4A
:10228000711D811D911DA11D20D009F468943F91FD
:102290002AE0269F11243019305D3193DEF6CF01FC
:1022A0000895462F4770405D4193B3E00FD0C9F7C2
:1022B000F6CF462F4F70405D4A3318F0495D31FD2F
:1022C0004052419302D0A9F7EACFB4E0A695979582
:1022D000879577956795BA95C9F700976105710558
:1022E00008959B01AC010A2E0694579547953795A2
:1022F0002795BA95C9F7620F731F841F951FA01DFC
:1023000008952F923F924F925F926F927F928F9299
:102310009F92AF92BF92CF92DF92EF92FF920F9374
:102320001F93CF93DF93CDB7DEB7CA1BDB0B0FB67E
:10233000F894DEBF0FBECDBF09942A88398848883B
:102340005F846E847D848C849B84AA84B984C884D1
:10235000DF80EE80FD800C811B81AA81B981CE0FC8
:10236000D11D0FB6F894DEBF0FBECDBFED010895AD
:04237000F894FFCF0F
:1023740000002F0420004D4350323531352069735D
:10238400204E4F5420696E20636F6E6669677572C4
:102394006174696F6E206D6F646520616674657227
:1023A400207265736574210A0043616C696272610D
:1023B40074696E67204A533A200050726573732023
:1023C4005220746F2020202020200063616C6962F9
:1023D4007261746520202020202020004E5954541E
:1023E400205350494C4C0044494E204B4F4E5452BC
:1023F4004F4C4C45523A004A4F59535449434B00B1
:1024040053454E534F520053544152542053504954
:102414004C4C2056454400202020414120534B5928
:102424005445005350494C4C4554204B4A4F524557
:102434005200504F454E473A0025750052454B4FC8
:1024440052443A0047524152455221004E592052BB
:10245400454B4F5244210047524154554C45524537
:1024640052210044552054415054452100504F49B5
:102474004E54533A005245436F72443A0052455306
:1024840054415254204D4544204100414C4C204974
:102494004E495420636F6D706C6574650043414E02
:1024A400206572726F720050555348210043757253
:1024B40072656E74202020202020202020002020FF
:1024C40020202020486967682053636F7265004F9D
:1024D4007074696F6E7320202020202020004E65C8
:1024E400772047616D6520202020202000486967FF
:1024F400682073636F726573202020004D61696EDC
:10250400206D656E752120202020005265206361B6
:102514006C69622E206A732E200043686F6F7365A6
:1025240020636E74726C722E004A6F7973746963DF
:102534006B2020202020200053656E736F722020B2
:102544002020202020200044656C65746520482EDE
:0A255400532E202020002D730000FC
:00000001FF
