S010000050696E67506F6E672E73726563F2
S11300000C94CC010C94E9010C94E9010C94E901E1
S11300100C94E9010C94E9010C94E9010C94E901B4
S11300200C94E9010C94E9010C94E9010C94E901A4
S11300300C94E9010C94E9010C94E9010C94E90194
S11300400C94E9010C94E9010C94E9010C94E90184
S11300500C94E9010C94E9010C94E9010C94E90174
S11300600C94E9010C94E9010C94E9010C94E90164
S1130070000000000000000000065F5F06000000B2
S11300800007070007070000147F7F147F7F140018
S1130090242E6B6B3A120000466630180C66620020
S11300A0307A4F5D377A48000407030000000000EF
S11300B0001C3E63410000000041633E1C00000040
S11300C0082A3E1C1C3E2A0808083E3E0808000078
S11300D000A0E0600000000008080808080800000C
S11300E000006060000000006030180C060301008E
S11300F03E7F594D7F3E000042427F7F40400000DA
S1130100627359496F660000226349497F360000D3
S1130110181C16137F7F1000276745457D390000A2
S11301203C7E4B4979300000036371190F070000CE
S1130130367F49497F360000064F49693F1E00005B
S113014000006C6C0000000000A0EC6C00000000DB
S1130150081C366341000000141414141414000025
S1130160004163361C080000020351590F060000C9
S11301703E7F415D5D1F1E007C7E13137E7C00006C
S1130180417F7F49497F36001C3E63414163220021
S1130190417F7F41637F1C00417F7F495D41630054
S11301A0417F7F491D0103001C3E6341517372006E
S11301B07F7F08087F7F000000417F7F41000000AF
S11301C0307040417F3F0100417F7F081C7763000E
S11301D0417F7F41406070007F7F060C067F7F0077
S11301E07F7F060C187F7F001C3E6341633E1C002A
S11301F0417F7F49090F06001E3F21717F5E000089
S1130200417F7F19396F460026674D597B320000C4
S113021003417F7F410300007F7F40407F7F0000D8
S11302201F3F60603F1F00007F7F3018307F7F00DA
S113023063771C081C776300074F78784F0700002A
S11302406773594D47637100007F7F41410000008F
S11302500103060C183060000041417F7F0000005C
S1130260080C0603060C0800808080808080808053
S11302700000030704000000207454543C7840003C
S1130280413F7F44447C3800387C44446C2800005F
S1130290307848493F7F4000387C54545C18000053
S11302A0487E7F490302000098BCA4A4F87C0400A3
S11302B0417F7F08047C780000447D7D400000007D
S11302C040C484FD7D000000417F7F10386C4400F1
S11302D000417F7F400000007C7C0C180C7C78007F
S11302E07C7C04047C780000387C44447C38000026
S11302F084FCF8A4243C1800183C24A4F8FC8400D2
S1130300447C78441C180000485C54547424000055
S113031000043E7F442400003C7C40403C7C400080
S11303201C3C60603C1C00003C7C6030607C3C00F9
S1130330446C3810386C44009CBCA0A0FC7C0000C9
S11303404C64745C4C64000008083E774141000032
S113035000000077770000004141773E0808000064
S11303600203010302030100080C7E7F7E0C0800D7
S113037008183F7F3F180800081C3E7F1C1C1C0007
S1130380001C1C7F3E1C0800000070187DB6BC3C9D
S1130390BCB67D187000000011241FBECFEFD4E05E
S11303A0DEBFCDBF12E0A0E0B1E0E4E1F9E102C0BC
S11303B005900D92AE34B107D9F722E0AEE4B2E075
S11303C001C01D92A835B207E1F70E9414040C94F1
S11303D0880C0C940000B9980895843008F083E0E8
S11303E0846080930014B199FECF80910014089525
S11303F0BA98BB98BC980895CF93DF93EC0181E041
S11304000E94ED01888780E00E94ED018987DF91D9
S1130410CF910895CF93DF93EC0180E090E00E94A8
S113042069038AE091E00E94860382E090E00E94E2
S113043069038BE191E00E94860383E090E00E94CF
S113044069038CE291E00E948603B29B05C0CE0151
S11304500E94FC0181E001C080E0DF91CF9108950A
S113046083333CF491E08E3C0CF090E0892F81952D
S1130470089581E00895CF93DF93EC0181E00E9419
S1130480ED01888380E00E94ED01482F89838881F3
S11304902885281790F0622F70E0282F30E0261B63
S11304A0370B54E6529FC001539F900D11246150A5
S11304B071090E941A076A8313C030E0682F70E044
S11304C0621B730B84E6869FF001879FF00D112455
S11304D06FEF70E0621B730BCF010E941A076A83EF
S11304E02985241788F0622F70E050E0461B570BD3
S11304F024E6249FC001259F900D112461507109A9
S11305000E941A076B8311C030E050E0421B530B6A
S113051064E6649FC001659F900D11246FEF70E045
S1130520621B730B0E941A076B838E818C838F81ED
S11305308D838A810E9430028E838B810E943002D7
S11305408F83DF91CF910895CF93DF93EC0188815E
S11305500E94ED018983682F70E080E090E00E94A2
S11305608E0623E333E343E250E40E94F3050E9442
S11305705B066A8363321CF48FEF8B8306C062349C
S11305801CF081E08B8301C01B82DF91CF91089521
S1130590EF92FF920F931F93CF93DF938DE391E03C
S11305A09F938F930E9421090E94C6087C010E9498
S11305B0CB080F900F90C0E0D8E100E010E00E945B
S11305C0C60888839881981711F00F5F1F4F2196F2
S11305D0C11580E2D80799F7C7010E94CB08C0E093
S11305E0D8E1E12CF12C0E94C6089881981719F0E3
S11305F08FEFE81AF80A2196C11580E2D80799F717
S1130600FF92EF921F930F9385E591E09F938F9351
S11306100E9421090F900F900F900F900F900F9050
S1130620DF91CF911F910F91FF90EF90089585B7BF
S1130630806885BF80B7806280BF0E94C802089529
S1130640E0E0F0E18EEA808381EA80838AED8083B2
S113065082E1808388EC808388EA80838FE38083CF
S113066085ED808380E8808381E8808380E58083D2
S113067089ED808381E2808390E2908310829BEDF8
S1130680908390E390839DEA9083108294EA908310
S113069096EA90839FEA9083808310828FEF808311
S11306A092E290831082808380E4808380E094E0EF
S11306B0E0E0F2E1108201970097E1F7E0E0F0E179
S11306C080E28083108280EB8083108280E18083CB
S11306D008958770806BE0E0F0E18083108280E110
S11306E08083089528E0829FC0011124FC01E05911
S11306F0F04020E030E0A0E0B2E184918C932F5FE1
S11307003F4F319628303105C1F708951F93CF9399
S1130710DF93EC018881882309F444C020E030E0B1
S113072010E08D3289F5FE01E20FF31F81818E35D1
S113073059F028F48C3391F08E33A9F021C083371B
S1130740B9F0863731F01CC08FE70E9472031F5F37
S11307501DC080E80E9472031F5F18C081E80E94D8
S113076072031F5F13C082E80E9472031F5F0EC0F2
S113077083E80E94720384E80E9472031F5F06C02C
S11307808DE20E94720302C00E9472031F5F212F38
S113079030E0FE01E20FF31F8081882319F010314D
S11307A008F4BFCFDF91CF911F910895CF93DF93CA
S11307B0D82F0E946903C0E08BE391E00E94860376
S11307C0CF5FC038C9F78D2F0E946903DF91CF91A5
S11307D00895CF93C0E08C2F0E94D603CF5FC8301A
S11307E0D1F7CF9108955D9BFECF8CB908955F9B9F
S11307F0FECF8CB108958FEF80BD8FE089B988E179
S11308008AB98EE880BD67EF73E083EF93E00E94BE
S1130810D608089583E090E00E94690383EB91E099
S11308200E94860380E00895CF93DF93CDB7DEB7AF
S113083064970FB6F894DEBF0FBECDBF0E94FB03D2
S113084082EC91E00E9435090E9417030E94EB019B
S11308500E942003B89A0E94F801CE0101960E94DA
S1130860FC0183E08B8782E08F878FED91E00E940B
S113087035090E94D0047C019C8B8B8B01E010E035
S1130880DD24D3941EC00F5F1F4F9801ADECBCEC68
S11308900E942E07969587959695879596958795A8
S11308A09C01220F331F880F991F880F991F880FEF
S11308B0991F820F931F0817190719F488B38D2500
S11308C088BBCE0101960E943B02CE010B960E948A
S11308D0A402CE010F960E94A402B39B04C0FC8A1A
S11308E0EB8A0E94E903EB89FC898081813071F0F5
S11308F028F08230E9F0833039F1C5CFBE016F5F53
S11309007F4FCE0143960E947705BDCFAE01415F74
S11309105F4FBE01655F7F4FCE0101960E940A04BE
S1130920882309F4B0CFFC8AEB8A0E94E903ABCF99
S1130930CE0101960E94B004882309F4A4CFFC8A56
S1130940EB8A0E94E9039FCFCE0101960E940A021E
S1130950882309F498CFFC8AEB8A0E94E90393CF99
S1130960CF93DF93EC0180E090E00E94690382EE74
S113097091E00E94860381E090E00E9469038CEE7E
S113098091E00E9486039E81992334F481E02C81B6
S1130990921303C080E001C080E0DF91CF910895FD
S11309A0CF92DF92EF92FF920F931F93CF93DF9337
S11309B088EF91E00E94350983E290E00E9451079C
S11309C0EC018AEF91E00E94350983E290E00E94F5
S11309D051078C018CEF91E00E94350983E290E08D
S11309E00E9451076C018EEF91E00E94350983E269
S11309F090E00E9451077C018AEE91E00E94350943
S1130A0083E290E00E945107D80113962FE0E0E0C2
S1130A10F2E001900D922A95E1F7D70113962FE0A9
S1130A20EFE0F2E001900D922A95E1F7DC011396D4
S1130A302FE0EEE1F2E001900D922A95E1F7DE015C
S1130A4013962FE0EDE2F2E001900D922A95E1F782
S1130A50D60113962FE0ECE3F2E001900D922A9573
S1130A60E1F71C8A1B8A33E039831E8B0D8BF88EC9
S1130A70EF8A9A8F898F21E02A831882F801D48B18
S1130A80C38B2183D68AC58A22831082F601148BF4
S1130A90038B118222833083F701D48BC38B1182A1
S1130AA022832083FC01D48BC38B1182228322E016
S1130AB02083CE01DF91CF911F910F91FF90EF9092
S1130AC0DF90CF900895FB0127813581321771F0B3
S1130AD0FC013081321B11F440830895431718F050
S1130AE0FC013083089521E0FC0120830895EF92F6
S1130AF0FF920F931F93CF93DF938C017B01DC0153
S1130B008D919C91FC01418102960E94630580E0D5
S1130B100E946903D8018D919C9103960E948603DB
S1130B20D801ED91FC912181222371F1C1E0D0E043
S1130B308C2F0E946903D801ED91FC91828190E091
S1130B408C179D0729F48BE492E00E94860304C06D
S1130B508AE391E00E948603F80180819181FE017D
S1130B603197EE0FFF1FE80FF91F858996890396C9
S1130B700E9486032196D801ED91FC912181822F58
S1130B8090E08C179D07A4F6D70116968C911697C2
S1130B9014969C91891701F118169CF4828188237C
S1130BA0D9F02817C8F090E00197880F991FE80F33
S1130BB0F91F85899689F801918380830E94E9034E
S1130BC00BC088234CF483899489009729F0D801B9
S1130BD08D939C930E94E903DF91CF911F910F9114
S1130BE0FF90EF9008950CD0EBC0E3D040F0DAD042
S1130BF030F021F45F3F19F0CCC0511115C1CFC0C2
S1130C00F0D098F39923C9F35523B1F3951B550BF1
S1130C10BB27AA2762177307840738F09F5F5F4FCB
S1130C20220F331F441FAA1FA9F333D00E2E3AF00C
S1130C30E0E830D091505040E695001CCAF729D026
S1130C40FE2F27D0660F771F881FBB1F2617370775
S1130C504807AB07B0E809F0BB0B802DBF01FF27A5
S1130C6093585F4F2AF09E3F510568F092C0DCC054
S1130C705F3FECF3983EDCF3869577956795B795DF
S1130C80F7959F5FC9F7880F911D9695879597F9FA
S1130C900895E1E0660F771F881FBB1F6217730773
S1130CA08407BA0720F0621B730B840BBA0BEE1F88
S1130CB088F7E095089504D06894B111B5C00895FB
S1130CC098D088F09F5790F0B92F9927B751A0F08A
S1130CD0D1F0660F771F881F991F1AF0BA95C9F7CC
S1130CE012C0B13081F09FD0B1E008959CC0672F4D
S1130CF0782F8827B85F39F0B93FCCF3869577957C
S1130D006795B395D9F73EF4909580957095619564
S1130D107F4F8F4F9F4F0895E89409C097FB3EF48F
S1130D2090958095709561957F4F8F4F9F4F992334
S1130D30A9F0F92F96E9BB279395F69587957795B2
S1130D406795B795F111F8CFFAF4BB0F11F460FF72
S1130D501BC06F5F7F4F8F4F9F4F16C0882311F0CA
S1130D6096E911C0772321F09EE8872F762F05C0DE
S1130D70662371F096E8862F70E060E02AF09A9579
S1130D80660F771F881FDAF7880F9695879597F96E
S1130D90089597F99F6780E870E060E008959FEFF9
S1130DA080EC089500240A941616170618060906FE
S1130DB0089500240A9412161306140605060895CD
S1130DC0092E0394000C11F4882352F0BB0F40F455
S1130DD0BF2B11F460FF04C06F5F7F4F8F4F9F4F95
S1130DE0089557FD9058440F551F59F05F3F71F017
S1130DF04795880F97FB991F61F09F3F79F087957E
S1130E000895121613061406551FF2CF4695F1DF06
S1130E1008C0161617061806991FF1CF8695710596
S1130E20610508940895E894BB2766277727CB01CA
S1130E3097F9089597FB072E16F4009407D077FDD1
S1130E4009D00E943D0707FC05D03EF4909581959A
S1130E509F4F0895709561957F4F0895A29FB001AB
S1130E60B39FC001A39F700D811D1124911DB29FDA
S1130E70700D811D1124911D0895AA1BBB1B51E106
S1130E8007C0AA1FBB1FA617B70710F0A61BB70BF6
S1130E90881F991F5A95A9F780959095BC01CD019B
S1130EA00895CF93DF938230910510F482E090E0AF
S1130EB0E0915002F091510220E030E0A0E0B0E077
S1130EC0309739F14081518148175907B8F04817D4
S1130ED0590771F482819381109729F013969C939A
S1130EE08E9312972CC0909351028093500227C086
S1130EF02115310531F04217530718F0A901DB0120
S1130F0001C0EF019A01BD01DF010280F381E02DF0
S1130F10D7CF21153105F9F0281B390B24303105C1
S1130F2080F48A819B816115710521F0FB01938313
S1130F30828304C09093510280935002FE01329642
S1130F4044C0FE01E20FF31F8193919322503109B3
S1130F50398328833AC020914E0230914F02232BCB
S1130F6041F4209102013091030130934F02209308
S1130F704E0220910001309101012115310541F407
S1130F802DB73EB74091040150910501241B350B48
S1130F90E0914E02F0914F02E217F307A0F42E1BEA
S1130FA03F0B2817390778F0AC014E5F5F4F2417C9
S1130FB0350748F04E0F5F1F50934F0240934E0287
S1130FC08193919302C0E0E0F0E0CF01DF91CF91F3
S1130FD00895CF93DF93009709F487C0FC013297FB
S1130FE013821282C0915002D0915102209781F451
S1130FF020813181280F391F80914E0290914F0238
S11310008217930779F5F0934F02E0934E026DC077
S1131010DE0120E030E0AE17BF0750F412964D9188
S11310205C9113979D014115510509F1DA01F3CF44
S1131030B383A28340815181840F951F8A179B0734
S113104071F48D919C911197840F951F0296918351
S1131050808312968D919C9113979383828321159B
S1131060310529F4F0935102E09350023EC0D901B6
S11310701396FC93EE9312974D915D91A40FB51FB7
S1131080EA17FB0779F480819181840F951F0296FA
S1131090D90111969C938E938281938113969C938C
S11310A08E931297E0E0F0E08A819B81009719F01B
S11310B0FE01EC01F9CFCE01029628813981820F1D
S11310C0931F20914E0230914F022817390769F47B
S11310D0309729F4109251021092500202C01382E8
S11310E01282D0934F02C0934E02DF91CF910895A4
S11310F08F929F92AF92BF92CF92DF92EF92FF9224
S1131100CF93DF93EC01688179818A819B8161159A
S113111071058105910521F464E279ED8BE597E091
S11311202DE133EF41E050E00E94FD0B49015A01EB
S11311309B01AC01A7EAB1E40E941C0C6B017C0189
S1131140ACEEB4EFA50194010E942A0CC60ED71E82
S1131150E81EF91EF7FE06C081E0C81AD108E108AE
S113116080E8F80AC882D982EA82FB82C6019F77A6
S1131170DF91CF91FF90EF90DF90CF90BF90AF9031
S11311809F908F9008950E947808089586E091E0DA
S11311900E9478080895A0E0B0E08093060190933F
S11311A00701A0930801B093090108950F931F93B9
S11311B0CF93DF93EC018B01009731F46115710536
S11311C019F480E090E038C06EE070E081E090E0D7
S11311D00E94340BFC010097A1F380E8838301157E
S11311E0110571F01387028781E88383809152028D
S11311F090915302892B21F4F0935302E09352020D
S11312002097C9F0D187C0878381826083838091CE
S1131210540290915502892B71F4F0935502E09396
S113122054028091560290915702892B21F4F09335
S11312305702E0935602CF01DF91CF911F910F9196
S11312400895A0E0B0E0E7E2F9E00C943F0CFE0161
S1131250359661917191AF0180915402909155023C
S11312600E946209E2E00C945B0C0F931F93CF93EE
S1131270DF93E0915402F0915502238121FF1BC0BA
S1131280EC0100E010E089916091540270915502E4
S1131290DB011896ED91FC911997882331F009959B
S11312A0892B89F30FEF1FEFEECF8AE00995892B85
S11312B011F4C80102C08FEF9FEFDF91CF911F910E
S11312C00F910895ACE0B0E0E8E6F9E00C942F0C3F
S11312D07C016B018A01FC0117821682838181FFE4
S11312E0BDC1CE0101964C01F7019381F60193FD36
S11312F0859193FF81916F01882309F4ABC18532F5
S113130039F493FD859193FF81916F01853229F41E
S1131310B70190E00E946D0BE7CF512C312C20E0F7
S11313202032A0F48B3269F030F4803259F08332E9
S113133069F420612CC08D3239F0803339F4216096
S113134026C02260246023C0286021C027FD27C056
S113135030ED380F3A3078F426FF06C0FAE05F9E8D
S1131360300D1124532E13C08AE0389E300D112401
S1131370332E20620CC08E3221F426FD6BC1206412
S113138006C08C3611F4206802C0883641F4F60198
S113139093FD859193FF81916F018111C1CF982FA6
S11313A09F7D9554933028F40C5F1F4FFFE3F9831E
S11313B00DC0833631F0833771F0833509F05BC09B
S11313C022C0F801808189830E5F1F4F4424439417
S11313D0512C540115C03801F2E06F0E711CF80154
S11313E0A080B18026FF03C0652D70E002C06FEFBE
S11313F07FEFC5012C870E94620B2C0183012C8591
S11314002F77222E17C03801F2E06F0E711CF801FD
S1131410A080B18026FF03C0652D70E002C06FEF8D
S11314207FEFC5012C870E94500B2C012C8520686E
S1131430222E830123FC1BC0832D90E048165906FD
S1131440B0F4B70180E290E00E946D0B3A94F4CFBF
S1131450F50127FC859127FE81915F01B70190E09A
S11314600E946D0B31103A94F1E04F1A5108411467
S1131470510471F7E5C0843611F0893639F5F80165
S113148027FF07C060817181828193810C5F1F4FA8
S113149008C060817181882777FD8095982F0E5F41
S11314A01F4F2F76B22E97FF09C0909580957095A7
S11314B061957F4F8F4F9F4F2068B22E2AE030E016
S11314C0A4010E949F0BA82EA81844C0853729F4B4
S11314D02F7EB22E2AE030E025C0F22FF97FBF2EF6
S11314E08F36C1F018F4883579F0B4C0803719F01C
S11314F0883721F0AFC02F2F2061B22EB4FE0DC06B
S11315008B2D8460B82E09C024FF0AC09F2F9660DB
S1131510B92E06C028E030E005C020E130E002C06A
S113152020E132E0F801B7FE07C060817181828159
S113153093810C5F1F4F06C06081718180E090E051
S11315400E5F1F4FA4010E949F0BA82EA818FB2D0D
S1131550FF77BF2EB6FE0BC02B2D2E7FA51450F4A3
S1131560B4FE0AC0B2FC08C02B2D2E7E05C07A2C16
S11315702B2D03C07A2C01C0752C24FF0DC0FE0155
S1131580EA0DF11D8081803311F4297E09C022FF08
S113159006C07394739404C0822F867809F0739400
S11315A023FD13C020FF06C05A2C731418F4530CE7
S11315B05718732C731468F4B70180E290E02C87F9
S11315C00E946D0B73942C85F5CF731410F43718A7
S11315D001C0312C24FF12C0B70180E390E02C87B6
S11315E00E946D0B2C8522FF17C021FF03C088E5E4
S11315F090E002C088E790E0B7010CC0822F8678A3
S113160059F021FD02C080E201C08BE227FD8DE28A
S1131610B70190E00E946D0BA51438F4B70180E384
S113162090E00E946D0B5A94F7CFAA94F401EA0D4E
S1131630F11D8081B70190E00E946D0BA110F5CFE0
S1131640332009F451CEB70180E290E00E946D0B83
S11316503A94F6CFF7018681978102C08FEF9FEF0E
S11316602C96E2E10C944B0C0F931F93CF93DF93D2
S1131670869F8001879F100D969F100D1124C8012D
S11316800E945107EC01009729F0A80160E070E086
S11316900E945B0BCE01DF91CF911F910F910895B2
S11316A0FC010590615070400110D8F78095909529
S11316B08E0F9F1F0895DC0101C06D93415050406F
S11316C0E0F70895FC016150704001900110D8F7D3
S11316D0809590958E0F9F1F08950F931F93CF931E
S11316E0DF93182F092FEB018B8181FD03C08FEF4E
S11316F09FEF20C082FF10C04E815F812C813D810D
S1131700421753077CF4E881F9819F012F5F3F4F13
S113171039832883108306C0E885F985812F0995CC
S1131720892B29F72E813F812F5F3F4F3F832E83E3
S1131730812F902FDF91CF911F910F910895FA017E
S1131740AA27283051F1203181F1E8946F936E7FFC
S11317506E5F7F4F8F4F9F4FAF4FB1E03ED0B4E0ED
S11317603CD0670F781F891F9A1FA11D680F791F2E
S11317708A1F911DA11D6A0F711D811D911DA11D3F
S113178020D009F468943F912AE0269F112430194F
S1131790305D3193DEF6CF010895462F4770405DEA
S11317A04193B3E00FD0C9F7F6CF462F4F70405D99
S11317B04A3318F0495D31FD4052419302D0A9F7F4
S11317C0EACFB4E0A6959795879577956795BA95EE
S11317D0C9F700976105710508959B01AC010A2EB4
S11317E006945795479537952795BA95C9F7620F8B
S11317F0731F841F951FA01D0895052E97FB1EF4CB
S113180000940E94140C57FD07D00E94660C07FC3C
S113181003D04EF40C94140C5095409530952195BA
S11318203F4F4F4F5F4F0895909580957095619508
S11318307F4F8F4F9F4F08950E942E07A59F900DB5
S1131840B49F900DA49F800D911D11240895B7FF9E
S11318500C941C0C0E941C0C821B930B08952F9259
S11318603F924F925F926F927F928F929F92AF922C
S1131870BF92CF92DF92EF92FF920F931F93CF9379
S1131880DF93CDB7DEB7CA1BDB0B0FB6F894DEBF10
S11318900FBECDBF09942A88398848885F846E8436
S11318A07D848C849B84AA84B984C884DF80EE8080
S11318B0FD800C811B81AA81B981CE0FD11D0FB689
S11318C0F894DEBF0FBECDBFED010895A1E21A2E3C
S11318D0AA1BBB1BFD010DC0AA1FBB1FEE1FFF1FD0
S11318E0A217B307E407F50720F0A21BB30BE40B20
S11318F0F50B661F771F881F991F1A9469F7609567
S11319007095809590959B01AC01BD01CF01089520
S1071910F894FFCF75
S11319140000580220000100000043616C696272F7
S11319246174696E67204A533A2000507265737378
S1131934204120746F2020202020200063616C69E2
S11319446272617465202020202020200053746179
S11319547274696E67205352414D20746573742EFA
S11319642E2E0A0D005352414D2074657374206366
S11319746F6D706C657465642077697468200A0DF2
S1131984253464206572726F727320696E207772D5
S113199469746520706861736520616E64200A0D42
S11319A4253464206572726F727320696E207265C7
S11319B47472696576616C207068617365200A20AD
S11319C40A0D005350494C4C4554204B4A4F524540
S11319D452000A0A0A0A0A0A0A0A0A0A0A0A0A0A21
S11319E40A0A0A0A0A0A0A0A0A0A0A0A0A0A0A0A4F
S11319F40A004869676873636F7265002020506544
S1131A04723A2031303234006100620063006400B1
S1131A144F7074696F6E7320202020202020004EA4
S1131A2465772047616D65202020202020004869C7
S1131A3467682073636F726573202020004D6169A9
S1131A446E206D656E752120202020005265206370
S1111A54616C69622E206A732E20002D7300CF
S9030000FC
