S00D00004E6F6465322E737265635F
S1130000F2C0000010C100000EC100000CC10000CD
S11300100AC1000008C1000006C1000004C10000BC
S113002002C1000000C10000FEC00000FCC00000CE
S1130030FAC00000F8C00000F6C00000F4C00000E0
S1130040F2C00000F0C00000EEC00000ECC00000F0
S1130050EAC00000E8C00000E6C00000E4C0000000
S1130060E2C00000E0C00000DEC00000DCC0000010
S1130070DAC00000D8C00000D6C00000D4C0000020
S1130080D2C00000D0C00000CEC00000CCC0000030
S1130090CAC00000C8C00000C6C00000C4C0000040
S11300A0C2C00000C0C00000BEC00000BCC0000050
S11300B0BAC00000B8C00000B6C00000B4C0000060
S11300C0B2C00000B0C00000AEC00000ACC0000070
S11300D0AAC00000A8C00000A6C00000A4C0000080
S11300E0A2C000006E616E00696E660000407A1066
S11300F0F35A00A0724E18090010A5D4E80000E8D5
S11301007648170000E40B54020000CA9A3B000032
S113011000E1F505000080969800000040420F00C1
S11301200000A08601000000102700000000E80382
S1130130000000006400000000000A00000000004D
S11301400100000000002C76D888DC674F0823DF0C
S1130150C1DFAE59E1B1B796E5E3E453C63AE651DF
S1130160997696E8E6C28426EB898C9B62ED407C06
S11301706FFCEFBC9C9F40F2BAA56FA5F490055AA2
S11301802AF75C936B6CF9676DC11BFCE0E40D47C7
S1130190FEF520E6B500D0ED902E030094357705EA
S11301A00080841E080000204E0A000000C80C33A2
S11301B03333330F986E12831141EF8D2114893B31
S11301C0E65516CFFEE6DB18D1844B381BF77C1DB1
S11301D0901DA4BBE424203284725E228100C9F104
S11301E024ECA1E53D2711241FBECFEFD1E2DEBFF1
S11301F0CDBF00E00CBF12E0A0E0B2E0E0EFFAE116
S113020000E00BBF02C007900D92A834B107D9F7E4
S113021022E0A8E4B2E001C01D92A235B207E1F7E2
S113022081D20C94760DECCEEF92FF920F931F9334
S1130230CF93DF93EC01E62E8CE0FE0111928A95B8
S1130240E9F725D12E2D22952F70265041E050E05C
S1130250BA0102C0660F771F2A95E2F79B01282B8B
S1130260232B69F181E08E0DF7D078E0879F800120
S113027011241983088382E08E0DEED08295869531
S11302808770082B1983088385E08E0DE5D08F7065
S11302908A838823B1F08E010D5F1F4FF12C86E015
S11302A0E80E8E2D8F0DD8D0F80181938F01F39431
S11302B08A81F81640F4F8E0FF12F3CF06C080E01C
S11302C005C081E003C081E001C081E0DF91CF91EE
S11302D01F910F91FF90EF9008957F9905C08EE0D4
S11302E0BBD08E708695089580E0089560E08CE21E
S11302F0BFC008958798EBD0E5D040E860EE8FE06A
S1130300CDD08EE0A9D0807E803821F086E092E0C6
S11303100E94A30B40E260E680E6C0D044E064E0C3
S113032080E6BCD040E260E680E7B8D063E08BE2D0
S11303309FD060EA80E29CD040E260EE81E2AED0E1
S113034060EA84E295D040E660EE85E2A7D060E200
S113035080E08ED040E060EE81E0A0D060E284E0F6
S113036087D040E260EE85E099D060EA88E080D0F2
S113037040E060EE89E092D060EA80E179D040E22A
S113038060EE81E18BD060EA84E172D040E460EEFB
S113039085E184D060EA88E16BD040E660EE89E1D3
S11303A07DD0A4DF40E060EE8FE078C00895863011
S11303B031F0873031F0813031F080E0089581E010
S11303C0089582E0089580E20895882329F0EFDFFC
S11303D040E0682F8CE262C0089585E08093B80005
S11303E0E9EBF0E080818160808381E18093BA0051
S11303F0ECEBF0E08081846080838FEF8093BB001E
S1130400089594EA9093BC00ECEBF0E0908199237A
S1130410ECF7660F6093BB0094E89093BC00ECEBA0
S1130420F0E090819923ECF71092BB0094E890934C
S1130430BC00ECEBF0E090819923ECF78093BB00D7
S113044084E88093BC00ECEBF0E080818823ECF737
S113045084E98093BC000895CF93C82F289883E043
S11304603ED08C2F3CD080E03AD0289ACF9108958A
S1130470CF93DF93D82FC62F289882E030D08D2FCA
S11304802ED08C2F2CD0289ADF91CF9108952898C4
S113049080EA25D080E023D0289A08951F93CF9333
S11304A0DF93182FD62FC42F289885E018D0812FDA
S11304B016D08D2F14D08C2F12D0289ADF91CF9183
S11304C01F910895289880EC0AD0289A0895229ABA
S11304D02398219A209A8CB581658CBD08958EBD90
S11304E00DB407FEFDCF8EB50895E0ECF0E09081E9
S11304F095FFFDCF8093C6000895E0ECF0E0808185
S11305008823ECF78091C60008951092C50087E611
S11305108093C40088E18093C10086E08093C20088
S11305206DE772E085E792E00C94160B08958098CD
S1130530ECE7F0E080818160808380818064808347
S1130540EAE7F0E0808189688083EBE7F0E080816E
S113055080830895EAE7F0E080818064808380816D
S113056082FD06C0808184608083808182FFFACF0F
S1130570809178009091790008950F931F93CF9301
S1130580DF93EC0188818F5F888309811A81E2DF20
S1130590800F911F9A8389836881633390F070E0A0
S11305A043D7683C710548F48B81813019F08C8104
S11305B08F5F8C8381E08B8301C01B8218821A8237
S11305C01982DF91CF911F910F910895962F88235F
S11305D011F08B9A01C08B9868E2892F12CF08958D
S11305E08C392FEF920714F48CE99FEFBC01853608
S11305F0910514F064E670E0772324F4619580E0BB
S1130600E5CF089581E0E2CF08958E988AE68A9531
S1130610F1F700C08E9A089580B3886F80BB8E98DE
S113062081B3806581BB81B3877581BBEECF0895AB
S11306308295282F2373220F220F982F9C7C969546
S11306409695922B292F2575220F9A7A892F8695B4
S1130650822B0895CF93DF938D9A8AE68A95F1F7DA
S113066000C080910601E4DFC82FD0E08D988AE6AF
S11306708A95F1F700C080910601DADFD82B80ED6E
S11306809EEE8C1B9D0BDF91CF910895259AA0E8D7
S1130690B0E08C9182608C93E1E8F0E08081886125
S11306A080838C9180688C9380818260808380E4D5
S11306B09CE9909387008093860088E097E090936C
S11306C089008093880008958C392FEF920714F4E1
S11306D08CE99FEF8536910514F084E690E0662757
S11306E07727681B790B882777FD8095982F26D26A
S11306F02BE933E549EC56E3ADD226EA3BE944EC79
S11307005AE31DD120E034E244E75BE4A3D220E0C5
S113071030E040E05EE39ED2E3D1709389006093C1
S113072088000895CF93DF93CDB7DEB76D970FB6EA
S1130730F894DEBF0FBECDBFE8DEDCDDA7DFF7DE59
S11307404CDE6ADFCE01429631D084DFC6DD182F3D
S1130750863019F0873031F009C060E6CE01019689
S113076063DD04C060E7CE0101965EDD812F2DDEDE
S11307708C81882319F0813041F00DC08E81992736
S113078087FD9095A1DF0F8106C080E090E09CDF9B
S113079080E090E025DFCE010D96EFDE602FCE01E4
S11307A042961CD08C899D891BDFCFCFFC0182E04F
S11307B0808384E1818313821282148215821682DB
S11307C017821086118612861386E1E9F0E0808193
S11307D08360808381E08093710008956F927F929B
S11307E08F929F92AF92BF92CF92DF92EF92FF923D
S11307F00F931F93CF93DF93EC01F62E04E910E0DF
S1130800F8016081718180E090E096D120E034E2CB
S113081044E758E4F8D04B015C01F80111821082DE
S1130820FF2D8CE2F802B0011124882777FD809512
S1130830982F84D1A50194010DD22AE037ED43E22B
S11308405CE308D29B01AC01688579858A859B8528
S113085076D0688779878A879B87FCDE1885098527
S11308607A846B84BC01882777FD8095982F66D1A4
S11308709B01AC01612F702F872D962D5FD020E056
S113088030E040EB52E4BFD026D16B017C018827D5
S113089077FD8095982F52D1A5019401DBD19B015E
S11308A0AC016C817D818E819F8149D06C837D8375
S11308B08E839F836F927F920F931F9389E392E0BD
S11308C09F938F932FD78881992787FD90958C9D2F
S11308D0B0018D9D700D9C9D700D1124882777FDAE
S11308E08095982F2BD16B017C016981772767FD57
S11308F07095872F972F22D12C813D814E815F8166
S1130900A9D19B01AC01C701B60119D0E4D07B8306
S11309106A830F900F900F900F900F900F90DF91BC
S1130920CF911F910F91FF90EF90DF90CF90BF90E8
S1130930AF909F908F907F906F9008955058BB27F1
S1130940AA270ED04DC13ED130F043D120F031F46E
S11309509F3F11F41EF433C10EF4E095E7FB29C167
S1130960E92F4FD180F3BA176207730784079507FD
S113097018F071F49EF567C10EF4E0950B2EBA2FB2
S1130980A02D0B01B90190010C01CA01A001112491
S1130990FF27591B99F0593F50F4503E68F11A163D
S11309A0F040A22F232F342F4427585FF3CF4695CE
S11309B037952795A795F0405395C9F77EF41F16F0
S11309C0BA0B620B730B840BBAF09150A1F0FF0FBA
S11309D0BB1F661F771F881FC2F70EC0BA0F621FA6
S11309E0731F841F48F4879577956795B795F79596
S11309F09E3F08F0B3CF9395880F08F09927EE0F28
S1130A009795879508950CD0EBC0E3D040F0DAD0E9
S1130A1030F021F45F3F19F0CCC0511115C1CFC0A3
S1130A20F0D098F39923C9F35523B1F3951B550BD3
S1130A30BB27AA2762177307840738F09F5F5F4FAD
S1130A40220F331F441FAA1FA9F333D00E2E3AF0EE
S1130A50E0E830D091505040E695001CCAF729D008
S1130A60FE2F27D0660F771F881FBB1F2617370757
S1130A704807AB07B0E809F0BB0B802DBF01FF2787
S1130A8093585F4F2AF09E3F510568F092C0DCC036
S1130A905F3FECF3983EDCF3869577956795B795C1
S1130AA0F7959F5FC9F7880F911D9695879597F9DC
S1130AB00895E1E0660F771F881FBB1F6217730755
S1130AC08407BA0720F0621B730B840BBA0BEE1F6A
S1130AD088F7E095089504D06894B111B5C00895DD
S1130AE098D088F09F5790F0B92F9927B751A0F06C
S1130AF0D1F0660F771F881F991F1AF0BA95C9F7AE
S1130B0012C0B13081F09FD0B1E008959CC0672F2E
S1130B10782F8827B85F39F0B93FCCF3869577955D
S1130B206795B395D9F73EF4909580957095619546
S1130B307F4F8F4F9F4F0895E89409C097FB3EF471
S1130B4090958095709561957F4F8F4F9F4F992316
S1130B50A9F0F92F96E9BB279395F6958795779594
S1130B606795B795F111F8CFFAF4BB0F11F460FF54
S1130B701BC06F5F7F4F8F4F9F4F16C0882311F0AC
S1130B8096E911C0772321F09EE8872F762F05C0C0
S1130B90662371F096E8862F70E060E02AF09A955B
S1130BA0660F771F881FDAF7880F9695879597F950
S1130BB0089597F99F6780E870E060E008959FEFDB
S1130BC080EC089500240A941616170618060906E0
S1130BD0089500240A9412161306140605060895AF
S1130BE0092E0394000C11F4882352F0BB0F40F437
S1130BF0BF2B11F460FF04C06F5F7F4F8F4F9F4F77
S1130C00089557FD9058440F551F59F05F3F71F0F8
S1130C104795880F97FB991F61F09F3F79F087955F
S1130C200895121613061406551FF2CF4695F1DFE8
S1130C3008C0161617061806991FF1CF8695710578
S1130C40610508940895E894BB2766277727CB01AC
S1130C5097F908950BD0C4CFB5DF28F0BADF18F0A8
S1130C60952309F0A6CFABCF1124EECFCADFA0F3B2
S1130C70959FD1F3950F50E0551F629FF001729F2D
S1130C80BB27F00DB11D639FAA27F00DB11DAA1F4C
S1130C90649F6627B00DA11D661F829F2227B00D99
S1130CA0A11D621F739FB00DA11D621F839FA00D24
S1130CB0611D221F749F3327A00D611D231F849F74
S1130CC0600D211D822F762F6A2F11249F575040CB
S1130CD08AF0E1F088234AF0EE0FFF1FBB1F661F66
S1130CE0771F881F91505040A9F79E3F510570F01F
S1130CF060CFAACF5F3FECF3983EDCF386957795FF
S1130D006795B795F795E7959F5FC1F7FE2B880F19
S1130D10911D9695879597F908952F923F924F923A
S1130D205F926F927F928F929F92AF92BF92CF9277
S1130D30DF92EF92FF920F931F93CF93DF93CDB780
S1130D40DEB763970FB6F894DEBF0FBECDBF7C014C
S1130D501B016A01FC0117821682838181FF49C34A
S1130D60BE016F5F7F4F4B01F7019381F10193FD4A
S1130D70859193FF81911F01882309F436C385323D
S1130D8039F493FD859193FF81911F01853231F4EC
S1130D90B70190E095D456016501E6CF10E0512CDF
S1130DA020E02032A0F48B3269F030F4803259F024
S1130DB0833269F420612CC08D3239F0803339F4E8
S1130DC0216026C02260246023C0286021C027FD42
S1130DD027C030ED380F3A3078F426FF06C0FAE029
S1130DE01F9F300D1124132F13C06AE0569E300D3F
S1130DF01124532E20620CC08E3221F426FDF5C23C
S1130E00206406C08C3611F4206802C0883641F490
S1130E10F10193FD859193FF81911F018111C1CF50
S1130E209BEB980F933018F42061805E06C09BE919
S1130E30980F933008F09AC12F7E26FF16E02F7387
S1130E40722E853621F4F22FF0647F2E08C0863688
S1130E5021F4622F6068762E02C01111115077FEC2
S1130E6007C01C3348F444244394410E27E00BC0CC
S1130E70183030F4212F06C027E04CE3442E03C081
S1130E8027E017E0412C560174E0A70EB11CF601CF
S1130E906081718182819381042DA401D9D26C0176
S1130EA0098100FF02C003FF06C071FC07C072FC89
S1130EB008C0612C08C03DE2632E05C02BE2622EFF
S1130EC002C090E2692E802F8C7081F1662011F0AF
S1130ED084E001C083E0851510F0512C0AC0581A33
S1130EE073FC07C0B70180E290E0EAD35A94D1F7CB
S1130EF0F4CF662021F0B701862D90E0E1D303FD05
S1130F0003C008EE10E002C004EE10E0F72DF0710B
S1130F107F2EF8018491882309F45EC271108052F7
S1130F20B70190E0CDD30F5F1F4FF3CF77FE0FC013
S1130F304C0C04FF04C08A81813309F44A941414CC
S1130F4074F5F8E0F41578F588E0482E2CC076FCAA
S1130F502AC0812F90E08C159D059CF06CEFC6167D
S1130F606FEFD60674F0772D7068772E0AC0E2E032
S1130F70F0E0EC0FFD1FE10FF11D8081803319F4C7
S1130F8011501111F4CF77FE0EC044244394410E46
S1130F90812F90E0C816D9062CF41C1904C04424EF
S1130FA0439401C010E077FE07C01C141D043CF4F8
S1130FB096012F5F3F4F05C025E030E002C021E0DD
S1130FC030E0662011F02F5F3F4F112331F0412FA5
S1130FD050E04F5F5F4F240F351F452D50E024171D
S1130FE0350714F4521A01C0512C872D897041F42D
S1130FF0552031F0B70180E290E062D35A94F8CFE3
S1131000662021F0B701862D90E05AD373FC08C006
S1131010552031F0B70180E390E052D35A94F8CFD1
S113102077FE5DC09C2D8D2DD7FE02C090E080E040
S1131030692E782E40E050E0C601841991099D87FD
S11310408C87960126193709280D391D812F90E0C8
S1131050EE27FF27E81BF90BFF87EE87FFEF6F16DC
S11310607F0661F4B7018EE290E02B8B3A8B488BBC
S1131070598B26D3598948893A892B89C614D704B0
S113108054F06C857D85661577052CF4F901E40F21
S1131090F51F818101C080E371E0671A71084F5F19
S11310A05F4FEE85FF856E167F0664F0B70190E012
S11310B02B8B3A8B488B598B03D32B893A894889DC
S11310C05989CCCF6C147D0439F49A81963318F481
S11310D0953311F404FF81E3B70190E045C08A81A0
S11310E0813309F00F7EB70190E0EAD2111105C0F7
S11310F074FE16C085E490E015C0B7018EE290E05E
S1131100DFD282E066246394680EF401E80FF11DD7
S11311108081B70190E0D4D2115051F3862DF2CFE3
S113112085E690E0B701CCD2D7FC05C0C114D10448
S113113039F404FF05C0D194C194D1088DE201C0F3
S11311408BE2B70190E0BCD280E36AE0C616D1041A
S11311502CF08F5FFAE0CF1AD108F7CFB70190E0F7
S1131160AFD2B701C601C096ABD236C1833631F0D7
S1131170833779F0833509F054C020C0560172E0FA
S1131180A70EB11CF6018081898301E010E064019F
S113119013C05601F2E0AF0EB11CF601C080D1803D
S11311A026FF03C0612F70E002C06FEF7FEFC6011E
S11311B02B8B31D28C012B892F7714C05601F2E08E
S11311C0AF0EB11CF601C080D18026FF03C0612F91
S11311D070E002C06FEF7FEFC6012B8B11D28C0140
S11311E02B892068722E23FD18C0852D90E00817E6
S11311F0190798F4B70180E290E062D25A94F5CFCF
S1131200F60177FC859177FE81916F01B70190E03B
S113121057D251105A94015011090115110581F743
S1131220DBC0843611F0893649F5560127FF09C021
S1131230F4E0AF0EB11CF60160817181828193816B
S11312400AC0F2E0AF0EB11CF601608171818827FB
S113125077FD8095982F022F0F7697FF08C0909501
S11312608095709561957F4F8F4F9F4F00682AE05E
S113127030E0A40195D2C82EC8183DC0022F85378E
S113128021F40F7E2AE030E01DC0097F8F3691F0F3
S113129018F4883559F0A9C0803719F0883711F04F
S11312A0A4C0006104FF09C0046007C024FF08C093
S11312B0066006C028E030E005C020E130E002C04E
S11312C020E132E0560107FF09C0F4E0AF0EB11C83
S11312D0F601608171818281938108C0F2E0AF0ED2
S11312E0B11CF6016081718180E090E0A40158D2C4
S11312F0C82EC8180F7706FF0BC0202F2E7FC116EB
S113130050F404FF0AC002FD08C0202F2E7E05C041
S1131310DC2C202F03C0DC2C01C0D12E24FF0DC0F7
S1131320FE01EC0DF11D8081803311F4297E09C08A
S113133022FF06C0D394D39404C0822F867809F088
S1131340D39423FD12C020FF06C01C2DD51418F41D
S1131350150D1D19D52CD51460F4B70180E290E069
S11313602B8BAED1D3942B89F6CFD51410F45D1802
S113137001C0512C24FF11C0B70180E390E02B8BF6
S11313809FD12B8922FF16C021FF03C088E590E07E
S113139002C088E790E0B7010CC0822F867851F034
S11313A021FD02C080E201C08BE227FD8DE2B7017E
S11313B090E086D1C11630F4B70180E390E080D18B
S11313C01150F8CFCA94F401EC0DF11D8081B701DE
S11313D090E076D1C110F6CF552009F4DDCCB701E9
S11313E080E290E06DD15A94F7CFF701868197811E
S11313F002C08FEF9FEF63960FB6F894DEBF0FBE67
S1131400CDBFDF91CF911F910F91FF90EF90DF90AF
S1131410CF90BF90AF909F908F907F906F905F9090
S11314204F903F902F900895AA1BBB1B51E107C01A
S1131430AA1FBB1FA617B70710F0A61BB70B881F60
S1131440991F5A95A9F780959095BC01CD010895EF
S1131450283008F027E03327DA01990F311D87FD82
S1131460916000966105710539F432602E5F3D93F9
S113147030E32A95E1F708959F3F30F080387105F5
S1131480610509F03C5F3C5F3D93913008F0806852
S1131490911DDF93CF931F930F93FF92EF92192F18
S11314A0987F9695E92F96959695E90FFF27EA5B25
S11314B0FE4F99273327EE24FF24A701E701059067
S11314C00894079428F4360FE71EF81E491F511D8F
S11314D0660F771F881F991F0694A1F7059007943C
S11314E028F4E70EF81E491F561FC11D770F881FE9
S11314F0991F661F0694A1F70590079428F4F80E27
S1131500491F561FC71FD11D880F991F661F771FBC
S11315100694A1F70590079420F4490F561FC71F9E
S1131520D81F990F661F771F881F0694A9F7849107
S11315301095177041F0D695C79557954795F79430
S1131540E7941A95C1F7ECEEF0E0689415901591C4
S113155035916591959105907FE27395E118F10AB3
S1131560430B560BC90BD009C0F7E10CF11E431F06
S1131570561FC91FD01D7EF4703311F48A95E6CF2F
S1131580E894015030F0080F0AF40027021708F419
S1131590202F2395022F7A3328F079E37D932A951F
S11315A0E9F710C07D932A9589F606949795679577
S11315B0379517951794E118F10A430B560BC90B8D
S11315C0D00998F023957E9173957A3308F070E3EF
S11315D07C932013B8F77E9170617D9330F08395EE
S11315E071E37D9370E32A95E1F71124EF90FF9066
S11315F00F911F91CF91DF91992787FD90950895C1
S1131600FC010590615070400110D8F780959095C9
S11316108E0F9F1F0895FC016150704001900110CE
S1131620D8F7809590958E0F9F1F08950F931F9361
S1131630CF93DF93EC018B01009731F461157105B1
S113164019F480E090E037C06EE070E081E090E053
S113165005D1FC010097A9F380E8838301151105E6
S113166071F01387028781E8838380914802909107
S11316704902892B21F4F0934902E0934802209710
S1131680C9F0D187C08783818260838380914A02B5
S113169090914B02892B71F4F0934B02E0934A0230
S11316A080914C0290914D02892B21F4F0934D02CC
S11316B0E0934C02CF01DF91CF911F910F910895D8
S11316C00F931F93CF93DF93182F092FEB018B8177
S11316D081FD03C08FEF9FEF20C082FF10C04E81B9
S11316E05F812C813D81421753077CF4E881F981A5
S11316F09F012F5F3F4F39832883108306C0E885FD
S1131700F985812F1995892B29F72E813F812F5F28
S11317103F4F3F832E83812F902FDF91CF911F91D5
S11317200F910895CF93DF93CDB7DEB7FE013696C0
S113173061917191AF0180914A0290914B02EDDA6F
S1131740DF91CF9108950F931F93CF93DF93E0918F
S11317504A02F0914B02238121FF1BC0EC0100E0FF
S113176010E0899160914A0270914B02DB01189656
S1131770ED91FC911997882331F01995892B89F300
S11317800FEF1FEFEECF8AE01995892B11F4C801F2
S113179002C08FEF9FEFDF91CF911F910F910895BA
S11317A0FA01AA27283051F1203181F1E8946F938E
S11317B06E7F6E5F7F4F8F4F9F4FAF4FB1E03ED034
S11317C0B4E03CD0670F781F891F9A1FA11D680FD2
S11317D0791F8A1F911DA11D6A0F711D811D911D05
S11317E0A11D20D009F468943F912AE0269F11247A
S11317F03019305D3193DEF6CF010895462F4770DE
S1131800405D4193B3E00FD0C9F7F6CF462F4F7038
S1131810405D4A3318F0495D31FD4052419302D096
S1131820A9F7EACFB4E0A69597958795779567953C
S1131830BA95C9F700976105710508959B01AC013C
S11318400A2E06945795479537952795BA95C9F763
S1131850620F731F841F951FA01D08950F931F937C
S1131860CF93DF93869F8001879F100D969F100D65
S11318701124C8010DD0EC01009721F0A80160E00B
S113188070E02DD1CE01DF91CF911F910F9108957A
S1131890CF93DF938230910510F482E090E0E091E1
S11318A05002F091510220E030E0A0E0B0E0309727
S11318B039F14081518148175907B8F04817590741
S11318C071F482819381109729F013969C938E93DF
S11318D012972CC0909351028093500227C0211577
S11318E0310531F04217530718F0A901DB0101C09B
S11318F0EF019A01BD01DF010280F381E02DD7CF12
S113190021153105F9F0281B390B2430310580F4F9
S11319108A819B816115710521F0FB019383828388
S113192004C09093510280935002FE01329644C049
S1131930FE01E20FF31F8193919322503109398301
S113194028833AC020914E0230914F02232B41F458
S1131950209102023091030230934F0220934E02F1
S113196020910002309101022115310541F42DB777
S11319703EB74091040250910502241B350BE091BF
S11319804E02F0914F02E217F307A0F42E1B3F0B17
S11319902817390778F0AC014E5F5F4F24173507DD
S11319A048F04E0F5F1F50934F0240934E028193B5
S11319B0919302C0E0E0F0E0CF01DF91CF91089570
S11319C0CF93DF93009709F487C0FC013297138209
S11319D01282C0915002D0915102209781F420814B
S11319E03181280F391F80914E0290914F02821746
S11319F0930779F5F0934F02E0934E026DC0DE0138
S1131A0020E030E0AE17BF0750F412964D915C9180
S1131A1013979D014115510509F1DA01F3CFB38301
S1131A20A28340815181840F951F8A179B0771F40B
S1131A308D919C911197840F951F029691838083B9
S1131A4012968D919C91139793838283211531056E
S1131A5029F4F0935102E09350023EC0D901139649
S1131A60FC93EE9312974D915D91A40FB51FEA1765
S1131A70FB0779F480819181840F951F0296D90127
S1131A8011969C938E938281938113969C938E934B
S1131A901297E0E0F0E08A819B81009719F0FE0143
S1131AA0EC01F9CFCE01029628813981820F931F70
S1131AB020914E0230914F022817390769F430976C
S1131AC029F4109251021092500202C01382128221
S1131AD0D0934F02C0934E02DF91CF910895DC0161
S1131AE001C06D9341505040E0F70895F894FFCF42
S1131AF00000520220004D435032353135206973C5
S1131B00204E4F5420696E20636F6E66696775724C
S1131B106174696F6E206D6F6465206166746572AF
S1131B20207265736574210A00506F733A2025652D
S10B1B3020202020200D0000FC
S9030000FC
