S00D00004E6F6465322E737265635F
S113000071C000008FC000008DC000008BC00000D4
S113001089C0000087C0000085C0000083C00000C4
S113002081C000007FC000007DC000007BC00000D4
S113003079C0000077C0000075C0000073C00000E4
S113004071C000006FC000006DC000006BC00000F4
S113005069C0000067C0000065C0000063C0000004
S113006061C000005FC000005DC000005BC0000014
S113007059C0000057C0000055C0000053C0000024
S113008051C000004FC000004DC000004BC0000034
S113009049C0000047C0000045C0000043C0000044
S11300A041C000003FC000003DC000003BC0000054
S11300B039C0000037C0000035C0000033C0000064
S11300C031C000002FC000002DC000002BC0000074
S11300D029C0000027C0000025C0000023C0000084
S11300E021C0000011241FBECFEFD1E2DEBFCDBF7F
S11300F000E00CBF12E0A0E0B2E0EAECF1E100E0C5
S11301000BBF02C007900D92AE33B107D9F722E0BE
S1130110AEE3B2E001C01D92A834B207E1F71ED2EB
S11301200C94E3086DCFEF92FF920F931F93CF933C
S1130130DF93EC01E62E8CE0FE0111928A95E9F73B
S113014024D12E2D22952F70265041E050E0BA0183
S113015002C0660F771F2A95E2F79B01282B232BF9
S113016069F181E08E0DF6D078E0879F800111243B
S11301701983088382E08E0DEDD082958695877071
S1130180082B1983088385E08E0DE4D08F708A8351
S11301908823B1F08E010D5F1F4FF12C86E0E80E2D
S11301A08E2D8F0DD7D0F80181938F01F3948A811E
S11301B0F81640F4F8E0FF12F3CF06C080E005C063
S11301C081E003C081E001C081E0DF91CF911F9104
S11301D00F91FF90EF9008957F9905C08EE0BAD0FB
S11301E08E708695089580E0089560E08CE2BEC02C
S11301F008958798EAD0E4D040E860EE8FE0CCD050
S11302008EE0A8D0807E803819F086E092E0D2D3C8
S113021040E260E680E6C0D044E064E080E6BCD022
S113022040E260E680E7B8D063E08BE29FD060EA0A
S113023080E29CD040E260EE81E2AED060EA84E2EB
S113024095D040E660EE85E2A7D060E280E08ED0F3
S113025040E060EE81E0A0D060E284E087D040E23C
S113026060EE85E099D060EA88E080D040E060EEFE
S113027089E092D060EA80E179D040E260EE81E1E9
S11302808BD060EA84E172D040E460EE85E184D0F2
S113029060EA88E16BD040E660EE89E17DD0A5DFBD
S11302A040E060EE8FE078C00895863031F087300A
S11302B031F0813031F080E0089581E0089582E0EA
S11302C0089580E20895882329F0EFDF40E0682F45
S11302D08CE262C0089585E08093B800E9EBF0E019
S11302E080818160808381E18093BA00ECEBF0E04F
S11302F08081846080838FEF8093BB00089594EAAB
S11303009093BC00ECEBF0E090819923ECF7660F3E
S11303106093BB0094E89093BC00ECEBF0E0908118
S11303209923ECF71092BB0094E89093BC00ECEB9B
S1130330F0E090819923ECF78093BB0084E88093EC
S1130340BC00ECEBF0E080818823ECF784E9809337
S1130350BC000895CF93C82F289883E03ED08C2FFB
S11303603CD080E03AD0289ACF910895CF93DF9380
S1130370D82FC62F289882E030D08D2F2ED08C2FE6
S11303802CD0289ADF91CF910895289880EA25D01F
S113039080E023D0289A08951F93CF93DF93182FDA
S11303A0D62FC42F289885E018D0812F16D08D2FF2
S11303B014D08C2F12D0289ADF91CF911F910895D9
S11303C0289880EC0AD0289A0895229A2398219A92
S11303D0209A8CB581658CBD08958EBD0DB407FE41
S11303E0FDCF8EB50895E0ECF0E0908195FFFDCF50
S11303F08093C6000895E0ECF0E080818823ECF758
S11304008091C60008951092C50087E68093C400C9
S113041088E18093C10086E08093C2006BEF71E0B5
S113042083EF91E06CC208958098ECE7F0E080815E
S11304308083808180648083EAE7F0E0808189683A
S11304408083EBE7F0E0808180830895EAE7F0E0C1
S1130450808180648083808182FD06C08081846085
S11304608083808182FFFACF809178009091790017
S113047008950F931F93CF93DF93EC0188818F5FCF
S1130480888309811A81E2DF800F911F9A8389830F
S11304906881633390F070E01ED2683C710548F4C3
S11304A08B81813019F08C818F5F8C8381E08B8309
S11304B001C01B8218821A821982DF91CF911F9189
S11304C00F910895259AA0E8B0E08C9182608C93F6
S11304D0E1E8F0E08081886180838C9180688C936E
S11304E080818260808380E49CE99093870080937C
S11304F0860088E097E090938900809388000895AF
S11305008C392FEF920714F48CE99FEF853691050F
S113051014F084E690E066277727681B790B882718
S113052077FD8095982FE8D02BE933E549EC56E325
S11305306FD126EA3BE944EC5AE34CD020E034E2A4
S113054044E75BE465D120E030E040E05EE360D165
S1130550A5D070938900609388000895CF93DF93AA
S1130560CDB7DEB761970FB6F894DEBF0FBECDBF2F
S11305704ADF3FDEA7DF58DFAEDE09E312E02CDE00
S1130580F82E86E0F81621F087E0F81631F009C05D
S113059060E6CE010196C7DD04C060E7CE01019696
S11305A0C2DD8F2D90DE8C81992787FD9095A8DF81
S11305B0CE010D965EDF88891F928F931F930F9350
S11305C0E8D168E28CE39BDE0F900F900F900F90C0
S11305D0D6CF5058BB27AA270ED0E0C0D1D030F0D8
S11305E0D6D020F031F49F3F11F41EF4C6C00EF4AF
S11305F0E095E7FBBCC0E92FE2D080F3BA176207AD
S113060073078407950718F071F49EF5FAC00EF489
S1130610E0950B2EBA2FA02D0B01B90190010C010E
S1130620CA01A0011124FF27591B99F0593F50F426
S1130630503E68F11A16F040A22F232F342F44277E
S1130640585FF3CF469537952795A795F040539576
S1130650C9F77EF41F16BA0B620B730B840BBAF046
S11306609150A1F0FF0FBB1F661F771F881FC2F7B1
S11306700EC0BA0F621F731F841F48F487957795C5
S11306806795B795F7959E3F08F0B3CF9395880F7C
S113069008F09927EE0F97958795089598D088F0DC
S11306A09F5790F0B92F9927B751A0F0D1F0660F5A
S11306B0771F881F991F1AF0BA95C9F712C0B13075
S11306C081F09FD0B1E008959CC0672F782F8827D0
S11306D0B85F39F0B93FCCF3869577956795B395B4
S11306E0D9F73EF490958095709561957F4F8F4F23
S11306F09F4F0895E89409C097FB3EF49095809528
S1130700709561957F4F8F4F9F4F9923A9F0F92FD3
S113071096E9BB279395F695879577956795B79551
S1130720F111F8CFFAF4BB0F11F460FF1BC06F5F37
S11307307F4F8F4F9F4F16C0882311F096E911C049
S1130740772321F09EE8872F762F05C0662371F06A
S113075096E8862F70E060E02AF09A95660F771F7E
S1130760881FDAF7880F9695879597F9089597F972
S11307709F6780E870E060E008959FEF80EC089543
S113078000240A941616170618060906089500246C
S11307900A9412161306140605060895092E0394E6
S11307A0000C11F4882352F0BB0F40F4BF2B11F45A
S11307B060FF04C06F5F7F4F8F4F9F4F089557FDB9
S11307C09058440F551F59F05F3F71F04795880FBB
S11307D097FB991F61F09F3F79F087950895121652
S11307E013061406551FF2CF4695F1DF08C01616FE
S11307F017061806991FF1CF8695710561050894AF
S11308000895E894BB2766277727CB0197F90895C5
S11308100BD0C4CFB5DF28F0BADF18F0952309F068
S1130820A6CFABCF1124EECFCADFA0F3959FD1F3AF
S1130830950F50E0551F629FF001729FBB27F00D8A
S1130840B11D639FAA27F00DB11DAA1F649F6627DF
S1130850B00DA11D661F829F2227B00DA11D621F2E
S1130860739FB00DA11D621F839FA00D611D221FE8
S1130870749F3327A00D611D231F849F600D211DCC
S1130880822F762F6A2F11249F5750408AF0E1F06F
S113089088234AF0EE0FFF1FBB1F661F771F881FB8
S11308A091505040A9F79E3F510570F060CFAACFF8
S11308B05F3FECF3983EDCF3869577956795B795A3
S11308C0F795E7959F5FC1F7FE2B880F911D9695CD
S11308D0879597F90895AA1BBB1B51E107C0AA1F6E
S11308E0BB1FA617B70710F0A61BB70B881F991FCD
S11308F05A95A9F780959095BC01CD0108950F9361
S11309001F93CF93DF93EC018B01009731F46115B2
S1130910710519F480E090E037C06EE070E081E08A
S113092090E063D2FC010097A9F380E8838301156A
S1130930110571F01387028781E8838380913E0259
S113094090913F02892B21F4F0933F02E0933E0201
S11309502097C9F0D187C087838182608383809187
S1130960400290914102892B71F4F0934102E0938B
S113097040028091420290914302892B21F4F0932A
S11309804302E0934202CF01DF91CF911F910F9177
S11309900895CF93DF93CDB7DEB7FE01369661910C
S11309A07191AF01809140029091410230D0DF916A
S11309B0CF9108950F931F93CF93DF93E09140025B
S11309C0F0914102238121FF1BC0EC0100E010E003
S11309D089916091400270914102DB011896ED917A
S11309E0FC911997882331F01995892B89F30FEF1E
S11309F01FEFEECF8AE01995892B11F4C80102C0CC
S1130A008FEF9FEFDF91CF911F910F9108952F9258
S1130A103F924F925F926F927F928F929F92AF928A
S1130A20BF92CF92DF92EF92FF920F931F93CF93D7
S1130A30DF93CDB7DEB72C970FB6F894DEBF0FBEA9
S1130A40CDBF7C016B018A01FC0117821682838170
S1130A5081FFB0C1CE0101964C01F7019381F601EB
S1130A6093FD859193FF81916F01882309F49EC1C1
S1130A70853239F493FD859193FF81916F0185321D
S1130A8021F4B70190E00FD3E8CF512C312C20E0B2
S1130A902032A0F48B3269F030F4803259F0833282
S1130AA069F420612CC08D3239F0803339F421602F
S1130AB026C02260246023C0286021C027FD27C0EF
S1130AC030ED380F3A3078F426FF06C0FAE05F9E26
S1130AD0300D1124532E13C08AE0389E300D11249A
S1130AE0332E20620CC08E3221F426FD5FC12064B7
S1130AF006C08C3611F4206802C0883641F4F60131
S1130B0093FD859193FF81916F018111C1CF982F3E
S1130B109F7D9554933028F40C5F1F4FFFE3F983B6
S1130B200DC0833631F0833771F0833509F057C037
S1130B3021C0F801808189830E5F1F4F44244394B0
S1130B40512C540114C03801F2E06F0E711CF801ED
S1130B50A080B18026FF03C0652D70E002C06FEF56
S1130B607FEFC5012C8794D22C0183012C852F772C
S1130B70222E16C03801F2E06F0E711CF801A0801D
S1130B80B18026FF03C0652D70E002C06FEF7FEFD8
S1130B90C5012C876BD22C012C852068222E830161
S1130BA023FC19C0832D90E048165906A0F4B70120
S1130BB080E290E078D23A94F5CFF50127FC859154
S1130BC027FE81915F01B70190E06DD231103A9414
S1130BD0F1E04F1A51084114510479F7DEC084360C
S1130BE011F0893631F5F80127FF07C06081718162
S1130BF0828193810C5F1F4F08C0608171818827B7
S1130C0077FD8095982F0E5F1F4F2F76B22E97FF9A
S1130C1009C090958095709561957F4F8F4F9F4F38
S1130C202068B22E2AE030E0A4016FD2A82EA818C2
S1130C3043C0853729F42F7EB22E2AE030E025C048
S1130C40F22FF97FBF2E8F36C1F018F4883579F072
S1130C50ADC0803719F0883721F0A8C02F2F20614C
S1130C60B22EB4FE0DC08B2D8460B82E09C024FFB3
S1130C700AC09F2F9660B92E06C028E030E005C058
S1130C8020E130E002C020E132E0F801B7FE07C005
S1130C9060817181828193810C5F1F4F06C06081E6
S1130CA0718180E090E00E5F1F4FA4012ED2A82E28
S1130CB0A818FB2DFF77BF2EB6FE0BC02B2D2E7F61
S1130CC0A51450F4B4FE0AC0B2FC08C02B2D2E7E2D
S1130CD005C07A2C2B2D03C07A2C01C0752C24FF5F
S1130CE00DC0FE01EA0DF11D8081803311F4297ECF
S1130CF009C022FF06C07394739404C0822F8678BF
S1130D0009F0739423FD12C020FF06C05A2C7314FB
S1130D1018F4530C5718732C731460F4B70180E261
S1130D2090E02C87C0D173942C85F6CF731410F403
S1130D30371801C0312C24FF11C0B70180E390E0C3
S1130D402C87B1D12C8522FF16C021FF03C088E572
S1130D5090E002C088E790E0B7010CC0822F86784B
S1130D6051F021FD02C080E201C08BE227FD8DE23B
S1130D70B70190E098D1A51430F4B70180E390E076
S1130D8092D15A94F8CFAA94F401EA0DF11D80810E
S1130D90B70190E088D1A110F6CF332009F45DCEDD
S1130DA0B70180E290E07FD13A94F7CFF7018681D2
S1130DB0978102C08FEF9FEF2C960FB6F894DEBF99
S1130DC00FBECDBFDF91CF911F910F91FF90EF9098
S1130DD0DF90CF90BF90AF909F908F907F906F9057
S1130DE05F904F903F902F9008950F931F93CF9350
S1130DF0DF93869F8001879F100D969F100D11240D
S1130E00C8010DD0EC01009721F0A80160E070E06A
S1130E1038D1CE01DF91CF911F910F910895CF93D7
S1130E20DF938230910510F482E090E0E091460275
S1130E30F091470220E030E0A0E0B0E0309739F1D3
S1130E404081518148175907B8F04817590771F480
S1130E5082819381109729F013969C938E93129715
S1130E602CC0909347028093460227C02115310578
S1130E7031F04217530718F0A901DB0101C0EF015B
S1130E809A01BD01DF010280F381E02DD7CF211546
S1130E903105F9F0281B390B2430310580F48A819F
S1130EA09B816115710521F0FB019383828304C04A
S1130EB09093470280934602FE01329644C0FE019D
S1130EC0E20FF31F819391932250310939832883D0
S1130ED03AC02091440230914502232B41F42091E1
S1130EE00202309103023093450220934402209180
S1130EF00002309101022115310541F42DB73EB7AE
S1130F004091040250910502241B350BE0914402E8
S1130F10F0914502E217F307A0F42E1B3F0B2817AC
S1130F20390778F0AC014E5F5F4F2417350748F05E
S1130F304E0F5F1F50934502409344028193919357
S1130F4002C0E0E0F0E0CF01DF91CF910895CF93AC
S1130F50DF93009709F487C0FC0132971382128251
S1130F60C0914602D0914702209781F420813181BB
S1130F70280F391F809144029091450282179307EC
S1130F8079F5F0934502E09344026DC0DE0120E060
S1130F9030E0AE17BF0750F412964D915C91139751
S1130FA09D014115510509F1DA01F3CFB383A28301
S1130FB040815181840F951F8A179B0771F48D918D
S1130FC09C911197840F951F0296918380831296AA
S1130FD08D919C911397938382832115310529F474
S1130FE0F0934702E09346023EC0D9011396FC9366
S1130FF0EE9312974D915D91A40FB51FEA17FB076D
S113100079F480819181840F951F0296D9011196FC
S11310109C938E938281938113969C938E931297C3
S1131020E0E0F0E08A819B81009719F0FE01EC0179
S1131030F9CFCE01029628813981820F931F209126
S11310404402309145022817390769F4309729F48E
S1131050109247021092460202C013821282D09369
S11310604502C0934402DF91CF910895FC0105909D
S1131070615070400110D8F7809590958E0F9F1F96
S11310800895DC0101C06D9341505040E0F708958C
S1131090FC016150704001900110D8F78095909543
S11310A08E0F9F1F08950F931F93CF93DF93182FD5
S11310B0092FEB018B8181FD03C08FEF9FEF20C0CF
S11310C082FF10C04E815F812C813D8142175307FE
S11310D07CF4E881F9819F012F5F3F4F3983288396
S11310E0108306C0E885F985812F1995892B29F786
S11310F02E813F812F5F3F4F3F832E83812F902F7F
S1131100DF91CF911F910F910895FA01AA272830FA
S113111051F1203181F1E8946F936E7F6E5F7F4FC0
S11311208F4F9F4FAF4FB1E03ED0B4E03CD0670F3C
S1131130781F891F9A1FA11D680F791F8A1F911D8F
S1131140A11D6A0F711D811D911DA11D20D009F4DF
S113115068943F912AE0269F11243019305D319321
S1131160DEF6CF010895462F4770405D4193B3E00A
S11311700FD0C9F7F6CF462F4F70405D4A3318F0B1
S1131180495D31FD4052419302D0A9F7EACFB4E062
S1131190A6959795879577956795BA95C9F700971A
S11311A06105710508959B01AC010A2E06945795BB
S11311B0479537952795BA95C9F7620F731F841F12
S10D11C0951FA01D0895F894FFCFB9
S11311CA0000480220004D435032353135206973FE
S11311DA204E4F5420696E20636F6E66696775727C
S11311EA6174696F6E206D6F6465206166746572DF
S11111FA207265736574210A002575200D00AE
S9030000FC
